{
  "_format": "hh-sol-artifact-1",
  "contractName": "BatchTaskVoting",
  "sourceName": "contracts/BatchTaskVoting.sol",
  "abi": [
    {
      "anonymous": false,
      "inputs": [
        {
          "indexed": true,
          "internalType": "uint256",
          "name": "pollId",
          "type": "uint256"
        },
        {
          "indexed": false,
          "internalType": "enum IBatchTaskVoting.POLL_STATE",
          "name": "pollState",
          "type": "uint8"
        },
        {
          "components": [
            {
              "internalType": "uint256",
              "name": "batchTaskId",
              "type": "uint256"
            },
            {
              "internalType": "int256",
              "name": "result",
              "type": "int256"
            },
            {
              "internalType": "address[]",
              "name": "voters",
              "type": "address[]"
            }
          ],
          "indexed": false,
          "internalType": "struct IBatchTaskVoting.BatchTaskVoting",
          "name": "batchWinVote",
          "type": "tuple"
        },
        {
          "indexed": false,
          "internalType": "uint256",
          "name": "endTime",
          "type": "uint256"
        }
      ],
      "name": "EndVote",
      "type": "event"
    },
    {
      "anonymous": false,
      "inputs": [
        {
          "indexed": true,
          "internalType": "uint256",
          "name": "pollId",
          "type": "uint256"
        },
        {
          "indexed": false,
          "internalType": "enum IBatchTaskVoting.POLL_STATE",
          "name": "pollState",
          "type": "uint8"
        },
        {
          "components": [
            {
              "internalType": "uint256",
              "name": "batchTaskId",
              "type": "uint256"
            },
            {
              "internalType": "int256",
              "name": "result",
              "type": "int256"
            },
            {
              "internalType": "address[]",
              "name": "voters",
              "type": "address[]"
            }
          ],
          "indexed": false,
          "internalType": "struct IBatchTaskVoting.BatchTaskVoting",
          "name": "batchTaskAuction",
          "type": "tuple"
        },
        {
          "indexed": false,
          "internalType": "uint256",
          "name": "time",
          "type": "uint256"
        }
      ],
      "name": "InitBatchTaskAuction",
      "type": "event"
    },
    {
      "anonymous": false,
      "inputs": [
        {
          "indexed": false,
          "internalType": "string",
          "name": "notify",
          "type": "string"
        }
      ],
      "name": "Notify",
      "type": "event"
    },
    {
      "anonymous": false,
      "inputs": [
        {
          "indexed": true,
          "internalType": "uint256",
          "name": "_pollId",
          "type": "uint256"
        },
        {
          "indexed": false,
          "internalType": "uint256[]",
          "name": "_batchTaskID",
          "type": "uint256[]"
        },
        {
          "indexed": false,
          "internalType": "uint256",
          "name": "_voteDuration",
          "type": "uint256"
        },
        {
          "indexed": false,
          "internalType": "enum IBatchTaskVoting.POLL_STATE",
          "name": "_pollState",
          "type": "uint8"
        },
        {
          "indexed": false,
          "internalType": "uint256",
          "name": "timeStart",
          "type": "uint256"
        }
      ],
      "name": "OpenForVote",
      "type": "event"
    },
    {
      "anonymous": false,
      "inputs": [
        {
          "indexed": true,
          "internalType": "address",
          "name": "previousOwner",
          "type": "address"
        },
        {
          "indexed": true,
          "internalType": "address",
          "name": "newOwner",
          "type": "address"
        }
      ],
      "name": "OwnershipTransferred",
      "type": "event"
    },
    {
      "anonymous": false,
      "inputs": [
        {
          "indexed": true,
          "internalType": "uint256",
          "name": "_pollId",
          "type": "uint256"
        },
        {
          "components": [
            {
              "internalType": "uint256",
              "name": "batchTaskId",
              "type": "uint256"
            },
            {
              "internalType": "int256",
              "name": "result",
              "type": "int256"
            },
            {
              "internalType": "address[]",
              "name": "voters",
              "type": "address[]"
            }
          ],
          "indexed": false,
          "internalType": "struct IBatchTaskVoting.BatchTaskVoting",
          "name": "batchTaskVoted",
          "type": "tuple"
        },
        {
          "indexed": false,
          "internalType": "uint256",
          "name": "voteTime",
          "type": "uint256"
        },
        {
          "indexed": true,
          "internalType": "address",
          "name": "voter",
          "type": "address"
        }
      ],
      "name": "VoteOnBatchTask",
      "type": "event"
    },
    {
      "inputs": [
        {
          "internalType": "uint256",
          "name": "",
          "type": "uint256"
        }
      ],
      "name": "batchTaskIdToBatchTaskVoting",
      "outputs": [
        {
          "internalType": "uint256",
          "name": "batchTaskId",
          "type": "uint256"
        },
        {
          "internalType": "int256",
          "name": "result",
          "type": "int256"
        }
      ],
      "stateMutability": "view",
      "type": "function"
    },
    {
      "inputs": [
        {
          "internalType": "uint256",
          "name": "",
          "type": "uint256"
        },
        {
          "internalType": "uint256",
          "name": "",
          "type": "uint256"
        }
      ],
      "name": "batchTaskIdToPollIdToPreviousResult",
      "outputs": [
        {
          "internalType": "int256",
          "name": "",
          "type": "int256"
        }
      ],
      "stateMutability": "view",
      "type": "function"
    },
    {
      "inputs": [
        {
          "internalType": "uint256",
          "name": "",
          "type": "uint256"
        }
      ],
      "name": "batchTasks",
      "outputs": [
        {
          "internalType": "uint256",
          "name": "batchTaskId",
          "type": "uint256"
        },
        {
          "internalType": "int256",
          "name": "result",
          "type": "int256"
        }
      ],
      "stateMutability": "view",
      "type": "function"
    },
    {
      "inputs": [],
      "name": "endVote",
      "outputs": [],
      "stateMutability": "nonpayable",
      "type": "function"
    },
    {
      "inputs": [
        {
          "internalType": "uint256",
          "name": "_pollID",
          "type": "uint256"
        }
      ],
      "name": "getAllBatchTaskVoting",
      "outputs": [
        {
          "components": [
            {
              "internalType": "uint256",
              "name": "batchTaskId",
              "type": "uint256"
            },
            {
              "internalType": "int256",
              "name": "result",
              "type": "int256"
            },
            {
              "internalType": "address[]",
              "name": "voters",
              "type": "address[]"
            }
          ],
          "internalType": "struct IBatchTaskVoting.BatchTaskVoting[]",
          "name": "",
          "type": "tuple[]"
        }
      ],
      "stateMutability": "view",
      "type": "function"
    },
    {
      "inputs": [],
      "name": "getAllPollVoting",
      "outputs": [
        {
          "components": [
            {
              "internalType": "uint256",
              "name": "pollId",
              "type": "uint256"
            },
            {
              "internalType": "uint256",
              "name": "voteDuration",
              "type": "uint256"
            },
            {
              "internalType": "uint256",
              "name": "startTime",
              "type": "uint256"
            },
            {
              "internalType": "uint256[]",
              "name": "batchTaskIds",
              "type": "uint256[]"
            },
            {
              "internalType": "enum IBatchTaskVoting.POLL_STATE",
              "name": "pollState",
              "type": "uint8"
            }
          ],
          "internalType": "struct IBatchTaskVoting.PollVoting[]",
          "name": "",
          "type": "tuple[]"
        }
      ],
      "stateMutability": "view",
      "type": "function"
    },
    {
      "inputs": [
        {
          "internalType": "uint256",
          "name": "_pollId",
          "type": "uint256"
        },
        {
          "internalType": "uint256",
          "name": "_voteDuration",
          "type": "uint256"
        },
        {
          "internalType": "uint256[]",
          "name": "_batchTaskids",
          "type": "uint256[]"
        }
      ],
      "name": "openPollForVote",
      "outputs": [],
      "stateMutability": "nonpayable",
      "type": "function"
    },
    {
      "inputs": [],
      "name": "owner",
      "outputs": [
        {
          "internalType": "address",
          "name": "",
          "type": "address"
        }
      ],
      "stateMutability": "view",
      "type": "function"
    },
    {
      "inputs": [
        {
          "internalType": "uint256",
          "name": "",
          "type": "uint256"
        }
      ],
      "name": "pollIdToPoll",
      "outputs": [
        {
          "internalType": "uint256",
          "name": "pollId",
          "type": "uint256"
        },
        {
          "internalType": "uint256",
          "name": "voteDuration",
          "type": "uint256"
        },
        {
          "internalType": "uint256",
          "name": "startTime",
          "type": "uint256"
        },
        {
          "internalType": "enum IBatchTaskVoting.POLL_STATE",
          "name": "pollState",
          "type": "uint8"
        }
      ],
      "stateMutability": "view",
      "type": "function"
    },
    {
      "inputs": [
        {
          "internalType": "uint256",
          "name": "",
          "type": "uint256"
        },
        {
          "internalType": "address",
          "name": "",
          "type": "address"
        }
      ],
      "name": "pollIdToVoterToPreviousVote",
      "outputs": [
        {
          "internalType": "uint256",
          "name": "",
          "type": "uint256"
        }
      ],
      "stateMutability": "view",
      "type": "function"
    },
    {
      "inputs": [
        {
          "internalType": "uint256",
          "name": "",
          "type": "uint256"
        },
        {
          "internalType": "address",
          "name": "",
          "type": "address"
        }
      ],
      "name": "pollIdToVoterToVoted",
      "outputs": [
        {
          "internalType": "bool",
          "name": "",
          "type": "bool"
        }
      ],
      "stateMutability": "view",
      "type": "function"
    },
    {
      "inputs": [
        {
          "internalType": "uint256",
          "name": "",
          "type": "uint256"
        }
      ],
      "name": "pollVotings",
      "outputs": [
        {
          "internalType": "uint256",
          "name": "pollId",
          "type": "uint256"
        },
        {
          "internalType": "uint256",
          "name": "voteDuration",
          "type": "uint256"
        },
        {
          "internalType": "uint256",
          "name": "startTime",
          "type": "uint256"
        },
        {
          "internalType": "enum IBatchTaskVoting.POLL_STATE",
          "name": "pollState",
          "type": "uint8"
        }
      ],
      "stateMutability": "view",
      "type": "function"
    },
    {
      "inputs": [],
      "name": "renounceOwnership",
      "outputs": [],
      "stateMutability": "nonpayable",
      "type": "function"
    },
    {
      "inputs": [
        {
          "internalType": "address",
          "name": "_taskManagerAddress",
          "type": "address"
        }
      ],
      "name": "setTaskManager",
      "outputs": [],
      "stateMutability": "nonpayable",
      "type": "function"
    },
    {
      "inputs": [],
      "name": "taskManager",
      "outputs": [
        {
          "internalType": "contract ITaskManager",
          "name": "",
          "type": "address"
        }
      ],
      "stateMutability": "view",
      "type": "function"
    },
    {
      "inputs": [
        {
          "internalType": "address",
          "name": "newOwner",
          "type": "address"
        }
      ],
      "name": "transferOwnership",
      "outputs": [],
      "stateMutability": "nonpayable",
      "type": "function"
    },
    {
      "inputs": [
        {
          "internalType": "uint256",
          "name": "_batchTaskID",
          "type": "uint256"
        },
        {
          "internalType": "uint256",
          "name": "_pollId",
          "type": "uint256"
        }
      ],
      "name": "voteOnBatchTask",
      "outputs": [],
      "stateMutability": "nonpayable",
      "type": "function"
    }
  ],
  "bytecode": "0x60806040523480156200001157600080fd5b5062000032620000266200003860201b60201c565b6200004060201b60201c565b62000104565b600033905090565b60008060009054906101000a900473ffffffffffffffffffffffffffffffffffffffff169050816000806101000a81548173ffffffffffffffffffffffffffffffffffffffff021916908373ffffffffffffffffffffffffffffffffffffffff1602179055508173ffffffffffffffffffffffffffffffffffffffff168173ffffffffffffffffffffffffffffffffffffffff167f8be0079c531659141344cd1fd0a4f28419497f9722a3daafe3b4186f6b6457e060405160405180910390a35050565b612d0f80620001146000396000f3fe608060405234801561001057600080fd5b506004361061010b5760003560e01c80636d46cb60116100a2578063b1ed87de11610071578063b1ed87de146102d2578063b9223946146102ee578063e73fe55f146102f8578063f2fde38b14610329578063f535d117146103455761010b565b80636d46cb601461026e578063715018a61461028c5780638da5cb5b14610296578063a50a640e146102b45761010b565b8063275bc4d5116100de578063275bc4d5146101d6578063327d0a60146101f257806341471b731461020e5780636b17e95d1461023e5761010b565b80631740ddc5146101105780631f6ec3301461014057806323f19353146101735780632425795a146101a3575b600080fd5b61012a60048036038101906101259190611c73565b610376565b6040516101379190611cc2565b60405180910390f35b61015a60048036038101906101559190611cdd565b61039b565b60405161016a9493929190611d81565b60405180910390f35b61018d60048036038101906101889190611c73565b6103e8565b60405161019a9190611de1565b60405180910390f35b6101bd60048036038101906101b89190611cdd565b610417565b6040516101cd9493929190611d81565b60405180910390f35b6101f060048036038101906101eb9190611dfc565b610454565b005b61020c60048036038101906102079190611e3c565b610b79565b005b61022860048036038101906102239190611cdd565b610bc5565b6040516102359190612061565b60405180910390f35b61025860048036038101906102539190611dfc565b610d89565b6040516102659190612092565b60405180910390f35b610276610dae565b60405161028391906122a3565b60405180910390f35b610294610f31565b005b61029e610f45565b6040516102ab91906122d4565b60405180910390f35b6102bc610f6e565b6040516102c9919061234e565b60405180910390f35b6102ec60048036038101906102e791906124c2565b610f94565b005b6102f66112e1565b005b610312600480360381019061030d9190611cdd565b611850565b604051610320929190612531565b60405180910390f35b610343600480360381019061033e9190611e3c565b611874565b005b61035f600480360381019061035a9190611cdd565b6118f7565b60405161036d929190612531565b60405180910390f35b6006602052816000526040600020602052806000526040600020600091509150505481565b600481815481106103ab57600080fd5b90600052602060002090600502016000915090508060000154908060010154908060020154908060040160009054906101000a900460ff16905084565b60056020528160005260406000206020528060005260406000206000915091509054906101000a900460ff1681565b60036020528060005260406000206000915090508060000154908060010154908060020154908060040160009054906101000a900460ff16905084565b60018181600281111561046a57610469611d0a565b5b6003600083815260200190815260200160002060040160009054906101000a900460ff1660028111156104a05761049f611d0a565b5b146104e0576040517f08c379a00000000000000000000000000000000000000000000000000000000081526004016104d7906125b7565b60405180910390fd5b6003600084815260200190815260200160002060020154421015801561053d5750600360008481526020019081526020016000206001015460036000858152602001908152602001600020600201546105399190612606565b4211155b61057c576040517f08c379a000000000000000000000000000000000000000000000000000000000815260040161057390612686565b60405180910390fd5b600115156005600085815260200190815260200160002060003373ffffffffffffffffffffffffffffffffffffffff1673ffffffffffffffffffffffffffffffffffffffff16815260200190815260200160002060009054906101000a900460ff1615150361075357836006600085815260200190815260200160002060003373ffffffffffffffffffffffffffffffffffffffff1673ffffffffffffffffffffffffffffffffffffffff1681526020019081526020016000205403610677576040517f08c379a000000000000000000000000000000000000000000000000000000000815260040161066e906126f2565b60405180910390fd5b60005b600360008581526020019081526020016000206003018054905081101561075157600760006003600087815260200190815260200160002060030183815481106106c7576106c6612712565b5b906000526020600020015481526020019081526020016000206000858152602001908152602001600020546002600060036000888152602001908152602001600020600301848154811061071e5761071d612712565b5b9060005260206000200154815260200190815260200160002060010181905550808061074990612741565b91505061067a565b505b60005b6003600085815260200190815260200160002060030180549050811015610a5157600115156005600086815260200190815260200160002060003373ffffffffffffffffffffffffffffffffffffffff1673ffffffffffffffffffffffffffffffffffffffff16815260200190815260200160002060009054906101000a900460ff1615151461088a576002600060036000878152602001908152602001600020600301838154811061080c5761080b612712565b5b90600052602060002001548152602001908152602001600020600201339080600181540180825580915050600190039060005260206000200160009091909190916101000a81548173ffffffffffffffffffffffffffffffffffffffff021916908373ffffffffffffffffffffffffffffffffffffffff1602179055505b600260006003600087815260200190815260200160002060030183815481106108b6576108b5612712565b5b9060005260206000200154815260200190815260200160002060010154600760006003600088815260200190815260200160002060030184815481106108ff576108fe612712565b5b90600052602060002001548152602001908152602001600020600086815260200190815260200160002081905550846002600060036000888152602001908152602001600020600301848154811061095a57610959612712565b5b9060005260206000200154815260200190815260200160002060000154146109df57600260006003600087815260200190815260200160002060030183815481106109a8576109a7612712565b5b9060005260206000200154815260200190815260200160002060010160008154809291906109d590612789565b9190505550610a3e565b60026000600360008781526020019081526020016000206003018381548110610a0b57610a0a612712565b5b906000526020600020015481526020019081526020016000206001016000815480929190610a38906127d1565b91905055505b8080610a4990612741565b915050610756565b50836006600085815260200190815260200160002060003373ffffffffffffffffffffffffffffffffffffffff1673ffffffffffffffffffffffffffffffffffffffff1681526020019081526020016000208190555060016005600085815260200190815260200160002060003373ffffffffffffffffffffffffffffffffffffffff1673ffffffffffffffffffffffffffffffffffffffff16815260200190815260200160002060006101000a81548160ff0219169083151502179055503373ffffffffffffffffffffffffffffffffffffffff16837f49f98a7d68598cd2de4b010e59aded7d10cfd25fdf2b5349b44245f4e1f8212b6002600088815260200190815260200160002042604051610b6b9291906129b4565b60405180910390a350505050565b610b8161192b565b80600160006101000a81548173ffffffffffffffffffffffffffffffffffffffff021916908373ffffffffffffffffffffffffffffffffffffffff16021790555050565b60606000600360008481526020019081526020016000206003018054905067ffffffffffffffff811115610bfc57610bfb61237f565b5b604051908082528060200260200182016040528015610c3557816020015b610c22611a75565b815260200190600190039081610c1a5790505b50905060005b6003600085815260200190815260200160002060030180549050811015610d7f5760026000600360008781526020019081526020016000206003018381548110610c8857610c87612712565b5b90600052602060002001548152602001908152602001600020604051806060016040529081600082015481526020016001820154815260200160028201805480602002602001604051908101604052809291908181526020018280548015610d4557602002820191906000526020600020905b8160009054906101000a900473ffffffffffffffffffffffffffffffffffffffff1673ffffffffffffffffffffffffffffffffffffffff1681526020019060010190808311610cfb575b505050505081525050828281518110610d6157610d60612712565b5b60200260200101819052508080610d7790612741565b915050610c3b565b5080915050919050565b6007602052816000526040600020602052806000526040600020600091509150505481565b6060600060048054905067ffffffffffffffff811115610dd157610dd061237f565b5b604051908082528060200260200182016040528015610e0a57816020015b610df7611a96565b815260200190600190039081610def5790505b50905060005b600480549050811015610f295760036000600183610e2e9190612606565b81526020019081526020016000206040518060a001604052908160008201548152602001600182015481526020016002820154815260200160038201805480602002602001604051908101604052809291908181526020018280548015610eb457602002820191906000526020600020905b815481526020019060010190808311610ea0575b505050505081526020016004820160009054906101000a900460ff166002811115610ee257610ee1611d0a565b5b6002811115610ef457610ef3611d0a565b5b81525050828281518110610f0b57610f0a612712565b5b60200260200101819052508080610f2190612741565b915050610e10565b508091505090565b610f3961192b565b610f4360006119a9565b565b60008060009054906101000a900473ffffffffffffffffffffffffffffffffffffffff16905090565b600160009054906101000a900473ffffffffffffffffffffffffffffffffffffffff1681565b600160009054906101000a900473ffffffffffffffffffffffffffffffffffffffff1673ffffffffffffffffffffffffffffffffffffffff163373ffffffffffffffffffffffffffffffffffffffff1614611024576040517f08c379a000000000000000000000000000000000000000000000000000000000815260040161101b90612a30565b60405180910390fd5b60006040518060a001604052808581526020018481526020014281526020018381526020016001600281111561105d5761105c611d0a565b5b8152509050806003600086815260200190815260200160002060008201518160000155602082015181600101556040820151816002015560608201518160030190805190602001906110b0929190611ad7565b5060808201518160040160006101000a81548160ff021916908360028111156110dc576110db611d0a565b5b02179055509050506004819080600181540180825580915050600190039060005260206000209060050201600090919091909150600082015181600001556020820151816001015560408201518160020155606082015181600301908051906020019061114a929190611ad7565b5060808201518160040160006101000a81548160ff0219169083600281111561117657611175611d0a565b5b0217905550505060005b825181101561129b576060600060405180606001604052808685815181106111ab576111aa612712565b5b602002602001015181526020016000815260200183815250905080600260008786815181106111dd576111dc612712565b5b6020026020010151815260200190815260200160002060008201518160000155602082015181600101556040820151816002019080519060200190611223929190611b24565b50905050600881908060018154018082558091505060019003906000526020600020906003020160009091909190915060008201518160000155602082015181600101556040820151816002019080519060200190611283929190611b24565b5050505050808061129390612741565b915050611180565b50837f6c62f7c0f3ac1a374f10a7d65e19e1d4596d55c0cc7e48246cd15f470af0350d83856001426040516112d39493929190612abf565b60405180910390a250505050565b6000805b60048054905081101561180a576001600281111561130657611305611d0a565b5b6004828154811061131a57611319612712565b5b906000526020600020906005020160040160009054906101000a900460ff16600281111561134b5761134a611d0a565b5b1480156113ac5750426004828154811061136857611367612712565b5b9060005260206000209060050201600101546004838154811061138e5761138d612712565b5b9060005260206000209060050201600201546113aa9190612606565b105b156117f757600191506002600482815481106113cb576113ca612712565b5b906000526020600020906005020160040160006101000a81548160ff021916908360028111156113fe576113fd611d0a565b5b02179055506000600260006004848154811061141d5761141c612712565b5b906000526020600020906005020160030160008154811061144157611440612712565b5b9060005260206000200154815260200190815260200160002060010154905060005b6004838154811061147757611476612712565b5b906000526020600020906005020160030180549050811015611560578160026000600486815481106114ac576114ab612712565b5b906000526020600020906005020160030184815481106114cf576114ce612712565b5b9060005260206000200154815260200190815260200160002060010154131561154d57600260006004858154811061150a57611509612712565b5b9060005260206000209060050201600301838154811061152d5761152c612712565b5b906000526020600020015481526020019081526020016000206001015491505b808061155890612741565b915050611463565b5060005b6004838154811061157857611577612712565b5b9060005260206000209060050201600301805490508110156117f45760026000600485815481106115ac576115ab612712565b5b906000526020600020906005020160030183815481106115cf576115ce612712565b5b90600052602060002001548152602001908152602001600020600101548214801561165557506000600260006004868154811061160f5761160e612712565b5b9060005260206000209060050201600301848154811061163257611631612712565b5b906000526020600020015481526020019081526020016000206002018054905014155b156117e157600160009054906101000a900473ffffffffffffffffffffffffffffffffffffffff1673ffffffffffffffffffffffffffffffffffffffff16639acea8d3600485815481106116ac576116ab612712565b5b906000526020600020906005020160030183815481106116cf576116ce612712565b5b90600052602060002001546040518263ffffffff1660e01b81526004016116f69190611cc2565b600060405180830381600087803b15801561171057600080fd5b505af1158015611724573d6000803e3d6000fd5b505050506004838154811061173c5761173b612712565b5b9060005260206000209060050201600001547f0ce46fbe3f4a92ed2e6f797d6955c1e8e72b707917a2e71c9b469f11da672f8a60028060006004888154811061178857611787612712565b5b906000526020600020906005020160030186815481106117ab576117aa612712565b5b90600052602060002001548152602001908152602001600020426040516117d493929190612b0b565b60405180910390a26117f4565b80806117ec90612741565b915050611564565b50505b808061180290612741565b9150506112e5565b50600015158115150361184d577f740029a372cf63fe0e8d59421d39ff2e39506263bf68a6d46f4ade0771a0901260405161184490612bbb565b60405180910390a15b50565b60026020528060005260406000206000915090508060000154908060010154905082565b61187c61192b565b600073ffffffffffffffffffffffffffffffffffffffff168173ffffffffffffffffffffffffffffffffffffffff16036118eb576040517f08c379a00000000000000000000000000000000000000000000000000000000081526004016118e290612c4d565b60405180910390fd5b6118f4816119a9565b50565b6008818154811061190757600080fd5b90600052602060002090600302016000915090508060000154908060010154905082565b611933611a6d565b73ffffffffffffffffffffffffffffffffffffffff16611951610f45565b73ffffffffffffffffffffffffffffffffffffffff16146119a7576040517f08c379a000000000000000000000000000000000000000000000000000000000815260040161199e90612cb9565b60405180910390fd5b565b60008060009054906101000a900473ffffffffffffffffffffffffffffffffffffffff169050816000806101000a81548173ffffffffffffffffffffffffffffffffffffffff021916908373ffffffffffffffffffffffffffffffffffffffff1602179055508173ffffffffffffffffffffffffffffffffffffffff168173ffffffffffffffffffffffffffffffffffffffff167f8be0079c531659141344cd1fd0a4f28419497f9722a3daafe3b4186f6b6457e060405160405180910390a35050565b600033905090565b60405180606001604052806000815260200160008152602001606081525090565b6040518060a001604052806000815260200160008152602001600081526020016060815260200160006002811115611ad157611ad0611d0a565b5b81525090565b828054828255906000526020600020908101928215611b13579160200282015b82811115611b12578251825591602001919060010190611af7565b5b509050611b209190611bae565b5090565b828054828255906000526020600020908101928215611b9d579160200282015b82811115611b9c5782518260006101000a81548173ffffffffffffffffffffffffffffffffffffffff021916908373ffffffffffffffffffffffffffffffffffffffff16021790555091602001919060010190611b44565b5b509050611baa9190611bae565b5090565b5b80821115611bc7576000816000905550600101611baf565b5090565b6000604051905090565b600080fd5b600080fd5b6000819050919050565b611bf281611bdf565b8114611bfd57600080fd5b50565b600081359050611c0f81611be9565b92915050565b600073ffffffffffffffffffffffffffffffffffffffff82169050919050565b6000611c4082611c15565b9050919050565b611c5081611c35565b8114611c5b57600080fd5b50565b600081359050611c6d81611c47565b92915050565b60008060408385031215611c8a57611c89611bd5565b5b6000611c9885828601611c00565b9250506020611ca985828601611c5e565b9150509250929050565b611cbc81611bdf565b82525050565b6000602082019050611cd76000830184611cb3565b92915050565b600060208284031215611cf357611cf2611bd5565b5b6000611d0184828501611c00565b91505092915050565b7f4e487b7100000000000000000000000000000000000000000000000000000000600052602160045260246000fd5b60038110611d4a57611d49611d0a565b5b50565b6000819050611d5b82611d39565b919050565b6000611d6b82611d4d565b9050919050565b611d7b81611d60565b82525050565b6000608082019050611d966000830187611cb3565b611da36020830186611cb3565b611db06040830185611cb3565b611dbd6060830184611d72565b95945050505050565b60008115159050919050565b611ddb81611dc6565b82525050565b6000602082019050611df66000830184611dd2565b92915050565b60008060408385031215611e1357611e12611bd5565b5b6000611e2185828601611c00565b9250506020611e3285828601611c00565b9150509250929050565b600060208284031215611e5257611e51611bd5565b5b6000611e6084828501611c5e565b91505092915050565b600081519050919050565b600082825260208201905092915050565b6000819050602082019050919050565b611e9e81611bdf565b82525050565b6000819050919050565b611eb781611ea4565b82525050565b600081519050919050565b600082825260208201905092915050565b6000819050602082019050919050565b611ef281611c35565b82525050565b6000611f048383611ee9565b60208301905092915050565b6000602082019050919050565b6000611f2882611ebd565b611f328185611ec8565b9350611f3d83611ed9565b8060005b83811015611f6e578151611f558882611ef8565b9750611f6083611f10565b925050600181019050611f41565b5085935050505092915050565b6000606083016000830151611f936000860182611e95565b506020830151611fa66020860182611eae565b5060408301518482036040860152611fbe8282611f1d565b9150508091505092915050565b6000611fd78383611f7b565b905092915050565b6000602082019050919050565b6000611ff782611e69565b6120018185611e74565b93508360208202850161201385611e85565b8060005b8581101561204f57848403895281516120308582611fcb565b945061203b83611fdf565b925060208a01995050600181019050612017565b50829750879550505050505092915050565b6000602082019050818103600083015261207b8184611fec565b905092915050565b61208c81611ea4565b82525050565b60006020820190506120a76000830184612083565b92915050565b600081519050919050565b600082825260208201905092915050565b6000819050602082019050919050565b600081519050919050565b600082825260208201905092915050565b6000819050602082019050919050565b60006121118383611e95565b60208301905092915050565b6000602082019050919050565b6000612135826120d9565b61213f81856120e4565b935061214a836120f5565b8060005b8381101561217b5781516121628882612105565b975061216d8361211d565b92505060018101905061214e565b5085935050505092915050565b61219181611d60565b82525050565b600060a0830160008301516121af6000860182611e95565b5060208301516121c26020860182611e95565b5060408301516121d56040860182611e95565b50606083015184820360608601526121ed828261212a565b91505060808301516122026080860182612188565b508091505092915050565b60006122198383612197565b905092915050565b6000602082019050919050565b6000612239826120ad565b61224381856120b8565b935083602082028501612255856120c9565b8060005b858110156122915784840389528151612272858261220d565b945061227d83612221565b925060208a01995050600181019050612259565b50829750879550505050505092915050565b600060208201905081810360008301526122bd818461222e565b905092915050565b6122ce81611c35565b82525050565b60006020820190506122e960008301846122c5565b92915050565b6000819050919050565b600061231461230f61230a84611c15565b6122ef565b611c15565b9050919050565b6000612326826122f9565b9050919050565b60006123388261231b565b9050919050565b6123488161232d565b82525050565b6000602082019050612363600083018461233f565b92915050565b600080fd5b6000601f19601f8301169050919050565b7f4e487b7100000000000000000000000000000000000000000000000000000000600052604160045260246000fd5b6123b78261236e565b810181811067ffffffffffffffff821117156123d6576123d561237f565b5b80604052505050565b60006123e9611bcb565b90506123f582826123ae565b919050565b600067ffffffffffffffff8211156124155761241461237f565b5b602082029050602081019050919050565b600080fd5b600061243e612439846123fa565b6123df565b9050808382526020820190506020840283018581111561246157612460612426565b5b835b8181101561248a57806124768882611c00565b845260208401935050602081019050612463565b5050509392505050565b600082601f8301126124a9576124a8612369565b5b81356124b984826020860161242b565b91505092915050565b6000806000606084860312156124db576124da611bd5565b5b60006124e986828701611c00565b93505060206124fa86828701611c00565b925050604084013567ffffffffffffffff81111561251b5761251a611bda565b5b61252786828701612494565b9150509250925092565b60006040820190506125466000830185611cb3565b6125536020830184612083565b9392505050565b600082825260208201905092915050565b7f4572726f723a20496e76616c696420506f6c6c20737461746521000000000000600082015250565b60006125a1601a8361255a565b91506125ac8261256b565b602082019050919050565b600060208201905081810360008301526125d081612594565b9050919050565b7f4e487b7100000000000000000000000000000000000000000000000000000000600052601160045260246000fd5b600061261182611bdf565b915061261c83611bdf565b9250828201905080821115612634576126336125d7565b5b92915050565b7f506f6c6c20566f74696e6720697320656e640000000000000000000000000000600082015250565b600061267060128361255a565b915061267b8261263a565b602082019050919050565b6000602082019050818103600083015261269f81612663565b9050919050565b7f596f75206e6f74206368616e676520796f757220766f74650000000000000000600082015250565b60006126dc60188361255a565b91506126e7826126a6565b602082019050919050565b6000602082019050818103600083015261270b816126cf565b9050919050565b7f4e487b7100000000000000000000000000000000000000000000000000000000600052603260045260246000fd5b600061274c82611bdf565b91507fffffffffffffffffffffffffffffffffffffffffffffffffffffffffffffffff820361277e5761277d6125d7565b5b600182019050919050565b600061279482611ea4565b91507f800000000000000000000000000000000000000000000000000000000000000082036127c6576127c56125d7565b5b600182039050919050565b60006127dc82611ea4565b91507f7fffffffffffffffffffffffffffffffffffffffffffffffffffffffffffffff820361280e5761280d6125d7565b5b600182019050919050565b60008160001c9050919050565b6000819050919050565b600061284361283e83612819565b612826565b9050919050565b6000819050919050565b600061286761286283612819565b61284a565b9050919050565b600081549050919050565b60008190508160005260206000209050919050565b600073ffffffffffffffffffffffffffffffffffffffff82169050919050565b60006128c16128bc83612819565b61288e565b9050919050565b60006128d482546128ae565b9050919050565b6000600182019050919050565b60006128f38261286e565b6128fd8185611ec8565b935061290883612879565b8060005b838110156129405761291d826128c8565b6129278882611ef8565b9750612932836128db565b92505060018101905061290c565b5085935050505092915050565b600060608301600080840154905061296481612830565b6129716000870182611e95565b506001840154905061298281612854565b61298f6020870182611eae565b506002840185830360408701526129a683826128e8565b925050819250505092915050565b600060408201905081810360008301526129ce818561294d565b90506129dd6020830184611cb3565b9392505050565b7f4f6e6c792063616c6c206279205461736b4d616e616765720000000000000000600082015250565b6000612a1a60188361255a565b9150612a25826129e4565b602082019050919050565b60006020820190508181036000830152612a4981612a0d565b9050919050565b600082825260208201905092915050565b6000612a6c826120d9565b612a768185612a50565b9350612a81836120f5565b8060005b83811015612ab2578151612a998882612105565b9750612aa48361211d565b925050600181019050612a85565b5085935050505092915050565b60006080820190508181036000830152612ad98187612a61565b9050612ae86020830186611cb3565b612af56040830185611d72565b612b026060830184611cb3565b95945050505050565b6000606082019050612b206000830186611d72565b8181036020830152612b32818561294d565b9050612b416040830184611cb3565b949350505050565b7f546865726520617265206e6f20506f6c6c20566f74696e672063616e20656e6460008201527f20617420746865206d6f6d656e74000000000000000000000000000000000000602082015250565b6000612ba5602e8361255a565b9150612bb082612b49565b604082019050919050565b60006020820190508181036000830152612bd481612b98565b9050919050565b7f4f776e61626c653a206e6577206f776e657220697320746865207a65726f206160008201527f6464726573730000000000000000000000000000000000000000000000000000602082015250565b6000612c3760268361255a565b9150612c4282612bdb565b604082019050919050565b60006020820190508181036000830152612c6681612c2a565b9050919050565b7f4f776e61626c653a2063616c6c6572206973206e6f7420746865206f776e6572600082015250565b6000612ca360208361255a565b9150612cae82612c6d565b602082019050919050565b60006020820190508181036000830152612cd281612c96565b905091905056fea2646970667358221220c4c0b032e9267aeb515e035314c1a14f6f0c19ee7d6b65a821210b73b91afc5864736f6c63430008110033",
  "linkReferences": {},
  "deployedLinkReferences": {}
}