{
  "_format": "hh-sol-artifact-1",
  "contractName": "BatchTaskVoting",
  "sourceName": "contracts/BatchTaskVoting.sol",
  "abi": [
    {
      "anonymous": false,
      "inputs": [
        {
          "indexed": true,
          "internalType": "uint256",
          "name": "pollId",
          "type": "uint256"
        },
        {
          "indexed": false,
          "internalType": "enum IBatchTaskVoting.POLL_STATE",
          "name": "pollState",
          "type": "uint8"
        },
        {
          "components": [
            {
              "internalType": "uint256",
              "name": "batchTaskId",
              "type": "uint256"
            },
            {
              "internalType": "int256",
              "name": "result",
              "type": "int256"
            },
            {
              "internalType": "address[]",
              "name": "voters",
              "type": "address[]"
            }
          ],
          "indexed": false,
          "internalType": "struct IBatchTaskVoting.BatchTaskVoting",
          "name": "batchWinVote",
          "type": "tuple"
        },
        {
          "indexed": false,
          "internalType": "uint256",
          "name": "endTime",
          "type": "uint256"
        }
      ],
      "name": "EndVote",
      "type": "event"
    },
    {
      "anonymous": false,
      "inputs": [
        {
          "indexed": true,
          "internalType": "uint256",
          "name": "pollId",
          "type": "uint256"
        },
        {
          "indexed": false,
          "internalType": "enum IBatchTaskVoting.POLL_STATE",
          "name": "pollState",
          "type": "uint8"
        },
        {
          "components": [
            {
              "internalType": "uint256",
              "name": "batchTaskId",
              "type": "uint256"
            },
            {
              "internalType": "int256",
              "name": "result",
              "type": "int256"
            },
            {
              "internalType": "address[]",
              "name": "voters",
              "type": "address[]"
            }
          ],
          "indexed": false,
          "internalType": "struct IBatchTaskVoting.BatchTaskVoting",
          "name": "batchTaskAuction",
          "type": "tuple"
        },
        {
          "indexed": false,
          "internalType": "uint256",
          "name": "time",
          "type": "uint256"
        }
      ],
      "name": "InitBatchTaskAuction",
      "type": "event"
    },
    {
      "anonymous": false,
      "inputs": [
        {
          "indexed": false,
          "internalType": "string",
          "name": "notify",
          "type": "string"
        }
      ],
      "name": "Notify",
      "type": "event"
    },
    {
      "anonymous": false,
      "inputs": [
        {
          "indexed": true,
          "internalType": "uint256",
          "name": "_pollId",
          "type": "uint256"
        },
        {
          "indexed": false,
          "internalType": "uint256[]",
          "name": "_batchTaskID",
          "type": "uint256[]"
        },
        {
          "indexed": false,
          "internalType": "uint256",
          "name": "_voteDuration",
          "type": "uint256"
        },
        {
          "indexed": false,
          "internalType": "enum IBatchTaskVoting.POLL_STATE",
          "name": "_pollState",
          "type": "uint8"
        },
        {
          "indexed": false,
          "internalType": "uint256",
          "name": "timeStart",
          "type": "uint256"
        }
      ],
      "name": "OpenForVote",
      "type": "event"
    },
    {
      "anonymous": false,
      "inputs": [
        {
          "indexed": true,
          "internalType": "address",
          "name": "previousOwner",
          "type": "address"
        },
        {
          "indexed": true,
          "internalType": "address",
          "name": "newOwner",
          "type": "address"
        }
      ],
      "name": "OwnershipTransferred",
      "type": "event"
    },
    {
      "anonymous": false,
      "inputs": [
        {
          "indexed": true,
          "internalType": "uint256",
          "name": "_pollId",
          "type": "uint256"
        },
        {
          "components": [
            {
              "internalType": "uint256",
              "name": "batchTaskId",
              "type": "uint256"
            },
            {
              "internalType": "int256",
              "name": "result",
              "type": "int256"
            },
            {
              "internalType": "address[]",
              "name": "voters",
              "type": "address[]"
            }
          ],
          "indexed": false,
          "internalType": "struct IBatchTaskVoting.BatchTaskVoting",
          "name": "batchTaskVoted",
          "type": "tuple"
        },
        {
          "indexed": false,
          "internalType": "uint256",
          "name": "voteTime",
          "type": "uint256"
        },
        {
          "indexed": true,
          "internalType": "address",
          "name": "voter",
          "type": "address"
        }
      ],
      "name": "VoteOnBatchTask",
      "type": "event"
    },
    {
      "inputs": [
        {
          "internalType": "uint256",
          "name": "",
          "type": "uint256"
        }
      ],
      "name": "batchTaskIdToBatchTaskVoting",
      "outputs": [
        {
          "internalType": "uint256",
          "name": "batchTaskId",
          "type": "uint256"
        },
        {
          "internalType": "int256",
          "name": "result",
          "type": "int256"
        }
      ],
      "stateMutability": "view",
      "type": "function"
    },
    {
      "inputs": [
        {
          "internalType": "uint256",
          "name": "",
          "type": "uint256"
        },
        {
          "internalType": "uint256",
          "name": "",
          "type": "uint256"
        }
      ],
      "name": "batchTaskIdToPollIdToPreviousResult",
      "outputs": [
        {
          "internalType": "int256",
          "name": "",
          "type": "int256"
        }
      ],
      "stateMutability": "view",
      "type": "function"
    },
    {
      "inputs": [
        {
          "internalType": "uint256",
          "name": "",
          "type": "uint256"
        }
      ],
      "name": "batchTasks",
      "outputs": [
        {
          "internalType": "uint256",
          "name": "batchTaskId",
          "type": "uint256"
        },
        {
          "internalType": "int256",
          "name": "result",
          "type": "int256"
        }
      ],
      "stateMutability": "view",
      "type": "function"
    },
    {
      "inputs": [],
      "name": "endVote",
      "outputs": [],
      "stateMutability": "nonpayable",
      "type": "function"
    },
    {
      "inputs": [
        {
          "internalType": "uint256",
          "name": "_pollID",
          "type": "uint256"
        }
      ],
      "name": "getAllBatchTaskVoting",
      "outputs": [
        {
          "components": [
            {
              "internalType": "uint256",
              "name": "batchTaskId",
              "type": "uint256"
            },
            {
              "internalType": "int256",
              "name": "result",
              "type": "int256"
            },
            {
              "internalType": "address[]",
              "name": "voters",
              "type": "address[]"
            }
          ],
          "internalType": "struct IBatchTaskVoting.BatchTaskVoting[]",
          "name": "",
          "type": "tuple[]"
        }
      ],
      "stateMutability": "view",
      "type": "function"
    },
    {
      "inputs": [],
      "name": "getAllPollVoting",
      "outputs": [
        {
          "components": [
            {
              "internalType": "uint256",
              "name": "pollId",
              "type": "uint256"
            },
            {
              "internalType": "uint256",
              "name": "voteDuration",
              "type": "uint256"
            },
            {
              "internalType": "uint256",
              "name": "startTime",
              "type": "uint256"
            },
            {
              "internalType": "uint256[]",
              "name": "batchTaskIds",
              "type": "uint256[]"
            },
            {
              "internalType": "enum IBatchTaskVoting.POLL_STATE",
              "name": "pollState",
              "type": "uint8"
            }
          ],
          "internalType": "struct IBatchTaskVoting.PollVoting[]",
          "name": "",
          "type": "tuple[]"
        }
      ],
      "stateMutability": "view",
      "type": "function"
    },
    {
      "inputs": [
        {
          "internalType": "uint256",
          "name": "_pollId",
          "type": "uint256"
        },
        {
          "internalType": "uint256",
          "name": "_voteDuration",
          "type": "uint256"
        },
        {
          "internalType": "uint256[]",
          "name": "_batchTaskids",
          "type": "uint256[]"
        }
      ],
      "name": "openPollForVote",
      "outputs": [],
      "stateMutability": "nonpayable",
      "type": "function"
    },
    {
      "inputs": [],
      "name": "owner",
      "outputs": [
        {
          "internalType": "address",
          "name": "",
          "type": "address"
        }
      ],
      "stateMutability": "view",
      "type": "function"
    },
    {
      "inputs": [
        {
          "internalType": "uint256",
          "name": "",
          "type": "uint256"
        }
      ],
      "name": "pollIdToPoll",
      "outputs": [
        {
          "internalType": "uint256",
          "name": "pollId",
          "type": "uint256"
        },
        {
          "internalType": "uint256",
          "name": "voteDuration",
          "type": "uint256"
        },
        {
          "internalType": "uint256",
          "name": "startTime",
          "type": "uint256"
        },
        {
          "internalType": "enum IBatchTaskVoting.POLL_STATE",
          "name": "pollState",
          "type": "uint8"
        }
      ],
      "stateMutability": "view",
      "type": "function"
    },
    {
      "inputs": [
        {
          "internalType": "uint256",
          "name": "",
          "type": "uint256"
        },
        {
          "internalType": "address",
          "name": "",
          "type": "address"
        }
      ],
      "name": "pollIdToVoterToPreviousVote",
      "outputs": [
        {
          "internalType": "uint256",
          "name": "",
          "type": "uint256"
        }
      ],
      "stateMutability": "view",
      "type": "function"
    },
    {
      "inputs": [
        {
          "internalType": "uint256",
          "name": "",
          "type": "uint256"
        },
        {
          "internalType": "address",
          "name": "",
          "type": "address"
        }
      ],
      "name": "pollIdToVoterToVoted",
      "outputs": [
        {
          "internalType": "bool",
          "name": "",
          "type": "bool"
        }
      ],
      "stateMutability": "view",
      "type": "function"
    },
    {
      "inputs": [
        {
          "internalType": "uint256",
          "name": "",
          "type": "uint256"
        }
      ],
      "name": "pollVotings",
      "outputs": [
        {
          "internalType": "uint256",
          "name": "pollId",
          "type": "uint256"
        },
        {
          "internalType": "uint256",
          "name": "voteDuration",
          "type": "uint256"
        },
        {
          "internalType": "uint256",
          "name": "startTime",
          "type": "uint256"
        },
        {
          "internalType": "enum IBatchTaskVoting.POLL_STATE",
          "name": "pollState",
          "type": "uint8"
        }
      ],
      "stateMutability": "view",
      "type": "function"
    },
    {
      "inputs": [],
      "name": "renounceOwnership",
      "outputs": [],
      "stateMutability": "nonpayable",
      "type": "function"
    },
    {
      "inputs": [
        {
          "internalType": "address",
          "name": "_taskManagerAddress",
          "type": "address"
        }
      ],
      "name": "setTaskManager",
      "outputs": [],
      "stateMutability": "nonpayable",
      "type": "function"
    },
    {
      "inputs": [],
      "name": "taskManager",
      "outputs": [
        {
          "internalType": "contract ITaskManager",
          "name": "",
          "type": "address"
        }
      ],
      "stateMutability": "view",
      "type": "function"
    },
    {
      "inputs": [
        {
          "internalType": "address",
          "name": "newOwner",
          "type": "address"
        }
      ],
      "name": "transferOwnership",
      "outputs": [],
      "stateMutability": "nonpayable",
      "type": "function"
    },
    {
      "inputs": [
        {
          "internalType": "uint256",
          "name": "_batchTaskID",
          "type": "uint256"
        },
        {
          "internalType": "uint256",
          "name": "_pollId",
          "type": "uint256"
        }
      ],
      "name": "voteOnBatchTask",
      "outputs": [],
      "stateMutability": "nonpayable",
      "type": "function"
    }
  ],
  "bytecode": "0x60806040523480156200001157600080fd5b5062000032620000266200003860201b60201c565b6200004060201b60201c565b62000104565b600033905090565b60008060009054906101000a900473ffffffffffffffffffffffffffffffffffffffff169050816000806101000a81548173ffffffffffffffffffffffffffffffffffffffff021916908373ffffffffffffffffffffffffffffffffffffffff1602179055508173ffffffffffffffffffffffffffffffffffffffff168173ffffffffffffffffffffffffffffffffffffffff167f8be0079c531659141344cd1fd0a4f28419497f9722a3daafe3b4186f6b6457e060405160405180910390a35050565b612ca880620001146000396000f3fe608060405234801561001057600080fd5b506004361061010b5760003560e01c80636d46cb60116100a2578063b1ed87de11610071578063b1ed87de146102d2578063b9223946146102ee578063e73fe55f146102f8578063f2fde38b14610329578063f535d117146103455761010b565b80636d46cb601461026e578063715018a61461028c5780638da5cb5b14610296578063a50a640e146102b45761010b565b8063275bc4d5116100de578063275bc4d5146101d6578063327d0a60146101f257806341471b731461020e5780636b17e95d1461023e5761010b565b80631740ddc5146101105780631f6ec3301461014057806323f19353146101735780632425795a146101a3575b600080fd5b61012a60048036038101906101259190611c0c565b610376565b6040516101379190611c5b565b60405180910390f35b61015a60048036038101906101559190611c76565b61039b565b60405161016a9493929190611d1a565b60405180910390f35b61018d60048036038101906101889190611c0c565b6103e8565b60405161019a9190611d7a565b60405180910390f35b6101bd60048036038101906101b89190611c76565b610417565b6040516101cd9493929190611d1a565b60405180910390f35b6101f060048036038101906101eb9190611d95565b610454565b005b61020c60048036038101906102079190611dd5565b610b79565b005b61022860048036038101906102239190611c76565b610bc5565b6040516102359190611ffa565b60405180910390f35b61025860048036038101906102539190611d95565b610d89565b604051610265919061202b565b60405180910390f35b610276610dae565b604051610283919061223c565b60405180910390f35b610294610f31565b005b61029e610f45565b6040516102ab919061226d565b60405180910390f35b6102bc610f6e565b6040516102c991906122e7565b60405180910390f35b6102ec60048036038101906102e7919061245b565b610f94565b005b6102f66112e1565b005b610312600480360381019061030d9190611c76565b6117e9565b6040516103209291906124ca565b60405180910390f35b610343600480360381019061033e9190611dd5565b61180d565b005b61035f600480360381019061035a9190611c76565b611890565b60405161036d9291906124ca565b60405180910390f35b6006602052816000526040600020602052806000526040600020600091509150505481565b600481815481106103ab57600080fd5b90600052602060002090600502016000915090508060000154908060010154908060020154908060040160009054906101000a900460ff16905084565b60056020528160005260406000206020528060005260406000206000915091509054906101000a900460ff1681565b60036020528060005260406000206000915090508060000154908060010154908060020154908060040160009054906101000a900460ff16905084565b60008181600181111561046a57610469611ca3565b5b6003600083815260200190815260200160002060040160009054906101000a900460ff1660018111156104a05761049f611ca3565b5b146104e0576040517f08c379a00000000000000000000000000000000000000000000000000000000081526004016104d790612550565b60405180910390fd5b6003600084815260200190815260200160002060020154421015801561053d575060036000848152602001908152602001600020600101546003600085815260200190815260200160002060020154610539919061259f565b4211155b61057c576040517f08c379a00000000000000000000000000000000000000000000000000000000081526004016105739061261f565b60405180910390fd5b600115156005600085815260200190815260200160002060003373ffffffffffffffffffffffffffffffffffffffff1673ffffffffffffffffffffffffffffffffffffffff16815260200190815260200160002060009054906101000a900460ff1615150361075357836006600085815260200190815260200160002060003373ffffffffffffffffffffffffffffffffffffffff1673ffffffffffffffffffffffffffffffffffffffff1681526020019081526020016000205403610677576040517f08c379a000000000000000000000000000000000000000000000000000000000815260040161066e9061268b565b60405180910390fd5b60005b600360008581526020019081526020016000206003018054905081101561075157600760006003600087815260200190815260200160002060030183815481106106c7576106c66126ab565b5b906000526020600020015481526020019081526020016000206000858152602001908152602001600020546002600060036000888152602001908152602001600020600301848154811061071e5761071d6126ab565b5b90600052602060002001548152602001908152602001600020600101819055508080610749906126da565b91505061067a565b505b60005b6003600085815260200190815260200160002060030180549050811015610a5157600115156005600086815260200190815260200160002060003373ffffffffffffffffffffffffffffffffffffffff1673ffffffffffffffffffffffffffffffffffffffff16815260200190815260200160002060009054906101000a900460ff1615151461088a576002600060036000878152602001908152602001600020600301838154811061080c5761080b6126ab565b5b90600052602060002001548152602001908152602001600020600201339080600181540180825580915050600190039060005260206000200160009091909190916101000a81548173ffffffffffffffffffffffffffffffffffffffff021916908373ffffffffffffffffffffffffffffffffffffffff1602179055505b600260006003600087815260200190815260200160002060030183815481106108b6576108b56126ab565b5b9060005260206000200154815260200190815260200160002060010154600760006003600088815260200190815260200160002060030184815481106108ff576108fe6126ab565b5b90600052602060002001548152602001908152602001600020600086815260200190815260200160002081905550846002600060036000888152602001908152602001600020600301848154811061095a576109596126ab565b5b9060005260206000200154815260200190815260200160002060000154146109df57600260006003600087815260200190815260200160002060030183815481106109a8576109a76126ab565b5b9060005260206000200154815260200190815260200160002060010160008154809291906109d590612722565b9190505550610a3e565b60026000600360008781526020019081526020016000206003018381548110610a0b57610a0a6126ab565b5b906000526020600020015481526020019081526020016000206001016000815480929190610a389061276a565b91905055505b8080610a49906126da565b915050610756565b50836006600085815260200190815260200160002060003373ffffffffffffffffffffffffffffffffffffffff1673ffffffffffffffffffffffffffffffffffffffff1681526020019081526020016000208190555060016005600085815260200190815260200160002060003373ffffffffffffffffffffffffffffffffffffffff1673ffffffffffffffffffffffffffffffffffffffff16815260200190815260200160002060006101000a81548160ff0219169083151502179055503373ffffffffffffffffffffffffffffffffffffffff16837f49f98a7d68598cd2de4b010e59aded7d10cfd25fdf2b5349b44245f4e1f8212b6002600088815260200190815260200160002042604051610b6b92919061294d565b60405180910390a350505050565b610b816118c4565b80600160006101000a81548173ffffffffffffffffffffffffffffffffffffffff021916908373ffffffffffffffffffffffffffffffffffffffff16021790555050565b60606000600360008481526020019081526020016000206003018054905067ffffffffffffffff811115610bfc57610bfb612318565b5b604051908082528060200260200182016040528015610c3557816020015b610c22611a0e565b815260200190600190039081610c1a5790505b50905060005b6003600085815260200190815260200160002060030180549050811015610d7f5760026000600360008781526020019081526020016000206003018381548110610c8857610c876126ab565b5b90600052602060002001548152602001908152602001600020604051806060016040529081600082015481526020016001820154815260200160028201805480602002602001604051908101604052809291908181526020018280548015610d4557602002820191906000526020600020905b8160009054906101000a900473ffffffffffffffffffffffffffffffffffffffff1673ffffffffffffffffffffffffffffffffffffffff1681526020019060010190808311610cfb575b505050505081525050828281518110610d6157610d606126ab565b5b60200260200101819052508080610d77906126da565b915050610c3b565b5080915050919050565b6007602052816000526040600020602052806000526040600020600091509150505481565b6060600060048054905067ffffffffffffffff811115610dd157610dd0612318565b5b604051908082528060200260200182016040528015610e0a57816020015b610df7611a2f565b815260200190600190039081610def5790505b50905060005b600480549050811015610f295760036000600183610e2e919061259f565b81526020019081526020016000206040518060a001604052908160008201548152602001600182015481526020016002820154815260200160038201805480602002602001604051908101604052809291908181526020018280548015610eb457602002820191906000526020600020905b815481526020019060010190808311610ea0575b505050505081526020016004820160009054906101000a900460ff166001811115610ee257610ee1611ca3565b5b6001811115610ef457610ef3611ca3565b5b81525050828281518110610f0b57610f0a6126ab565b5b60200260200101819052508080610f21906126da565b915050610e10565b508091505090565b610f396118c4565b610f436000611942565b565b60008060009054906101000a900473ffffffffffffffffffffffffffffffffffffffff16905090565b600160009054906101000a900473ffffffffffffffffffffffffffffffffffffffff1681565b600160009054906101000a900473ffffffffffffffffffffffffffffffffffffffff1673ffffffffffffffffffffffffffffffffffffffff163373ffffffffffffffffffffffffffffffffffffffff1614611024576040517f08c379a000000000000000000000000000000000000000000000000000000000815260040161101b906129c9565b60405180910390fd5b60006040518060a001604052808581526020018481526020014281526020018381526020016000600181111561105d5761105c611ca3565b5b8152509050806003600086815260200190815260200160002060008201518160000155602082015181600101556040820151816002015560608201518160030190805190602001906110b0929190611a70565b5060808201518160040160006101000a81548160ff021916908360018111156110dc576110db611ca3565b5b02179055509050506004819080600181540180825580915050600190039060005260206000209060050201600090919091909150600082015181600001556020820151816001015560408201518160020155606082015181600301908051906020019061114a929190611a70565b5060808201518160040160006101000a81548160ff0219169083600181111561117657611175611ca3565b5b0217905550505060005b825181101561129b576060600060405180606001604052808685815181106111ab576111aa6126ab565b5b602002602001015181526020016000815260200183815250905080600260008786815181106111dd576111dc6126ab565b5b6020026020010151815260200190815260200160002060008201518160000155602082015181600101556040820151816002019080519060200190611223929190611abd565b50905050600881908060018154018082558091505060019003906000526020600020906003020160009091909190915060008201518160000155602082015181600101556040820151816002019080519060200190611283929190611abd565b50505050508080611293906126da565b915050611180565b50837f6c62f7c0f3ac1a374f10a7d65e19e1d4596d55c0cc7e48246cd15f470af0350d83856000426040516112d39493929190612a58565b60405180910390a250505050565b6000805b6004805490508110156117a3576000600181111561130657611305611ca3565b5b6004828154811061131a576113196126ab565b5b906000526020600020906005020160040160009054906101000a900460ff16600181111561134b5761134a611ca3565b5b1480156113ac57504260048281548110611368576113676126ab565b5b9060005260206000209060050201600101546004838154811061138e5761138d6126ab565b5b9060005260206000209060050201600201546113aa919061259f565b105b1561179057600191506001600482815481106113cb576113ca6126ab565b5b906000526020600020906005020160040160006101000a81548160ff021916908360018111156113fe576113fd611ca3565b5b02179055506000600260006004848154811061141d5761141c6126ab565b5b9060005260206000209060050201600301600081548110611441576114406126ab565b5b9060005260206000200154815260200190815260200160002060010154905060005b60048381548110611477576114766126ab565b5b906000526020600020906005020160030180549050811015611560578160026000600486815481106114ac576114ab6126ab565b5b906000526020600020906005020160030184815481106114cf576114ce6126ab565b5b9060005260206000200154815260200190815260200160002060010154131561154d57600260006004858154811061150a576115096126ab565b5b9060005260206000209060050201600301838154811061152d5761152c6126ab565b5b906000526020600020015481526020019081526020016000206001015491505b8080611558906126da565b915050611463565b5060005b60048381548110611578576115776126ab565b5b90600052602060002090600502016003018054905081101561178d5760026000600485815481106115ac576115ab6126ab565b5b906000526020600020906005020160030183815481106115cf576115ce6126ab565b5b9060005260206000200154815260200190815260200160002060010154820361177a57600160009054906101000a900473ffffffffffffffffffffffffffffffffffffffff1673ffffffffffffffffffffffffffffffffffffffff16639acea8d360048581548110611644576116436126ab565b5b90600052602060002090600502016003018381548110611667576116666126ab565b5b90600052602060002001546040518263ffffffff1660e01b815260040161168e9190611c5b565b600060405180830381600087803b1580156116a857600080fd5b505af11580156116bc573d6000803e3d6000fd5b50505050600483815481106116d4576116d36126ab565b5b9060005260206000209060050201600001547f0ce46fbe3f4a92ed2e6f797d6955c1e8e72b707917a2e71c9b469f11da672f8a60016002600060048881548110611721576117206126ab565b5b90600052602060002090600502016003018681548110611744576117436126ab565b5b906000526020600020015481526020019081526020016000204260405161176d93929190612aa4565b60405180910390a261178d565b8080611785906126da565b915050611564565b50505b808061179b906126da565b9150506112e5565b5060001515811515036117e6577f740029a372cf63fe0e8d59421d39ff2e39506263bf68a6d46f4ade0771a090126040516117dd90612b54565b60405180910390a15b50565b60026020528060005260406000206000915090508060000154908060010154905082565b6118156118c4565b600073ffffffffffffffffffffffffffffffffffffffff168173ffffffffffffffffffffffffffffffffffffffff1603611884576040517f08c379a000000000000000000000000000000000000000000000000000000000815260040161187b90612be6565b60405180910390fd5b61188d81611942565b50565b600881815481106118a057600080fd5b90600052602060002090600302016000915090508060000154908060010154905082565b6118cc611a06565b73ffffffffffffffffffffffffffffffffffffffff166118ea610f45565b73ffffffffffffffffffffffffffffffffffffffff1614611940576040517f08c379a000000000000000000000000000000000000000000000000000000000815260040161193790612c52565b60405180910390fd5b565b60008060009054906101000a900473ffffffffffffffffffffffffffffffffffffffff169050816000806101000a81548173ffffffffffffffffffffffffffffffffffffffff021916908373ffffffffffffffffffffffffffffffffffffffff1602179055508173ffffffffffffffffffffffffffffffffffffffff168173ffffffffffffffffffffffffffffffffffffffff167f8be0079c531659141344cd1fd0a4f28419497f9722a3daafe3b4186f6b6457e060405160405180910390a35050565b600033905090565b60405180606001604052806000815260200160008152602001606081525090565b6040518060a001604052806000815260200160008152602001600081526020016060815260200160006001811115611a6a57611a69611ca3565b5b81525090565b828054828255906000526020600020908101928215611aac579160200282015b82811115611aab578251825591602001919060010190611a90565b5b509050611ab99190611b47565b5090565b828054828255906000526020600020908101928215611b36579160200282015b82811115611b355782518260006101000a81548173ffffffffffffffffffffffffffffffffffffffff021916908373ffffffffffffffffffffffffffffffffffffffff16021790555091602001919060010190611add565b5b509050611b439190611b47565b5090565b5b80821115611b60576000816000905550600101611b48565b5090565b6000604051905090565b600080fd5b600080fd5b6000819050919050565b611b8b81611b78565b8114611b9657600080fd5b50565b600081359050611ba881611b82565b92915050565b600073ffffffffffffffffffffffffffffffffffffffff82169050919050565b6000611bd982611bae565b9050919050565b611be981611bce565b8114611bf457600080fd5b50565b600081359050611c0681611be0565b92915050565b60008060408385031215611c2357611c22611b6e565b5b6000611c3185828601611b99565b9250506020611c4285828601611bf7565b9150509250929050565b611c5581611b78565b82525050565b6000602082019050611c706000830184611c4c565b92915050565b600060208284031215611c8c57611c8b611b6e565b5b6000611c9a84828501611b99565b91505092915050565b7f4e487b7100000000000000000000000000000000000000000000000000000000600052602160045260246000fd5b60028110611ce357611ce2611ca3565b5b50565b6000819050611cf482611cd2565b919050565b6000611d0482611ce6565b9050919050565b611d1481611cf9565b82525050565b6000608082019050611d2f6000830187611c4c565b611d3c6020830186611c4c565b611d496040830185611c4c565b611d566060830184611d0b565b95945050505050565b60008115159050919050565b611d7481611d5f565b82525050565b6000602082019050611d8f6000830184611d6b565b92915050565b60008060408385031215611dac57611dab611b6e565b5b6000611dba85828601611b99565b9250506020611dcb85828601611b99565b9150509250929050565b600060208284031215611deb57611dea611b6e565b5b6000611df984828501611bf7565b91505092915050565b600081519050919050565b600082825260208201905092915050565b6000819050602082019050919050565b611e3781611b78565b82525050565b6000819050919050565b611e5081611e3d565b82525050565b600081519050919050565b600082825260208201905092915050565b6000819050602082019050919050565b611e8b81611bce565b82525050565b6000611e9d8383611e82565b60208301905092915050565b6000602082019050919050565b6000611ec182611e56565b611ecb8185611e61565b9350611ed683611e72565b8060005b83811015611f07578151611eee8882611e91565b9750611ef983611ea9565b925050600181019050611eda565b5085935050505092915050565b6000606083016000830151611f2c6000860182611e2e565b506020830151611f3f6020860182611e47565b5060408301518482036040860152611f578282611eb6565b9150508091505092915050565b6000611f708383611f14565b905092915050565b6000602082019050919050565b6000611f9082611e02565b611f9a8185611e0d565b935083602082028501611fac85611e1e565b8060005b85811015611fe85784840389528151611fc98582611f64565b9450611fd483611f78565b925060208a01995050600181019050611fb0565b50829750879550505050505092915050565b600060208201905081810360008301526120148184611f85565b905092915050565b61202581611e3d565b82525050565b6000602082019050612040600083018461201c565b92915050565b600081519050919050565b600082825260208201905092915050565b6000819050602082019050919050565b600081519050919050565b600082825260208201905092915050565b6000819050602082019050919050565b60006120aa8383611e2e565b60208301905092915050565b6000602082019050919050565b60006120ce82612072565b6120d8818561207d565b93506120e38361208e565b8060005b838110156121145781516120fb888261209e565b9750612106836120b6565b9250506001810190506120e7565b5085935050505092915050565b61212a81611cf9565b82525050565b600060a0830160008301516121486000860182611e2e565b50602083015161215b6020860182611e2e565b50604083015161216e6040860182611e2e565b506060830151848203606086015261218682826120c3565b915050608083015161219b6080860182612121565b508091505092915050565b60006121b28383612130565b905092915050565b6000602082019050919050565b60006121d282612046565b6121dc8185612051565b9350836020820285016121ee85612062565b8060005b8581101561222a578484038952815161220b85826121a6565b9450612216836121ba565b925060208a019950506001810190506121f2565b50829750879550505050505092915050565b6000602082019050818103600083015261225681846121c7565b905092915050565b61226781611bce565b82525050565b6000602082019050612282600083018461225e565b92915050565b6000819050919050565b60006122ad6122a86122a384611bae565b612288565b611bae565b9050919050565b60006122bf82612292565b9050919050565b60006122d1826122b4565b9050919050565b6122e1816122c6565b82525050565b60006020820190506122fc60008301846122d8565b92915050565b600080fd5b6000601f19601f8301169050919050565b7f4e487b7100000000000000000000000000000000000000000000000000000000600052604160045260246000fd5b61235082612307565b810181811067ffffffffffffffff8211171561236f5761236e612318565b5b80604052505050565b6000612382611b64565b905061238e8282612347565b919050565b600067ffffffffffffffff8211156123ae576123ad612318565b5b602082029050602081019050919050565b600080fd5b60006123d76123d284612393565b612378565b905080838252602082019050602084028301858111156123fa576123f96123bf565b5b835b81811015612423578061240f8882611b99565b8452602084019350506020810190506123fc565b5050509392505050565b600082601f83011261244257612441612302565b5b81356124528482602086016123c4565b91505092915050565b60008060006060848603121561247457612473611b6e565b5b600061248286828701611b99565b935050602061249386828701611b99565b925050604084013567ffffffffffffffff8111156124b4576124b3611b73565b5b6124c08682870161242d565b9150509250925092565b60006040820190506124df6000830185611c4c565b6124ec602083018461201c565b9392505050565b600082825260208201905092915050565b7f4572726f723a20496e76616c696420506f6c6c20737461746521000000000000600082015250565b600061253a601a836124f3565b915061254582612504565b602082019050919050565b600060208201905081810360008301526125698161252d565b9050919050565b7f4e487b7100000000000000000000000000000000000000000000000000000000600052601160045260246000fd5b60006125aa82611b78565b91506125b583611b78565b92508282019050808211156125cd576125cc612570565b5b92915050565b7f506f6c6c20566f74696e6720697320656e640000000000000000000000000000600082015250565b60006126096012836124f3565b9150612614826125d3565b602082019050919050565b60006020820190508181036000830152612638816125fc565b9050919050565b7f596f75206e6f74206368616e676520796f757220766f74650000000000000000600082015250565b60006126756018836124f3565b91506126808261263f565b602082019050919050565b600060208201905081810360008301526126a481612668565b9050919050565b7f4e487b7100000000000000000000000000000000000000000000000000000000600052603260045260246000fd5b60006126e582611b78565b91507fffffffffffffffffffffffffffffffffffffffffffffffffffffffffffffffff820361271757612716612570565b5b600182019050919050565b600061272d82611e3d565b91507f8000000000000000000000000000000000000000000000000000000000000000820361275f5761275e612570565b5b600182039050919050565b600061277582611e3d565b91507f7fffffffffffffffffffffffffffffffffffffffffffffffffffffffffffffff82036127a7576127a6612570565b5b600182019050919050565b60008160001c9050919050565b6000819050919050565b60006127dc6127d7836127b2565b6127bf565b9050919050565b6000819050919050565b60006128006127fb836127b2565b6127e3565b9050919050565b600081549050919050565b60008190508160005260206000209050919050565b600073ffffffffffffffffffffffffffffffffffffffff82169050919050565b600061285a612855836127b2565b612827565b9050919050565b600061286d8254612847565b9050919050565b6000600182019050919050565b600061288c82612807565b6128968185611e61565b93506128a183612812565b8060005b838110156128d9576128b682612861565b6128c08882611e91565b97506128cb83612874565b9250506001810190506128a5565b5085935050505092915050565b60006060830160008084015490506128fd816127c9565b61290a6000870182611e2e565b506001840154905061291b816127ed565b6129286020870182611e47565b5060028401858303604087015261293f8382612881565b925050819250505092915050565b6000604082019050818103600083015261296781856128e6565b90506129766020830184611c4c565b9392505050565b7f4f6e6c792063616c6c206279205461736b4d616e616765720000000000000000600082015250565b60006129b36018836124f3565b91506129be8261297d565b602082019050919050565b600060208201905081810360008301526129e2816129a6565b9050919050565b600082825260208201905092915050565b6000612a0582612072565b612a0f81856129e9565b9350612a1a8361208e565b8060005b83811015612a4b578151612a32888261209e565b9750612a3d836120b6565b925050600181019050612a1e565b5085935050505092915050565b60006080820190508181036000830152612a7281876129fa565b9050612a816020830186611c4c565b612a8e6040830185611d0b565b612a9b6060830184611c4c565b95945050505050565b6000606082019050612ab96000830186611d0b565b8181036020830152612acb81856128e6565b9050612ada6040830184611c4c565b949350505050565b7f546865726520617265206e6f20506f6c6c20566f74696e672063616e20656e6460008201527f20617420746865206d6f6d656e74000000000000000000000000000000000000602082015250565b6000612b3e602e836124f3565b9150612b4982612ae2565b604082019050919050565b60006020820190508181036000830152612b6d81612b31565b9050919050565b7f4f776e61626c653a206e6577206f776e657220697320746865207a65726f206160008201527f6464726573730000000000000000000000000000000000000000000000000000602082015250565b6000612bd06026836124f3565b9150612bdb82612b74565b604082019050919050565b60006020820190508181036000830152612bff81612bc3565b9050919050565b7f4f776e61626c653a2063616c6c6572206973206e6f7420746865206f776e6572600082015250565b6000612c3c6020836124f3565b9150612c4782612c06565b602082019050919050565b60006020820190508181036000830152612c6b81612c2f565b905091905056fea26469706673582212203569867fbf104130613b7ac7615f4c471f5140ab0d1865db88e720c281b2e87964736f6c63430008110033",
  "linkReferences": {},
  "deployedLinkReferences": {}
}