{
  "_format": "hh-sol-artifact-1",
  "contractName": "CreditScore",
  "sourceName": "contracts/CreditScore.sol",
  "abi": [
    {
      "anonymous": false,
      "inputs": [
        {
          "indexed": true,
          "internalType": "address",
          "name": "user",
          "type": "address"
        },
        {
          "indexed": false,
          "internalType": "uint256",
          "name": "value",
          "type": "uint256"
        }
      ],
      "name": "CalculateCommitmentToken",
      "type": "event"
    },
    {
      "anonymous": false,
      "inputs": [
        {
          "indexed": false,
          "internalType": "uint256",
          "name": "taskId",
          "type": "uint256"
        },
        {
          "indexed": true,
          "internalType": "address",
          "name": "doer",
          "type": "address"
        },
        {
          "indexed": false,
          "internalType": "uint256",
          "name": "percentageDone",
          "type": "uint256"
        },
        {
          "indexed": false,
          "internalType": "uint256",
          "name": "timeSave",
          "type": "uint256"
        }
      ],
      "name": "SaveTaskDone",
      "type": "event"
    },
    {
      "inputs": [
        {
          "internalType": "address",
          "name": "_user",
          "type": "address"
        }
      ],
      "name": "calculateCommitmentToken",
      "outputs": [
        {
          "internalType": "uint256",
          "name": "",
          "type": "uint256"
        }
      ],
      "stateMutability": "nonpayable",
      "type": "function"
    },
    {
      "inputs": [
        {
          "internalType": "uint256",
          "name": "_taskId",
          "type": "uint256"
        },
        {
          "internalType": "address",
          "name": "_doer",
          "type": "address"
        },
        {
          "internalType": "uint256",
          "name": "_percentageDone",
          "type": "uint256"
        }
      ],
      "name": "saveTaskDone",
      "outputs": [],
      "stateMutability": "nonpayable",
      "type": "function"
    },
    {
      "inputs": [
        {
          "internalType": "uint256",
          "name": "",
          "type": "uint256"
        }
      ],
      "name": "taskDoneIdTaskDone",
      "outputs": [
        {
          "internalType": "uint256",
          "name": "taskId",
          "type": "uint256"
        },
        {
          "internalType": "uint256",
          "name": "percentageDone",
          "type": "uint256"
        }
      ],
      "stateMutability": "view",
      "type": "function"
    },
    {
      "inputs": [
        {
          "internalType": "address",
          "name": "",
          "type": "address"
        }
      ],
      "name": "userAddressToUser",
      "outputs": [
        {
          "internalType": "address",
          "name": "userAddress",
          "type": "address"
        },
        {
          "internalType": "uint256",
          "name": "score",
          "type": "uint256"
        }
      ],
      "stateMutability": "view",
      "type": "function"
    }
  ],
  "bytecode": "0x608060405234801561001057600080fd5b50610cdb806100206000396000f3fe608060405234801561001057600080fd5b506004361061004c5760003560e01c806325dba0431461005157806358730746146100825780635ebf340e1461009e578063c1324de1146100ce575b600080fd5b61006b600480360381019061006691906109a1565b6100ff565b6040516100799291906109dd565b60405180910390f35b61009c60048036038101906100979190610a64565b610123565b005b6100b860048036038101906100b39190610ab7565b610411565b6040516100c59190610ae4565b60405180910390f35b6100e860048036038101906100e39190610ab7565b610491565b6040516100f6929190610b0e565b60405180910390f35b60026020528060005260406000206000915090508060000154908060010154905082565b600073ffffffffffffffffffffffffffffffffffffffff16600160008473ffffffffffffffffffffffffffffffffffffffff1673ffffffffffffffffffffffffffffffffffffffff16815260200190815260200160002060000160009054906101000a900473ffffffffffffffffffffffffffffffffffffffff1673ffffffffffffffffffffffffffffffffffffffff1603610350576101c16108c5565b600061271067ffffffffffffffff8111156101df576101de610b37565b5b60405190808252806020026020018201604052801561020d5781602001602082028036833780820191505090505b509050848160008151811061022557610224610b66565b5b60200260200101818152505083826000019073ffffffffffffffffffffffffffffffffffffffff16908173ffffffffffffffffffffffffffffffffffffffff1681525050603282602001818152505080826040018190525082600260008781526020019081526020016000206001018190555081600160008673ffffffffffffffffffffffffffffffffffffffff1673ffffffffffffffffffffffffffffffffffffffff16815260200190815260200160002060008201518160000160006101000a81548173ffffffffffffffffffffffffffffffffffffffff021916908373ffffffffffffffffffffffffffffffffffffffff1602179055506020820151816001015560408201518160020190805190602001906103459291906108fc565b5090505050506103ba565b600160008373ffffffffffffffffffffffffffffffffffffffff1673ffffffffffffffffffffffffffffffffffffffff1681526020019081526020016000206002018390806001815401808255809150506001900390600052602060002001600090919091909150555b8173ffffffffffffffffffffffffffffffffffffffff167f33b565b4e28a378e902db4f8f551a8041d5f4cb011e20f4b84401895de53174d84834260405161040493929190610b95565b60405180910390a2505050565b60008061041d836104d5565b9050600060028261042e9190610bfb565b905061043981610803565b8373ffffffffffffffffffffffffffffffffffffffff167fa8e2b1507ec955c440d33b79084a37358e1d6f7adf6938098cff6268ee257c988260405161047f9190610ae4565b60405180910390a28092505050919050565b60016020528060005260406000206000915090508060000160009054906101000a900473ffffffffffffffffffffffffffffffffffffffff16908060010154905082565b60008073ffffffffffffffffffffffffffffffffffffffff16600160008473ffffffffffffffffffffffffffffffffffffffff1673ffffffffffffffffffffffffffffffffffffffff16815260200190815260200160002060000160009054906101000a900473ffffffffffffffffffffffffffffffffffffffff1673ffffffffffffffffffffffffffffffffffffffff160361057557603290506107fe565b6000600160008473ffffffffffffffffffffffffffffffffffffffff1673ffffffffffffffffffffffffffffffffffffffff168152602001908152602001600020600201805490508110156107fc57603c60026000600160008773ffffffffffffffffffffffffffffffffffffffff1673ffffffffffffffffffffffffffffffffffffffff168152602001908152602001600020600201848154811061061e5761061d610b66565b5b9060005260206000200154815260200190815260200160002060010154111561069f5760018060008573ffffffffffffffffffffffffffffffffffffffff1673ffffffffffffffffffffffffffffffffffffffff16815260200190815260200160002060010160008282546106939190610c3d565b925050819055506107b1565b601e60026000600160008773ffffffffffffffffffffffffffffffffffffffff1673ffffffffffffffffffffffffffffffffffffffff16815260200190815260200160002060020184815481106106f9576106f8610b66565b5b9060005260206000200154815260200190815260200160002060010154106107b05760018060008573ffffffffffffffffffffffffffffffffffffffff1673ffffffffffffffffffffffffffffffffffffffff168152602001908152602001600020600101546107699190610c71565b600160008573ffffffffffffffffffffffffffffffffffffffff1673ffffffffffffffffffffffffffffffffffffffff168152602001908152602001600020600101819055505b5b600160008473ffffffffffffffffffffffffffffffffffffffff1673ffffffffffffffffffffffffffffffffffffffff168152602001908152602001600020600101549150506107fe565b505b919050565b610899816040516024016108179190610ae4565b6040516020818303038152906040527ff82c50f1000000000000000000000000000000000000000000000000000000007bffffffffffffffffffffffffffffffffffffffffffffffffffffffff19166020820180517bffffffffffffffffffffffffffffffffffffffffffffffffffffffff838183161783525050505061089c565b50565b60008151905060006a636f6e736f6c652e6c6f679050602083016000808483855afa5050505050565b6040518060600160405280600073ffffffffffffffffffffffffffffffffffffffff16815260200160008152602001606081525090565b828054828255906000526020600020908101928215610938579160200282015b8281111561093757825182559160200191906001019061091c565b5b5090506109459190610949565b5090565b5b8082111561096257600081600090555060010161094a565b5090565b600080fd5b6000819050919050565b61097e8161096b565b811461098957600080fd5b50565b60008135905061099b81610975565b92915050565b6000602082840312156109b7576109b6610966565b5b60006109c58482850161098c565b91505092915050565b6109d78161096b565b82525050565b60006040820190506109f260008301856109ce565b6109ff60208301846109ce565b9392505050565b600073ffffffffffffffffffffffffffffffffffffffff82169050919050565b6000610a3182610a06565b9050919050565b610a4181610a26565b8114610a4c57600080fd5b50565b600081359050610a5e81610a38565b92915050565b600080600060608486031215610a7d57610a7c610966565b5b6000610a8b8682870161098c565b9350506020610a9c86828701610a4f565b9250506040610aad8682870161098c565b9150509250925092565b600060208284031215610acd57610acc610966565b5b6000610adb84828501610a4f565b91505092915050565b6000602082019050610af960008301846109ce565b92915050565b610b0881610a26565b82525050565b6000604082019050610b236000830185610aff565b610b3060208301846109ce565b9392505050565b7f4e487b7100000000000000000000000000000000000000000000000000000000600052604160045260246000fd5b7f4e487b7100000000000000000000000000000000000000000000000000000000600052603260045260246000fd5b6000606082019050610baa60008301866109ce565b610bb760208301856109ce565b610bc460408301846109ce565b949350505050565b7f4e487b7100000000000000000000000000000000000000000000000000000000600052601160045260246000fd5b6000610c068261096b565b9150610c118361096b565b9250828202610c1f8161096b565b91508282048414831517610c3657610c35610bcc565b5b5092915050565b6000610c488261096b565b9150610c538361096b565b9250828201905080821115610c6b57610c6a610bcc565b5b92915050565b6000610c7c8261096b565b9150610c878361096b565b9250828203905081811115610c9f57610c9e610bcc565b5b9291505056fea2646970667358221220be78c436df3c96bd922c22a66385ea0044ae4a818d986108269dd90f68b5072664736f6c63430008110033",
  "linkReferences": {},
  "deployedLinkReferences": {}
}