{
  "_format": "hh-sol-artifact-1",
  "contractName": "TaskAuction",
  "sourceName": "contracts/TaskAuction.sol",
  "abi": [
    {
      "anonymous": false,
      "inputs": [
        {
          "indexed": true,
          "internalType": "uint256",
          "name": "batchTaskId",
          "type": "uint256"
        },
        {
          "components": [
            {
              "internalType": "uint256",
              "name": "taskId",
              "type": "uint256"
            },
            {
              "internalType": "uint256",
              "name": "point",
              "type": "uint256"
            },
            {
              "internalType": "uint256",
              "name": "reward",
              "type": "uint256"
            },
            {
              "internalType": "uint256",
              "name": "minReward",
              "type": "uint256"
            },
            {
              "internalType": "address",
              "name": "reporter",
              "type": "address"
            },
            {
              "internalType": "address",
              "name": "doer",
              "type": "address"
            },
            {
              "internalType": "address",
              "name": "reviewer",
              "type": "address"
            },
            {
              "internalType": "enum ITaskAuction.TASK_STATE",
              "name": "taskState",
              "type": "uint8"
            },
            {
              "internalType": "uint256",
              "name": "lowestBidAmount",
              "type": "uint256"
            },
            {
              "internalType": "address",
              "name": "lowestBidder",
              "type": "address"
            }
          ],
          "indexed": false,
          "internalType": "struct ITaskAuction.AuctionTask",
          "name": "taskAssigned",
          "type": "tuple"
        },
        {
          "indexed": false,
          "internalType": "uint256",
          "name": "assignTime",
          "type": "uint256"
        }
      ],
      "name": "AssignTask",
      "type": "event"
    },
    {
      "anonymous": false,
      "inputs": [
        {
          "indexed": true,
          "internalType": "uint256",
          "name": "batchTaskId",
          "type": "uint256"
        },
        {
          "indexed": false,
          "internalType": "enum ITaskAuction.BATCH_TASK_STATE",
          "name": "batchTaskState",
          "type": "uint8"
        },
        {
          "components": [
            {
              "internalType": "uint256",
              "name": "taskId",
              "type": "uint256"
            },
            {
              "internalType": "uint256",
              "name": "point",
              "type": "uint256"
            },
            {
              "internalType": "uint256",
              "name": "reward",
              "type": "uint256"
            },
            {
              "internalType": "uint256",
              "name": "minReward",
              "type": "uint256"
            },
            {
              "internalType": "address",
              "name": "reporter",
              "type": "address"
            },
            {
              "internalType": "address",
              "name": "doer",
              "type": "address"
            },
            {
              "internalType": "address",
              "name": "reviewer",
              "type": "address"
            },
            {
              "internalType": "enum ITaskAuction.TASK_STATE",
              "name": "taskState",
              "type": "uint8"
            },
            {
              "internalType": "uint256",
              "name": "lowestBidAmount",
              "type": "uint256"
            },
            {
              "internalType": "address",
              "name": "lowestBidder",
              "type": "address"
            }
          ],
          "indexed": false,
          "internalType": "struct ITaskAuction.AuctionTask",
          "name": "assignedTask",
          "type": "tuple"
        },
        {
          "indexed": false,
          "internalType": "uint256",
          "name": "endTime",
          "type": "uint256"
        }
      ],
      "name": "EndAuction",
      "type": "event"
    },
    {
      "anonymous": false,
      "inputs": [
        {
          "indexed": false,
          "internalType": "string",
          "name": "notify",
          "type": "string"
        }
      ],
      "name": "Notify",
      "type": "event"
    },
    {
      "anonymous": false,
      "inputs": [
        {
          "indexed": true,
          "internalType": "uint256",
          "name": "_batchTaskId",
          "type": "uint256"
        },
        {
          "indexed": false,
          "internalType": "uint256",
          "name": "_auctionDuration",
          "type": "uint256"
        },
        {
          "components": [
            {
              "internalType": "uint256",
              "name": "taskId",
              "type": "uint256"
            },
            {
              "internalType": "uint256",
              "name": "point",
              "type": "uint256"
            },
            {
              "internalType": "uint256",
              "name": "reward",
              "type": "uint256"
            },
            {
              "internalType": "uint256",
              "name": "minReward",
              "type": "uint256"
            },
            {
              "internalType": "address",
              "name": "reporter",
              "type": "address"
            },
            {
              "internalType": "address",
              "name": "doer",
              "type": "address"
            },
            {
              "internalType": "address",
              "name": "reviewer",
              "type": "address"
            },
            {
              "internalType": "enum ITaskAuction.TASK_STATE",
              "name": "taskState",
              "type": "uint8"
            },
            {
              "internalType": "uint256",
              "name": "lowestBidAmount",
              "type": "uint256"
            },
            {
              "internalType": "address",
              "name": "lowestBidder",
              "type": "address"
            }
          ],
          "indexed": false,
          "internalType": "struct ITaskAuction.AuctionTask",
          "name": "auctionTask",
          "type": "tuple"
        },
        {
          "indexed": false,
          "internalType": "enum ITaskAuction.BATCH_TASK_STATE",
          "name": "batchTaskState",
          "type": "uint8"
        },
        {
          "indexed": false,
          "internalType": "uint256",
          "name": "timeStart",
          "type": "uint256"
        }
      ],
      "name": "OpenTaskForAuction",
      "type": "event"
    },
    {
      "anonymous": false,
      "inputs": [
        {
          "indexed": true,
          "internalType": "address",
          "name": "previousOwner",
          "type": "address"
        },
        {
          "indexed": true,
          "internalType": "address",
          "name": "newOwner",
          "type": "address"
        }
      ],
      "name": "OwnershipTransferred",
      "type": "event"
    },
    {
      "anonymous": false,
      "inputs": [
        {
          "indexed": true,
          "internalType": "uint256",
          "name": "_taskID",
          "type": "uint256"
        },
        {
          "indexed": true,
          "internalType": "uint256",
          "name": "_batchTaskID",
          "type": "uint256"
        },
        {
          "components": [
            {
              "internalType": "uint256",
              "name": "taskId",
              "type": "uint256"
            },
            {
              "internalType": "uint256",
              "name": "point",
              "type": "uint256"
            },
            {
              "internalType": "uint256",
              "name": "reward",
              "type": "uint256"
            },
            {
              "internalType": "uint256",
              "name": "minReward",
              "type": "uint256"
            },
            {
              "internalType": "address",
              "name": "reporter",
              "type": "address"
            },
            {
              "internalType": "address",
              "name": "doer",
              "type": "address"
            },
            {
              "internalType": "address",
              "name": "reviewer",
              "type": "address"
            },
            {
              "internalType": "enum ITaskAuction.TASK_STATE",
              "name": "taskState",
              "type": "uint8"
            },
            {
              "internalType": "uint256",
              "name": "lowestBidAmount",
              "type": "uint256"
            },
            {
              "internalType": "address",
              "name": "lowestBidder",
              "type": "address"
            }
          ],
          "indexed": false,
          "internalType": "struct ITaskAuction.AuctionTask",
          "name": "auctionTask",
          "type": "tuple"
        },
        {
          "components": [
            {
              "internalType": "address payable",
              "name": "bidder",
              "type": "address"
            },
            {
              "internalType": "uint256",
              "name": "taskId",
              "type": "uint256"
            },
            {
              "internalType": "uint256",
              "name": "totalBidAmount",
              "type": "uint256"
            },
            {
              "internalType": "uint256",
              "name": "numberBid",
              "type": "uint256"
            }
          ],
          "indexed": false,
          "internalType": "struct ITaskAuction.Bid",
          "name": "bid",
          "type": "tuple"
        },
        {
          "indexed": false,
          "internalType": "uint256",
          "name": "bidTime",
          "type": "uint256"
        }
      ],
      "name": "PlaceBid",
      "type": "event"
    },
    {
      "inputs": [
        {
          "internalType": "uint256",
          "name": "",
          "type": "uint256"
        }
      ],
      "name": "auctionTasks",
      "outputs": [
        {
          "internalType": "uint256",
          "name": "taskId",
          "type": "uint256"
        },
        {
          "internalType": "uint256",
          "name": "point",
          "type": "uint256"
        },
        {
          "internalType": "uint256",
          "name": "reward",
          "type": "uint256"
        },
        {
          "internalType": "uint256",
          "name": "minReward",
          "type": "uint256"
        },
        {
          "internalType": "address",
          "name": "reporter",
          "type": "address"
        },
        {
          "internalType": "address",
          "name": "doer",
          "type": "address"
        },
        {
          "internalType": "address",
          "name": "reviewer",
          "type": "address"
        },
        {
          "internalType": "enum ITaskAuction.TASK_STATE",
          "name": "taskState",
          "type": "uint8"
        },
        {
          "internalType": "uint256",
          "name": "lowestBidAmount",
          "type": "uint256"
        },
        {
          "internalType": "address",
          "name": "lowestBidder",
          "type": "address"
        }
      ],
      "stateMutability": "view",
      "type": "function"
    },
    {
      "inputs": [],
      "name": "bankManager",
      "outputs": [
        {
          "internalType": "contract IBankManager",
          "name": "",
          "type": "address"
        }
      ],
      "stateMutability": "view",
      "type": "function"
    },
    {
      "inputs": [
        {
          "internalType": "uint256",
          "name": "",
          "type": "uint256"
        }
      ],
      "name": "batchTaskAuctions",
      "outputs": [
        {
          "internalType": "uint256",
          "name": "pollId",
          "type": "uint256"
        },
        {
          "internalType": "uint256",
          "name": "batchTaskId",
          "type": "uint256"
        },
        {
          "internalType": "uint256",
          "name": "duration",
          "type": "uint256"
        },
        {
          "internalType": "uint256",
          "name": "startTime",
          "type": "uint256"
        },
        {
          "internalType": "enum ITaskAuction.BATCH_TASK_STATE",
          "name": "batchTaskState",
          "type": "uint8"
        }
      ],
      "stateMutability": "view",
      "type": "function"
    },
    {
      "inputs": [
        {
          "internalType": "uint256",
          "name": "",
          "type": "uint256"
        }
      ],
      "name": "batchTaskIdToBatchTask",
      "outputs": [
        {
          "internalType": "uint256",
          "name": "pollId",
          "type": "uint256"
        },
        {
          "internalType": "uint256",
          "name": "batchTaskId",
          "type": "uint256"
        },
        {
          "internalType": "uint256",
          "name": "duration",
          "type": "uint256"
        },
        {
          "internalType": "uint256",
          "name": "startTime",
          "type": "uint256"
        },
        {
          "internalType": "enum ITaskAuction.BATCH_TASK_STATE",
          "name": "batchTaskState",
          "type": "uint8"
        }
      ],
      "stateMutability": "view",
      "type": "function"
    },
    {
      "inputs": [
        {
          "internalType": "uint256",
          "name": "",
          "type": "uint256"
        }
      ],
      "name": "bids",
      "outputs": [
        {
          "internalType": "address payable",
          "name": "bidder",
          "type": "address"
        },
        {
          "internalType": "uint256",
          "name": "taskId",
          "type": "uint256"
        },
        {
          "internalType": "uint256",
          "name": "totalBidAmount",
          "type": "uint256"
        },
        {
          "internalType": "uint256",
          "name": "numberBid",
          "type": "uint256"
        }
      ],
      "stateMutability": "view",
      "type": "function"
    },
    {
      "inputs": [
        {
          "internalType": "address",
          "name": "_tokenAddress",
          "type": "address"
        }
      ],
      "name": "chooseToken",
      "outputs": [],
      "stateMutability": "nonpayable",
      "type": "function"
    },
    {
      "inputs": [],
      "name": "endAuction",
      "outputs": [],
      "stateMutability": "nonpayable",
      "type": "function"
    },
    {
      "inputs": [
        {
          "internalType": "uint256",
          "name": "_pollID",
          "type": "uint256"
        }
      ],
      "name": "getAllBatchTaskAuction",
      "outputs": [
        {
          "components": [
            {
              "internalType": "uint256",
              "name": "pollId",
              "type": "uint256"
            },
            {
              "internalType": "uint256",
              "name": "batchTaskId",
              "type": "uint256"
            },
            {
              "internalType": "uint256[]",
              "name": "taskIds",
              "type": "uint256[]"
            },
            {
              "internalType": "uint256",
              "name": "duration",
              "type": "uint256"
            },
            {
              "internalType": "uint256",
              "name": "startTime",
              "type": "uint256"
            },
            {
              "internalType": "enum ITaskAuction.BATCH_TASK_STATE",
              "name": "batchTaskState",
              "type": "uint8"
            }
          ],
          "internalType": "struct ITaskAuction.BatchTaskAuction[]",
          "name": "",
          "type": "tuple[]"
        }
      ],
      "stateMutability": "view",
      "type": "function"
    },
    {
      "inputs": [
        {
          "internalType": "uint256",
          "name": "_batchTaskId",
          "type": "uint256"
        }
      ],
      "name": "getAllTaskAuction",
      "outputs": [
        {
          "components": [
            {
              "internalType": "uint256",
              "name": "taskId",
              "type": "uint256"
            },
            {
              "internalType": "uint256",
              "name": "point",
              "type": "uint256"
            },
            {
              "internalType": "uint256",
              "name": "reward",
              "type": "uint256"
            },
            {
              "internalType": "uint256",
              "name": "minReward",
              "type": "uint256"
            },
            {
              "internalType": "address",
              "name": "reporter",
              "type": "address"
            },
            {
              "internalType": "address",
              "name": "doer",
              "type": "address"
            },
            {
              "internalType": "address",
              "name": "reviewer",
              "type": "address"
            },
            {
              "internalType": "enum ITaskAuction.TASK_STATE",
              "name": "taskState",
              "type": "uint8"
            },
            {
              "internalType": "uint256",
              "name": "lowestBidAmount",
              "type": "uint256"
            },
            {
              "internalType": "address",
              "name": "lowestBidder",
              "type": "address"
            }
          ],
          "internalType": "struct ITaskAuction.AuctionTask[]",
          "name": "",
          "type": "tuple[]"
        }
      ],
      "stateMutability": "view",
      "type": "function"
    },
    {
      "inputs": [
        {
          "internalType": "uint256",
          "name": "_pollId",
          "type": "uint256"
        },
        {
          "components": [
            {
              "internalType": "uint256",
              "name": "taskId",
              "type": "uint256"
            },
            {
              "internalType": "uint256",
              "name": "point",
              "type": "uint256"
            },
            {
              "internalType": "uint256",
              "name": "reward",
              "type": "uint256"
            },
            {
              "internalType": "uint256",
              "name": "minReward",
              "type": "uint256"
            },
            {
              "internalType": "address",
              "name": "reporter",
              "type": "address"
            },
            {
              "internalType": "address",
              "name": "doer",
              "type": "address"
            },
            {
              "internalType": "address",
              "name": "reviewer",
              "type": "address"
            },
            {
              "internalType": "uint256",
              "name": "timeDoerReceive",
              "type": "uint256"
            },
            {
              "internalType": "enum ITaskManager.TASK_STATE",
              "name": "taskState",
              "type": "uint8"
            }
          ],
          "internalType": "struct ITaskManager.Task[]",
          "name": "_tasks",
          "type": "tuple[]"
        },
        {
          "internalType": "uint256",
          "name": "_batchTaskId",
          "type": "uint256"
        },
        {
          "internalType": "uint256",
          "name": "_auctionDuration",
          "type": "uint256"
        }
      ],
      "name": "openTaskForAuction",
      "outputs": [],
      "stateMutability": "nonpayable",
      "type": "function"
    },
    {
      "inputs": [],
      "name": "owner",
      "outputs": [
        {
          "internalType": "address",
          "name": "",
          "type": "address"
        }
      ],
      "stateMutability": "view",
      "type": "function"
    },
    {
      "inputs": [
        {
          "internalType": "uint256",
          "name": "_taskID",
          "type": "uint256"
        },
        {
          "internalType": "uint256",
          "name": "_batchTaskID",
          "type": "uint256"
        },
        {
          "internalType": "uint256",
          "name": "_amountBid",
          "type": "uint256"
        }
      ],
      "name": "placeBid",
      "outputs": [],
      "stateMutability": "nonpayable",
      "type": "function"
    },
    {
      "inputs": [
        {
          "internalType": "uint256[]",
          "name": "taskIds",
          "type": "uint256[]"
        },
        {
          "internalType": "uint256",
          "name": "_batchTaskID",
          "type": "uint256"
        },
        {
          "internalType": "uint256[]",
          "name": "_amountBids",
          "type": "uint256[]"
        }
      ],
      "name": "placeMultipleBid",
      "outputs": [],
      "stateMutability": "nonpayable",
      "type": "function"
    },
    {
      "inputs": [],
      "name": "renounceOwnership",
      "outputs": [],
      "stateMutability": "nonpayable",
      "type": "function"
    },
    {
      "inputs": [
        {
          "internalType": "address",
          "name": "_bankManagerAddress",
          "type": "address"
        }
      ],
      "name": "setBankManager",
      "outputs": [],
      "stateMutability": "nonpayable",
      "type": "function"
    },
    {
      "inputs": [
        {
          "internalType": "address",
          "name": "_taskManagerAddress",
          "type": "address"
        }
      ],
      "name": "setTaskManager",
      "outputs": [],
      "stateMutability": "nonpayable",
      "type": "function"
    },
    {
      "inputs": [
        {
          "internalType": "uint256",
          "name": "",
          "type": "uint256"
        }
      ],
      "name": "taskIdToAuctionTask",
      "outputs": [
        {
          "internalType": "uint256",
          "name": "taskId",
          "type": "uint256"
        },
        {
          "internalType": "uint256",
          "name": "point",
          "type": "uint256"
        },
        {
          "internalType": "uint256",
          "name": "reward",
          "type": "uint256"
        },
        {
          "internalType": "uint256",
          "name": "minReward",
          "type": "uint256"
        },
        {
          "internalType": "address",
          "name": "reporter",
          "type": "address"
        },
        {
          "internalType": "address",
          "name": "doer",
          "type": "address"
        },
        {
          "internalType": "address",
          "name": "reviewer",
          "type": "address"
        },
        {
          "internalType": "enum ITaskAuction.TASK_STATE",
          "name": "taskState",
          "type": "uint8"
        },
        {
          "internalType": "uint256",
          "name": "lowestBidAmount",
          "type": "uint256"
        },
        {
          "internalType": "address",
          "name": "lowestBidder",
          "type": "address"
        }
      ],
      "stateMutability": "view",
      "type": "function"
    },
    {
      "inputs": [],
      "name": "taskManager",
      "outputs": [
        {
          "internalType": "contract ITaskManager",
          "name": "",
          "type": "address"
        }
      ],
      "stateMutability": "view",
      "type": "function"
    },
    {
      "inputs": [],
      "name": "tokenAddress",
      "outputs": [
        {
          "internalType": "address",
          "name": "",
          "type": "address"
        }
      ],
      "stateMutability": "view",
      "type": "function"
    },
    {
      "inputs": [
        {
          "internalType": "address",
          "name": "newOwner",
          "type": "address"
        }
      ],
      "name": "transferOwnership",
      "outputs": [],
      "stateMutability": "nonpayable",
      "type": "function"
    }
  ],
  "bytecode": "0x60806040523480156200001157600080fd5b5062000032620000266200003860201b60201c565b6200004060201b60201c565b62000104565b600033905090565b60008060009054906101000a900473ffffffffffffffffffffffffffffffffffffffff169050816000806101000a81548173ffffffffffffffffffffffffffffffffffffffff021916908373ffffffffffffffffffffffffffffffffffffffff1602179055508173ffffffffffffffffffffffffffffffffffffffff168173ffffffffffffffffffffffffffffffffffffffff167f8be0079c531659141344cd1fd0a4f28419497f9722a3daafe3b4186f6b6457e060405160405180910390a35050565b61447480620001146000396000f3fe608060405234801561001057600080fd5b506004361061012c5760003560e01c80637a9b6ef7116100ad578063c8eeb01311610071578063c8eeb0131461033d578063e9e2990e14610376578063f2fde38b14610394578063f81f627d146103b0578063fe67a54b146103e45761012c565b80637a9b6ef7146102ab5780638da5cb5b146102c75780639d76ea58146102e5578063a50a640e14610303578063bdd084e6146103215761012c565b80634131e8a9116100f45780634131e8a91461020257806342b200ba146102365780634423c5f1146102525780635e62be2514610285578063715018a6146102a15761012c565b806301c4125d146101315780631b5c10511461016a5780631fbc96081461019a578063327d0a60146101ca5780633d7469d2146101e6575b600080fd5b61014b60048036038101906101469190612cdf565b6103ee565b6040516101619a99989796959493929190612dd3565b60405180910390f35b610184600480360381019061017f9190612cdf565b6104cf565b6040516101919190613018565b60405180910390f35b6101b460048036038101906101af9190612cdf565b6107b7565b6040516101c1919061327c565b60405180910390f35b6101e460048036038101906101df91906132ca565b610976565b005b61020060048036038101906101fb919061355c565b6109c2565b005b61021c60048036038101906102179190612cdf565b6111a6565b60405161022d9594939291906135ee565b60405180910390f35b610250600480360381019061024b91906132ca565b6111f9565b005b61026c60048036038101906102679190612cdf565b611245565b60405161027c9493929190613662565b60405180910390f35b61029f600480360381019061029a91906136a7565b6112a5565b005b6102a9611cf5565b005b6102c560048036038101906102c091906132ca565b611d09565b005b6102cf611d55565b6040516102dc91906136fa565b60405180910390f35b6102ed611d7e565b6040516102fa91906136fa565b60405180910390f35b61030b611da4565b6040516103189190613774565b60405180910390f35b61033b60048036038101906103369190613852565b611dca565b005b61035760048036038101906103529190612cdf565b611e2e565b60405161036d9a99989796959493929190612dd3565b60405180910390f35b61037e611f1f565b60405161038b91906138fe565b60405180910390f35b6103ae60048036038101906103a991906132ca565b611f45565b005b6103ca60048036038101906103c59190612cdf565b611fc8565b6040516103db9594939291906135ee565b60405180910390f35b6103ec61200b565b005b60076020528060005260406000206000915090508060000154908060010154908060020154908060030154908060040160009054906101000a900473ffffffffffffffffffffffffffffffffffffffff16908060050160009054906101000a900473ffffffffffffffffffffffffffffffffffffffff16908060060160009054906101000a900473ffffffffffffffffffffffffffffffffffffffff16908060060160149054906101000a900460ff16908060070154908060080160009054906101000a900473ffffffffffffffffffffffffffffffffffffffff1690508a565b60606000600860008481526020019081526020016000206002018054905067ffffffffffffffff8111156105065761050561330d565b5b60405190808252806020026020018201604052801561053f57816020015b61052c612ae8565b8152602001906001900390816105245790505b50905060005b60086000858152602001908152602001600020600201805490508110156107ad576007600060086000878152602001908152602001600020600201838154811061059257610591613919565b5b9060005260206000200154815260200190815260200160002060405180610140016040529081600082015481526020016001820154815260200160028201548152602001600382015481526020016004820160009054906101000a900473ffffffffffffffffffffffffffffffffffffffff1673ffffffffffffffffffffffffffffffffffffffff1673ffffffffffffffffffffffffffffffffffffffff1681526020016005820160009054906101000a900473ffffffffffffffffffffffffffffffffffffffff1673ffffffffffffffffffffffffffffffffffffffff1673ffffffffffffffffffffffffffffffffffffffff1681526020016006820160009054906101000a900473ffffffffffffffffffffffffffffffffffffffff1673ffffffffffffffffffffffffffffffffffffffff1673ffffffffffffffffffffffffffffffffffffffff1681526020016006820160149054906101000a900460ff16600581111561070657610705612d5c565b5b600581111561071857610717612d5c565b5b8152602001600782015481526020016008820160009054906101000a900473ffffffffffffffffffffffffffffffffffffffff1673ffffffffffffffffffffffffffffffffffffffff1673ffffffffffffffffffffffffffffffffffffffff168152505082828151811061078f5761078e613919565b5b602002602001018190525080806107a590613977565b915050610545565b5080915050919050565b6060600060068054905067ffffffffffffffff8111156107da576107d961330d565b5b60405190808252806020026020018201604052801561081357816020015b610800612ba5565b8152602001906001900390816107f85790505b50905060005b60068054905081101561096c57836006828154811061083b5761083a613919565b5b90600052602060002090600602016000015403610959576006818154811061086657610865613919565b5b90600052602060002090600602016040518060c00160405290816000820154815260200160018201548152602001600282018054806020026020016040519081016040528092919081815260200182805480156108e257602002820191906000526020600020905b8154815260200190600101908083116108ce575b5050505050815260200160038201548152602001600482015481526020016005820160009054906101000a900460ff16600381111561092457610923612d5c565b5b600381111561093657610935612d5c565b5b8152505082828151811061094d5761094c613919565b5b60200260200101819052505b808061096490613977565b915050610819565b5080915050919050565b61097e6127ea565b80600160006101000a81548173ffffffffffffffffffffffffffffffffffffffff021916908373ffffffffffffffffffffffffffffffffffffffff16021790555050565b600160009054906101000a900473ffffffffffffffffffffffffffffffffffffffff1673ffffffffffffffffffffffffffffffffffffffff163373ffffffffffffffffffffffffffffffffffffffff1614610a52576040517f08c379a0000000000000000000000000000000000000000000000000000000008152600401610a4990613a1c565b60405180910390fd5b6000835167ffffffffffffffff811115610a6f57610a6e61330d565b5b604051908082528060200260200182016040528015610a9d5781602001602082028036833780820191505090505b50905060005b845181101561102a57600080604051806101400160405280888581518110610ace57610acd613919565b5b6020026020010151600001518152602001888581518110610af257610af1613919565b5b6020026020010151602001518152602001888581518110610b1657610b15613919565b5b6020026020010151604001518152602001888581518110610b3a57610b39613919565b5b6020026020010151606001518152602001888581518110610b5e57610b5d613919565b5b60200260200101516080015173ffffffffffffffffffffffffffffffffffffffff168152602001600073ffffffffffffffffffffffffffffffffffffffff168152602001888581518110610bb557610bb4613919565b5b602002602001015160c0015173ffffffffffffffffffffffffffffffffffffffff16815260200160026005811115610bf057610bef612d5c565b5b8152602001888581518110610c0857610c07613919565b5b60200260200101516040015181526020018373ffffffffffffffffffffffffffffffffffffffff1681525090508060076000898681518110610c4d57610c4c613919565b5b60200260200101516000015181526020019081526020016000206000820151816000015560208201518160010155604082015181600201556060820151816003015560808201518160040160006101000a81548173ffffffffffffffffffffffffffffffffffffffff021916908373ffffffffffffffffffffffffffffffffffffffff16021790555060a08201518160050160006101000a81548173ffffffffffffffffffffffffffffffffffffffff021916908373ffffffffffffffffffffffffffffffffffffffff16021790555060c08201518160060160006101000a81548173ffffffffffffffffffffffffffffffffffffffff021916908373ffffffffffffffffffffffffffffffffffffffff16021790555060e08201518160060160146101000a81548160ff02191690836005811115610d8f57610d8e612d5c565b5b021790555061010082015181600701556101208201518160080160006101000a81548173ffffffffffffffffffffffffffffffffffffffff021916908373ffffffffffffffffffffffffffffffffffffffff16021790555090505060038190806001815401808255809150506001900390600052602060002090600902016000909190919091506000820151816000015560208201518160010155604082015181600201556060820151816003015560808201518160040160006101000a81548173ffffffffffffffffffffffffffffffffffffffff021916908373ffffffffffffffffffffffffffffffffffffffff16021790555060a08201518160050160006101000a81548173ffffffffffffffffffffffffffffffffffffffff021916908373ffffffffffffffffffffffffffffffffffffffff16021790555060c08201518160060160006101000a81548173ffffffffffffffffffffffffffffffffffffffff021916908373ffffffffffffffffffffffffffffffffffffffff16021790555060e08201518160060160146101000a81548160ff02191690836005811115610f3e57610f3d612d5c565b5b021790555061010082015181600701556101208201518160080160006101000a81548173ffffffffffffffffffffffffffffffffffffffff021916908373ffffffffffffffffffffffffffffffffffffffff1602179055505050868381518110610fab57610faa613919565b5b602002602001015160000151848481518110610fca57610fc9613919565b5b602002602001018181525050857f6b2a60f8f98211f3bc3e3c51c3b99d7e819a66605c3c87f664e0b3c51d9eb572868360024260405161100d9493929190613b08565b60405180910390a25050808061102290613977565b915050610aa3565b5060006040518060c001604052808781526020018581526020018381526020018481526020014281526020016002600381111561106a57611069612d5c565b5b81525090506006819080600181540180825580915050600190039060005260206000209060060201600090919091909150600082015181600001556020820151816001015560408201518160020190805190602001906110cb929190612bed565b50606082015181600301556080820151816004015560a08201518160050160006101000a81548160ff0219169083600381111561110b5761110a612d5c565b5b02179055505050806008600086815260200190815260200160002060008201518160000155602082015181600101556040820151816002019080519060200190611156929190612bed565b50606082015181600301556080820151816004015560a08201518160050160006101000a81548160ff0219169083600381111561119657611195612d5c565b5b0217905550905050505050505050565b600681815481106111b657600080fd5b90600052602060002090600602016000915090508060000154908060010154908060030154908060040154908060050160009054906101000a900460ff16905085565b6112016127ea565b80600460006101000a81548173ffffffffffffffffffffffffffffffffffffffff021916908373ffffffffffffffffffffffffffffffffffffffff16021790555050565b6005818154811061125557600080fd5b90600052602060002090600402016000915090508060000160009054906101000a900473ffffffffffffffffffffffffffffffffffffffff16908060010154908060020154908060030154905084565b6002828160038111156112bb576112ba612d5c565b5b6008600083815260200190815260200160002060050160009054906101000a900460ff1660038111156112f1576112f0612d5c565b5b14611331576040517f08c379a000000000000000000000000000000000000000000000000000000000815260040161132890613b9c565b60405180910390fd5b6007600086815260200190815260200160002060060160009054906101000a900473ffffffffffffffffffffffffffffffffffffffff1673ffffffffffffffffffffffffffffffffffffffff163373ffffffffffffffffffffffffffffffffffffffff16036113d5576040517f08c379a00000000000000000000000000000000000000000000000000000000081526004016113cc90613c08565b60405180910390fd5b600060076000878152602001908152602001600020905085816000015414611432576040517f08c379a000000000000000000000000000000000000000000000000000000000815260040161142990613c74565b60405180910390fd5b83600260009054906101000a900473ffffffffffffffffffffffffffffffffffffffff1673ffffffffffffffffffffffffffffffffffffffff1663f7888aec33600460009054906101000a900473ffffffffffffffffffffffffffffffffffffffff166040518363ffffffff1660e01b81526004016114b2929190613c94565b6020604051808303816000875af11580156114d1573d6000803e3d6000fd5b505050506040513d601f19601f820116820180604052508101906114f59190613cd2565b1015611536576040517f08c379a000000000000000000000000000000000000000000000000000000000815260040161152d90613d4b565b60405180910390fd5b8060030154841015801561154d5750806007015484105b61158c576040517f08c379a000000000000000000000000000000000000000000000000000000000815260040161158390613db7565b60405180910390fd5b600260009054906101000a900473ffffffffffffffffffffffffffffffffffffffff1673ffffffffffffffffffffffffffffffffffffffff1663f18d03cc33600460009054906101000a900473ffffffffffffffffffffffffffffffffffffffff16600260009054906101000a900473ffffffffffffffffffffffffffffffffffffffff16886040518563ffffffff1660e01b81526004016116319493929190613dd7565b600060405180830381600087803b15801561164b57600080fd5b505af115801561165f573d6000803e3d6000fd5b50505050600061166f8733612868565b9050600073ffffffffffffffffffffffffffffffffffffffff16816000015173ffffffffffffffffffffffffffffffffffffffff16036116ec5733816000019073ffffffffffffffffffffffffffffffffffffffff16908173ffffffffffffffffffffffffffffffffffffffff1681525050868160200181815250505b84816040018181516116fe9190613e1c565b9150818152505080606001805180919061171790613977565b81525050816007015485101561177457848260070181905550338260080160006101000a81548173ffffffffffffffffffffffffffffffffffffffff021916908373ffffffffffffffffffffffffffffffffffffffff1602179055505b8160076000898152602001908152602001600020600082015481600001556001820154816001015560028201548160020155600382015481600301556004820160009054906101000a900473ffffffffffffffffffffffffffffffffffffffff168160040160006101000a81548173ffffffffffffffffffffffffffffffffffffffff021916908373ffffffffffffffffffffffffffffffffffffffff1602179055506005820160009054906101000a900473ffffffffffffffffffffffffffffffffffffffff168160050160006101000a81548173ffffffffffffffffffffffffffffffffffffffff021916908373ffffffffffffffffffffffffffffffffffffffff1602179055506006820160009054906101000a900473ffffffffffffffffffffffffffffffffffffffff168160060160006101000a81548173ffffffffffffffffffffffffffffffffffffffff021916908373ffffffffffffffffffffffffffffffffffffffff1602179055506006820160149054906101000a900460ff168160060160146101000a81548160ff0219169083600581111561191d5761191c612d5c565b5b0217905550600782015481600701556008820160009054906101000a900473ffffffffffffffffffffffffffffffffffffffff168160080160006101000a81548173ffffffffffffffffffffffffffffffffffffffff021916908373ffffffffffffffffffffffffffffffffffffffff16021790555090505060005b600380549050811015611c1b5787600382815481106119bb576119ba613919565b5b90600052602060002090600902016000015403611c085782600382815481106119e7576119e6613919565b5b9060005260206000209060090201600082015481600001556001820154816001015560028201548160020155600382015481600301556004820160009054906101000a900473ffffffffffffffffffffffffffffffffffffffff168160040160006101000a81548173ffffffffffffffffffffffffffffffffffffffff021916908373ffffffffffffffffffffffffffffffffffffffff1602179055506005820160009054906101000a900473ffffffffffffffffffffffffffffffffffffffff168160050160006101000a81548173ffffffffffffffffffffffffffffffffffffffff021916908373ffffffffffffffffffffffffffffffffffffffff1602179055506006820160009054906101000a900473ffffffffffffffffffffffffffffffffffffffff168160060160006101000a81548173ffffffffffffffffffffffffffffffffffffffff021916908373ffffffffffffffffffffffffffffffffffffffff1602179055506006820160149054906101000a900460ff168160060160146101000a81548160ff02191690836005811115611b8a57611b89612d5c565b5b0217905550600782015481600701556008820160009054906101000a900473ffffffffffffffffffffffffffffffffffffffff168160080160006101000a81548173ffffffffffffffffffffffffffffffffffffffff021916908373ffffffffffffffffffffffffffffffffffffffff160217905550905050611c1b565b8080611c1390613977565b915050611999565b50600581908060018154018082558091505060019003906000526020600020906004020160009091909190915060008201518160000160006101000a81548173ffffffffffffffffffffffffffffffffffffffff021916908373ffffffffffffffffffffffffffffffffffffffff160217905550602082015181600101556040820151816002015560608201518160030155505085877f2cff0c19c381686e31d570ceca6503f9647cc71d904570fa7d6ec6ba8fdd41ed848442604051611ce493929190614086565b60405180910390a350505050505050565b611cfd6127ea565b611d076000612a1c565b565b611d116127ea565b80600260006101000a81548173ffffffffffffffffffffffffffffffffffffffff021916908373ffffffffffffffffffffffffffffffffffffffff16021790555050565b60008060009054906101000a900473ffffffffffffffffffffffffffffffffffffffff16905090565b600460009054906101000a900473ffffffffffffffffffffffffffffffffffffffff1681565b600160009054906101000a900473ffffffffffffffffffffffffffffffffffffffff1681565b60005b8351811015611e2857611e15848281518110611dec57611deb613919565b5b602002602001015184848481518110611e0857611e07613919565b5b60200260200101516112a5565b8080611e2090613977565b915050611dcd565b50505050565b60038181548110611e3e57600080fd5b90600052602060002090600902016000915090508060000154908060010154908060020154908060030154908060040160009054906101000a900473ffffffffffffffffffffffffffffffffffffffff16908060050160009054906101000a900473ffffffffffffffffffffffffffffffffffffffff16908060060160009054906101000a900473ffffffffffffffffffffffffffffffffffffffff16908060060160149054906101000a900460ff16908060070154908060080160009054906101000a900473ffffffffffffffffffffffffffffffffffffffff1690508a565b600260009054906101000a900473ffffffffffffffffffffffffffffffffffffffff1681565b611f4d6127ea565b600073ffffffffffffffffffffffffffffffffffffffff168173ffffffffffffffffffffffffffffffffffffffff1603611fbc576040517f08c379a0000000000000000000000000000000000000000000000000000000008152600401611fb390614132565b60405180910390fd5b611fc581612a1c565b50565b60086020528060005260406000206000915090508060000154908060010154908060030154908060040154908060050160009054906101000a900460ff16905085565b6000805b6006805490508110156127a457600260038111156120305761202f612d5c565b5b6006828154811061204457612043613919565b5b906000526020600020906006020160050160009054906101000a900460ff16600381111561207557612074612d5c565b5b1480156120d657506006818154811061209157612090613919565b5b906000526020600020906006020160030154600682815481106120b7576120b6613919565b5b9060005260206000209060060201600401546120d39190613e1c565b42115b15612791576001915060005b600682815481106120f6576120f5613919565b5b90600052602060002090600602016002018054905081101561278f57600073ffffffffffffffffffffffffffffffffffffffff16600760006006858154811061214257612141613919565b5b9060005260206000209060060201600201848154811061216557612164613919565b5b9060005260206000200154815260200190815260200160002060080160009054906101000a900473ffffffffffffffffffffffffffffffffffffffff1673ffffffffffffffffffffffffffffffffffffffff161461277c5760076000600684815481106121d5576121d4613919565b5b906000526020600020906006020160020183815481106121f8576121f7613919565b5b9060005260206000200154815260200190815260200160002060070154600760006006858154811061222d5761222c613919565b5b906000526020600020906006020160020184815481106122505761224f613919565b5b9060005260206000200154815260200190815260200160002060020181905550600760006006848154811061228857612287613919565b5b906000526020600020906006020160020183815481106122ab576122aa613919565b5b9060005260206000200154815260200190815260200160002060080160009054906101000a900473ffffffffffffffffffffffffffffffffffffffff166007600060068581548110612300576122ff613919565b5b9060005260206000209060060201600201848154811061232357612322613919565b5b9060005260206000200154815260200190815260200160002060050160006101000a81548173ffffffffffffffffffffffffffffffffffffffff021916908373ffffffffffffffffffffffffffffffffffffffff1602179055506001600760006006858154811061239757612396613919565b5b906000526020600020906006020160020184815481106123ba576123b9613919565b5b9060005260206000200154815260200190815260200160002060060160146101000a81548160ff021916908360058111156123f8576123f7612d5c565b5b021790555060005b6005805490508110156125e557600760006006858154811061242557612424613919565b5b9060005260206000209060060201600201848154811061244857612447613919565b5b90600052602060002001548152602001908152602001600020600001546005828154811061247957612478613919565b5b906000526020600020906004020160010154036125d257600260009054906101000a900473ffffffffffffffffffffffffffffffffffffffff1673ffffffffffffffffffffffffffffffffffffffff1663f18d03cc600260009054906101000a900473ffffffffffffffffffffffffffffffffffffffff16600460009054906101000a900473ffffffffffffffffffffffffffffffffffffffff166005858154811061252857612527613919565b5b906000526020600020906004020160000160009054906101000a900473ffffffffffffffffffffffffffffffffffffffff166005868154811061256e5761256d613919565b5b9060005260206000209060040201600201546040518563ffffffff1660e01b815260040161259f9493929190614173565b600060405180830381600087803b1580156125b957600080fd5b505af11580156125cd573d6000803e3d6000fd5b505050505b80806125dd90613977565b915050612400565b50600160009054906101000a900473ffffffffffffffffffffffffffffffffffffffff1673ffffffffffffffffffffffffffffffffffffffff1663e64f01b9600760006006868154811061263c5761263b613919565b5b9060005260206000209060060201600201858154811061265f5761265e613919565b5b906000526020600020015481526020019081526020016000206040518263ffffffff1660e01b815260040161269491906142eb565b600060405180830381600087803b1580156126ae57600080fd5b505af11580156126c2573d6000803e3d6000fd5b50505050600682815481106126da576126d9613919565b5b9060005260206000209060060201600101547f0d19890da1b1bd40a99f567ecd37462e386bd530424360d1e1b5f7ff75a0da206003600760006006878154811061272757612726613919565b5b9060005260206000209060060201600201868154811061274a57612749613919565b5b906000526020600020015481526020019081526020016000204260405161277393929190614307565b60405180910390a25b808061278790613977565b9150506120e2565b505b808061279c90613977565b91505061200f565b5060001515811515036127e7577f740029a372cf63fe0e8d59421d39ff2e39506263bf68a6d46f4ade0771a090126040516127de906143b2565b60405180910390a15b50565b6127f2612ae0565b73ffffffffffffffffffffffffffffffffffffffff16612810611d55565b73ffffffffffffffffffffffffffffffffffffffff1614612866576040517f08c379a000000000000000000000000000000000000000000000000000000000815260040161285d9061441e565b60405180910390fd5b565b612870612c3a565b6000600580549050811015612a1457836005828154811061289457612893613919565b5b90600052602060002090600402016001015414801561292357508273ffffffffffffffffffffffffffffffffffffffff16600582815481106128d9576128d8613919565b5b906000526020600020906004020160000160009054906101000a900473ffffffffffffffffffffffffffffffffffffffff1673ffffffffffffffffffffffffffffffffffffffff16145b156129d1576005818154811061293c5761293b613919565b5b90600052602060002090600402016040518060800160405290816000820160009054906101000a900473ffffffffffffffffffffffffffffffffffffffff1673ffffffffffffffffffffffffffffffffffffffff1673ffffffffffffffffffffffffffffffffffffffff1681526020016001820154815260200160028201548152602001600382015481525050915050612a16565b6040518060800160405280600073ffffffffffffffffffffffffffffffffffffffff16815260200160008152602001600081526020016000815250915050612a16565b505b92915050565b60008060009054906101000a900473ffffffffffffffffffffffffffffffffffffffff169050816000806101000a81548173ffffffffffffffffffffffffffffffffffffffff021916908373ffffffffffffffffffffffffffffffffffffffff1602179055508173ffffffffffffffffffffffffffffffffffffffff168173ffffffffffffffffffffffffffffffffffffffff167f8be0079c531659141344cd1fd0a4f28419497f9722a3daafe3b4186f6b6457e060405160405180910390a35050565b600033905090565b60405180610140016040528060008152602001600081526020016000815260200160008152602001600073ffffffffffffffffffffffffffffffffffffffff168152602001600073ffffffffffffffffffffffffffffffffffffffff168152602001600073ffffffffffffffffffffffffffffffffffffffff16815260200160006005811115612b7b57612b7a612d5c565b5b815260200160008152602001600073ffffffffffffffffffffffffffffffffffffffff1681525090565b6040518060c00160405280600081526020016000815260200160608152602001600081526020016000815260200160006003811115612be757612be6612d5c565b5b81525090565b828054828255906000526020600020908101928215612c29579160200282015b82811115612c28578251825591602001919060010190612c0d565b5b509050612c369190612c78565b5090565b6040518060800160405280600073ffffffffffffffffffffffffffffffffffffffff1681526020016000815260200160008152602001600081525090565b5b80821115612c91576000816000905550600101612c79565b5090565b6000604051905090565b600080fd5b600080fd5b6000819050919050565b612cbc81612ca9565b8114612cc757600080fd5b50565b600081359050612cd981612cb3565b92915050565b600060208284031215612cf557612cf4612c9f565b5b6000612d0384828501612cca565b91505092915050565b612d1581612ca9565b82525050565b600073ffffffffffffffffffffffffffffffffffffffff82169050919050565b6000612d4682612d1b565b9050919050565b612d5681612d3b565b82525050565b7f4e487b7100000000000000000000000000000000000000000000000000000000600052602160045260246000fd5b60068110612d9c57612d9b612d5c565b5b50565b6000819050612dad82612d8b565b919050565b6000612dbd82612d9f565b9050919050565b612dcd81612db2565b82525050565b600061014082019050612de9600083018d612d0c565b612df6602083018c612d0c565b612e03604083018b612d0c565b612e10606083018a612d0c565b612e1d6080830189612d4d565b612e2a60a0830188612d4d565b612e3760c0830187612d4d565b612e4460e0830186612dc4565b612e52610100830185612d0c565b612e60610120830184612d4d565b9b9a5050505050505050505050565b600081519050919050565b600082825260208201905092915050565b6000819050602082019050919050565b612ea481612ca9565b82525050565b612eb381612d3b565b82525050565b612ec281612db2565b82525050565b61014082016000820151612edf6000850182612e9b565b506020820151612ef26020850182612e9b565b506040820151612f056040850182612e9b565b506060820151612f186060850182612e9b565b506080820151612f2b6080850182612eaa565b5060a0820151612f3e60a0850182612eaa565b5060c0820151612f5160c0850182612eaa565b5060e0820151612f6460e0850182612eb9565b50610100820151612f79610100850182612e9b565b50610120820151612f8e610120850182612eaa565b50505050565b6000612fa08383612ec8565b6101408301905092915050565b6000602082019050919050565b6000612fc582612e6f565b612fcf8185612e7a565b9350612fda83612e8b565b8060005b8381101561300b578151612ff28882612f94565b9750612ffd83612fad565b925050600181019050612fde565b5085935050505092915050565b600060208201905081810360008301526130328184612fba565b905092915050565b600081519050919050565b600082825260208201905092915050565b6000819050602082019050919050565b600081519050919050565b600082825260208201905092915050565b6000819050602082019050919050565b600061309e8383612e9b565b60208301905092915050565b6000602082019050919050565b60006130c282613066565b6130cc8185613071565b93506130d783613082565b8060005b838110156131085781516130ef8882613092565b97506130fa836130aa565b9250506001810190506130db565b5085935050505092915050565b6004811061312657613125612d5c565b5b50565b600081905061313782613115565b919050565b600061314782613129565b9050919050565b6131578161313c565b82525050565b600060c0830160008301516131756000860182612e9b565b5060208301516131886020860182612e9b565b50604083015184820360408601526131a082826130b7565b91505060608301516131b56060860182612e9b565b5060808301516131c86080860182612e9b565b5060a08301516131db60a086018261314e565b508091505092915050565b60006131f2838361315d565b905092915050565b6000602082019050919050565b60006132128261303a565b61321c8185613045565b93508360208202850161322e85613056565b8060005b8581101561326a578484038952815161324b85826131e6565b9450613256836131fa565b925060208a01995050600181019050613232565b50829750879550505050505092915050565b600060208201905081810360008301526132968184613207565b905092915050565b6132a781612d3b565b81146132b257600080fd5b50565b6000813590506132c48161329e565b92915050565b6000602082840312156132e0576132df612c9f565b5b60006132ee848285016132b5565b91505092915050565b600080fd5b6000601f19601f8301169050919050565b7f4e487b7100000000000000000000000000000000000000000000000000000000600052604160045260246000fd5b613345826132fc565b810181811067ffffffffffffffff821117156133645761336361330d565b5b80604052505050565b6000613377612c95565b9050613383828261333c565b919050565b600067ffffffffffffffff8211156133a3576133a261330d565b5b602082029050602081019050919050565b600080fd5b600080fd5b600681106133cb57600080fd5b50565b6000813590506133dd816133be565b92915050565b600061012082840312156133fa576133f96133b9565b5b61340561012061336d565b9050600061341584828501612cca565b600083015250602061342984828501612cca565b602083015250604061343d84828501612cca565b604083015250606061345184828501612cca565b6060830152506080613465848285016132b5565b60808301525060a0613479848285016132b5565b60a08301525060c061348d848285016132b5565b60c08301525060e06134a184828501612cca565b60e0830152506101006134b6848285016133ce565b6101008301525092915050565b60006134d66134d184613388565b61336d565b90508083825260208201905061012084028301858111156134fa576134f96133b4565b5b835b81811015613524578061350f88826133e3565b845260208401935050610120810190506134fc565b5050509392505050565b600082601f830112613543576135426132f7565b5b81356135538482602086016134c3565b91505092915050565b6000806000806080858703121561357657613575612c9f565b5b600061358487828801612cca565b945050602085013567ffffffffffffffff8111156135a5576135a4612ca4565b5b6135b18782880161352e565b93505060406135c287828801612cca565b92505060606135d387828801612cca565b91505092959194509250565b6135e88161313c565b82525050565b600060a0820190506136036000830188612d0c565b6136106020830187612d0c565b61361d6040830186612d0c565b61362a6060830185612d0c565b61363760808301846135df565b9695505050505050565b600061364c82612d1b565b9050919050565b61365c81613641565b82525050565b60006080820190506136776000830187613653565b6136846020830186612d0c565b6136916040830185612d0c565b61369e6060830184612d0c565b95945050505050565b6000806000606084860312156136c0576136bf612c9f565b5b60006136ce86828701612cca565b93505060206136df86828701612cca565b92505060406136f086828701612cca565b9150509250925092565b600060208201905061370f6000830184612d4d565b92915050565b6000819050919050565b600061373a61373561373084612d1b565b613715565b612d1b565b9050919050565b600061374c8261371f565b9050919050565b600061375e82613741565b9050919050565b61376e81613753565b82525050565b60006020820190506137896000830184613765565b92915050565b600067ffffffffffffffff8211156137aa576137a961330d565b5b602082029050602081019050919050565b60006137ce6137c98461378f565b61336d565b905080838252602082019050602084028301858111156137f1576137f06133b4565b5b835b8181101561381a57806138068882612cca565b8452602084019350506020810190506137f3565b5050509392505050565b600082601f830112613839576138386132f7565b5b81356138498482602086016137bb565b91505092915050565b60008060006060848603121561386b5761386a612c9f565b5b600084013567ffffffffffffffff81111561388957613888612ca4565b5b61389586828701613824565b93505060206138a686828701612cca565b925050604084013567ffffffffffffffff8111156138c7576138c6612ca4565b5b6138d386828701613824565b9150509250925092565b60006138e882613741565b9050919050565b6138f8816138dd565b82525050565b600060208201905061391360008301846138ef565b92915050565b7f4e487b7100000000000000000000000000000000000000000000000000000000600052603260045260246000fd5b7f4e487b7100000000000000000000000000000000000000000000000000000000600052601160045260246000fd5b600061398282612ca9565b91507fffffffffffffffffffffffffffffffffffffffffffffffffffffffffffffffff82036139b4576139b3613948565b5b600182019050919050565b600082825260208201905092915050565b7f4f6e6c792063616c6c206279205461736b4d616e616765720000000000000000600082015250565b6000613a066018836139bf565b9150613a11826139d0565b602082019050919050565b60006020820190508181036000830152613a35816139f9565b9050919050565b61014082016000820151613a536000850182612e9b565b506020820151613a666020850182612e9b565b506040820151613a796040850182612e9b565b506060820151613a8c6060850182612e9b565b506080820151613a9f6080850182612eaa565b5060a0820151613ab260a0850182612eaa565b5060c0820151613ac560c0850182612eaa565b5060e0820151613ad860e0850182612eb9565b50610100820151613aed610100850182612e9b565b50610120820151613b02610120850182612eaa565b50505050565b60006101a082019050613b1e6000830187612d0c565b613b2b6020830186613a3c565b613b396101608301856135df565b613b47610180830184612d0c565b95945050505050565b7f4572726f723a20496e76616c6964204261746368205461736b20537461746500600082015250565b6000613b86601f836139bf565b9150613b9182613b50565b602082019050919050565b60006020820190508181036000830152613bb581613b79565b9050919050565b7f5461736b2072657669657765722063616e6e6f74206269642000000000000000600082015250565b6000613bf26019836139bf565b9150613bfd82613bbc565b602082019050919050565b60006020820190508181036000830152613c2181613be5565b9050919050565b7f57726f6e67207461736b49440000000000000000000000000000000000000000600082015250565b6000613c5e600c836139bf565b9150613c6982613c28565b602082019050919050565b60006020820190508181036000830152613c8d81613c51565b9050919050565b6000604082019050613ca96000830185612d4d565b613cb66020830184612d4d565b9392505050565b600081519050613ccc81612cb3565b92915050565b600060208284031215613ce857613ce7612c9f565b5b6000613cf684828501613cbd565b91505092915050565b7f596f75722062616c616e6365206e6f7420656e6f756768000000000000000000600082015250565b6000613d356017836139bf565b9150613d4082613cff565b602082019050919050565b60006020820190508181036000830152613d6481613d28565b9050919050565b7f496e73756666696369656e742062696420616d6f756e74200000000000000000600082015250565b6000613da16018836139bf565b9150613dac82613d6b565b602082019050919050565b60006020820190508181036000830152613dd081613d94565b9050919050565b6000608082019050613dec6000830187612d4d565b613df96020830186612d4d565b613e066040830185612d4d565b613e136060830184612d0c565b95945050505050565b6000613e2782612ca9565b9150613e3283612ca9565b9250828201905080821115613e4a57613e49613948565b5b92915050565b60008160001c9050919050565b6000819050919050565b6000613e7a613e7583613e50565b613e5d565b9050919050565b600073ffffffffffffffffffffffffffffffffffffffff82169050919050565b6000613eb4613eaf83613e50565b613e81565b9050919050565b60008160a01c9050919050565b600060ff82169050919050565b6000613ee8613ee383613ebb565b613ec8565b9050919050565b61014082016000808301549050613f0581613e67565b613f126000860182612e9b565b5060018301549050613f2381613e67565b613f306020860182612e9b565b5060028301549050613f4181613e67565b613f4e6040860182612e9b565b5060038301549050613f5f81613e67565b613f6c6060860182612e9b565b5060048301549050613f7d81613ea1565b613f8a6080860182612eaa565b5060058301549050613f9b81613ea1565b613fa860a0860182612eaa565b5060068301549050613fb981613ea1565b613fc660c0860182612eaa565b50613fd081613ed5565b613fdd60e0860182612eb9565b5060078301549050613fee81613e67565b613ffc610100860182612e9b565b506008830154905061400d81613ea1565b61401b610120860182612eaa565b5050505050565b61402b81613641565b82525050565b6080820160008201516140476000850182614022565b50602082015161405a6020850182612e9b565b50604082015161406d6040850182612e9b565b5060608201516140806060850182612e9b565b50505050565b60006101e08201905061409c6000830186613eef565b6140aa610140830185614031565b6140b86101c0830184612d0c565b949350505050565b7f4f776e61626c653a206e6577206f776e657220697320746865207a65726f206160008201527f6464726573730000000000000000000000000000000000000000000000000000602082015250565b600061411c6026836139bf565b9150614127826140c0565b604082019050919050565b6000602082019050818103600083015261414b8161410f565b9050919050565b600061415d82613741565b9050919050565b61416d81614152565b82525050565b60006080820190506141886000830187612d4d565b6141956020830186612d4d565b6141a26040830185614164565b6141af6060830184612d0c565b95945050505050565b610140820160008083015490506141ce81613e67565b6141db6000860182612e9b565b50600183015490506141ec81613e67565b6141f96020860182612e9b565b506002830154905061420a81613e67565b6142176040860182612e9b565b506003830154905061422881613e67565b6142356060860182612e9b565b506004830154905061424681613ea1565b6142536080860182612eaa565b506005830154905061426481613ea1565b61427160a0860182612eaa565b506006830154905061428281613ea1565b61428f60c0860182612eaa565b5061429981613ed5565b6142a660e0860182612eb9565b50600783015490506142b781613e67565b6142c5610100860182612e9b565b50600883015490506142d681613ea1565b6142e4610120860182612eaa565b5050505050565b60006101408201905061430160008301846141b8565b92915050565b60006101808201905061431d60008301866135df565b61432a60208301856141b8565b614338610160830184612d0c565b949350505050565b7f546865726520617265206e6f2041756374696f6e2063616e20656e642061742060008201527f746865206d6f6d656e7400000000000000000000000000000000000000000000602082015250565b600061439c602a836139bf565b91506143a782614340565b604082019050919050565b600060208201905081810360008301526143cb8161438f565b9050919050565b7f4f776e61626c653a2063616c6c6572206973206e6f7420746865206f776e6572600082015250565b60006144086020836139bf565b9150614413826143d2565b602082019050919050565b60006020820190508181036000830152614437816143fb565b905091905056fea26469706673582212203839cfd29afe1e9d5c75eed79b32fab0e35767899b152295f53814663457f63864736f6c63430008110033",
  "linkReferences": {},
  "deployedLinkReferences": {}
}