{
  "_format": "hh-sol-artifact-1",
  "contractName": "TaskManager",
  "sourceName": "contracts/TaskManager.sol",
  "abi": [
    {
      "anonymous": false,
      "inputs": [
        {
          "indexed": true,
          "internalType": "uint256",
          "name": "taskId",
          "type": "uint256"
        },
        {
          "indexed": false,
          "internalType": "uint256",
          "name": "reward",
          "type": "uint256"
        },
        {
          "indexed": true,
          "internalType": "address",
          "name": "doer",
          "type": "address"
        },
        {
          "indexed": false,
          "internalType": "enum ITaskManager.TASK_STATE",
          "name": "taskState",
          "type": "uint8"
        }
      ],
      "name": "AssignTask",
      "type": "event"
    },
    {
      "anonymous": false,
      "inputs": [
        {
          "indexed": true,
          "internalType": "uint256",
          "name": "batchTaskId",
          "type": "uint256"
        },
        {
          "indexed": true,
          "internalType": "uint256",
          "name": "pollId",
          "type": "uint256"
        },
        {
          "indexed": false,
          "internalType": "enum ITaskManager.BATCH_TASK_STATE",
          "name": "batchTaskState",
          "type": "uint8"
        }
      ],
      "name": "BatchTaskInit",
      "type": "event"
    },
    {
      "anonymous": false,
      "inputs": [
        {
          "indexed": true,
          "internalType": "uint256",
          "name": "batchTaskID",
          "type": "uint256"
        },
        {
          "indexed": false,
          "internalType": "uint256",
          "name": "auctionDuration",
          "type": "uint256"
        },
        {
          "indexed": false,
          "internalType": "uint256",
          "name": "timeOpen",
          "type": "uint256"
        },
        {
          "indexed": false,
          "internalType": "enum ITaskManager.BATCH_TASK_STATE",
          "name": "batchTaskState",
          "type": "uint8"
        }
      ],
      "name": "OpenBatchTaskForAuction",
      "type": "event"
    },
    {
      "anonymous": false,
      "inputs": [
        {
          "indexed": true,
          "internalType": "uint256",
          "name": "_pollId",
          "type": "uint256"
        },
        {
          "indexed": false,
          "internalType": "uint256",
          "name": "_voteDuration",
          "type": "uint256"
        },
        {
          "indexed": false,
          "internalType": "uint256",
          "name": "timeOpenPollVote",
          "type": "uint256"
        },
        {
          "indexed": true,
          "internalType": "address",
          "name": "pollOwner",
          "type": "address"
        },
        {
          "indexed": false,
          "internalType": "enum ITaskManager.POLL_STATE",
          "name": "pollState",
          "type": "uint8"
        }
      ],
      "name": "OpenPollForVote",
      "type": "event"
    },
    {
      "anonymous": false,
      "inputs": [
        {
          "indexed": true,
          "internalType": "address",
          "name": "previousOwner",
          "type": "address"
        },
        {
          "indexed": true,
          "internalType": "address",
          "name": "newOwner",
          "type": "address"
        }
      ],
      "name": "OwnershipTransferred",
      "type": "event"
    },
    {
      "anonymous": false,
      "inputs": [
        {
          "indexed": true,
          "internalType": "uint256",
          "name": "pollId",
          "type": "uint256"
        },
        {
          "indexed": true,
          "internalType": "address",
          "name": "pollOwner",
          "type": "address"
        },
        {
          "indexed": false,
          "internalType": "enum ITaskManager.POLL_STATE",
          "name": "pollState",
          "type": "uint8"
        }
      ],
      "name": "PollInit",
      "type": "event"
    },
    {
      "anonymous": false,
      "inputs": [
        {
          "indexed": true,
          "internalType": "uint256",
          "name": "taskId",
          "type": "uint256"
        },
        {
          "indexed": false,
          "internalType": "uint256",
          "name": "timeReceive",
          "type": "uint256"
        },
        {
          "indexed": true,
          "internalType": "address",
          "name": "doer",
          "type": "address"
        },
        {
          "indexed": false,
          "internalType": "enum ITaskManager.TASK_STATE",
          "name": "taskState",
          "type": "uint8"
        },
        {
          "indexed": false,
          "internalType": "uint256",
          "name": "commitValue",
          "type": "uint256"
        }
      ],
      "name": "ReceiveTask",
      "type": "event"
    },
    {
      "anonymous": false,
      "inputs": [
        {
          "indexed": true,
          "internalType": "uint256",
          "name": "taskId",
          "type": "uint256"
        },
        {
          "indexed": false,
          "internalType": "uint256",
          "name": "percentageDone",
          "type": "uint256"
        },
        {
          "indexed": true,
          "internalType": "address",
          "name": "reviewer",
          "type": "address"
        },
        {
          "indexed": false,
          "internalType": "enum ITaskManager.TASK_STATE",
          "name": "taskState",
          "type": "uint8"
        },
        {
          "indexed": false,
          "internalType": "uint256",
          "name": "timeSubmit",
          "type": "uint256"
        }
      ],
      "name": "SubmitReview",
      "type": "event"
    },
    {
      "anonymous": false,
      "inputs": [
        {
          "indexed": true,
          "internalType": "uint256",
          "name": "taskId",
          "type": "uint256"
        },
        {
          "indexed": false,
          "internalType": "uint256",
          "name": "timeSubmit",
          "type": "uint256"
        },
        {
          "indexed": true,
          "internalType": "address",
          "name": "doer",
          "type": "address"
        },
        {
          "indexed": false,
          "internalType": "enum ITaskManager.TASK_STATE",
          "name": "taskState",
          "type": "uint8"
        }
      ],
      "name": "SubmitTaskResult",
      "type": "event"
    },
    {
      "anonymous": false,
      "inputs": [
        {
          "indexed": false,
          "internalType": "uint256",
          "name": "taskId",
          "type": "uint256"
        },
        {
          "indexed": true,
          "internalType": "uint256",
          "name": "batchTaskId",
          "type": "uint256"
        },
        {
          "indexed": false,
          "internalType": "uint256",
          "name": "point",
          "type": "uint256"
        },
        {
          "indexed": false,
          "internalType": "uint256",
          "name": "reward",
          "type": "uint256"
        },
        {
          "indexed": false,
          "internalType": "uint256",
          "name": "minReward",
          "type": "uint256"
        },
        {
          "indexed": true,
          "internalType": "address",
          "name": "reporter",
          "type": "address"
        },
        {
          "indexed": true,
          "internalType": "address",
          "name": "reviewer",
          "type": "address"
        },
        {
          "indexed": false,
          "internalType": "enum ITaskManager.TASK_STATE",
          "name": "taskState",
          "type": "uint8"
        }
      ],
      "name": "TaskInit",
      "type": "event"
    },
    {
      "anonymous": false,
      "inputs": [
        {
          "indexed": true,
          "internalType": "uint256",
          "name": "taskId",
          "type": "uint256"
        },
        {
          "indexed": false,
          "internalType": "uint256",
          "name": "newPoint",
          "type": "uint256"
        },
        {
          "indexed": true,
          "internalType": "address",
          "name": "updater",
          "type": "address"
        },
        {
          "indexed": false,
          "internalType": "uint256",
          "name": "timeUpdate",
          "type": "uint256"
        }
      ],
      "name": "UpdateTask",
      "type": "event"
    },
    {
      "inputs": [
        {
          "components": [
            {
              "internalType": "uint256",
              "name": "taskId",
              "type": "uint256"
            },
            {
              "internalType": "uint256",
              "name": "point",
              "type": "uint256"
            },
            {
              "internalType": "uint256",
              "name": "reward",
              "type": "uint256"
            },
            {
              "internalType": "uint256",
              "name": "minReward",
              "type": "uint256"
            },
            {
              "internalType": "address",
              "name": "reporter",
              "type": "address"
            },
            {
              "internalType": "address",
              "name": "doer",
              "type": "address"
            },
            {
              "internalType": "address",
              "name": "reviewer",
              "type": "address"
            },
            {
              "internalType": "enum ITaskAuction.TASK_STATE",
              "name": "taskState",
              "type": "uint8"
            },
            {
              "internalType": "uint256",
              "name": "lowestBidAmount",
              "type": "uint256"
            },
            {
              "internalType": "address",
              "name": "lowestBidder",
              "type": "address"
            }
          ],
          "internalType": "struct ITaskAuction.AuctionTask",
          "name": "doneAuctionTask",
          "type": "tuple"
        }
      ],
      "name": "assignTask",
      "outputs": [],
      "stateMutability": "nonpayable",
      "type": "function"
    },
    {
      "inputs": [],
      "name": "bankManager",
      "outputs": [
        {
          "internalType": "contract IBankManager",
          "name": "",
          "type": "address"
        }
      ],
      "stateMutability": "view",
      "type": "function"
    },
    {
      "inputs": [],
      "name": "batchTaskCount",
      "outputs": [
        {
          "internalType": "uint256",
          "name": "",
          "type": "uint256"
        }
      ],
      "stateMutability": "view",
      "type": "function"
    },
    {
      "inputs": [
        {
          "internalType": "uint256",
          "name": "",
          "type": "uint256"
        }
      ],
      "name": "batchTaskIdToBatchTask",
      "outputs": [
        {
          "internalType": "uint256",
          "name": "batchTaskId",
          "type": "uint256"
        },
        {
          "internalType": "enum ITaskManager.BATCH_TASK_STATE",
          "name": "batchTaskState",
          "type": "uint8"
        }
      ],
      "stateMutability": "view",
      "type": "function"
    },
    {
      "inputs": [],
      "name": "batchTaskVoting",
      "outputs": [
        {
          "internalType": "contract IBatchTaskVoting",
          "name": "",
          "type": "address"
        }
      ],
      "stateMutability": "view",
      "type": "function"
    },
    {
      "inputs": [
        {
          "internalType": "uint256",
          "name": "",
          "type": "uint256"
        }
      ],
      "name": "batchTasks",
      "outputs": [
        {
          "internalType": "uint256",
          "name": "batchTaskId",
          "type": "uint256"
        },
        {
          "internalType": "enum ITaskManager.BATCH_TASK_STATE",
          "name": "batchTaskState",
          "type": "uint8"
        }
      ],
      "stateMutability": "view",
      "type": "function"
    },
    {
      "inputs": [
        {
          "internalType": "address",
          "name": "_tokenAddress",
          "type": "address"
        }
      ],
      "name": "chooseToken",
      "outputs": [],
      "stateMutability": "nonpayable",
      "type": "function"
    },
    {
      "inputs": [],
      "name": "creditScore",
      "outputs": [
        {
          "internalType": "contract ICreditScore",
          "name": "",
          "type": "address"
        }
      ],
      "stateMutability": "view",
      "type": "function"
    },
    {
      "inputs": [
        {
          "internalType": "uint256",
          "name": "_pollID",
          "type": "uint256"
        }
      ],
      "name": "getAllBatchTaskByPollID",
      "outputs": [
        {
          "components": [
            {
              "internalType": "uint256",
              "name": "batchTaskId",
              "type": "uint256"
            },
            {
              "internalType": "uint256[]",
              "name": "taskIds",
              "type": "uint256[]"
            },
            {
              "internalType": "enum ITaskManager.BATCH_TASK_STATE",
              "name": "batchTaskState",
              "type": "uint8"
            }
          ],
          "internalType": "struct ITaskManager.BatchTask[]",
          "name": "",
          "type": "tuple[]"
        }
      ],
      "stateMutability": "view",
      "type": "function"
    },
    {
      "inputs": [],
      "name": "getAllPoll",
      "outputs": [
        {
          "components": [
            {
              "internalType": "uint256",
              "name": "pollId",
              "type": "uint256"
            },
            {
              "internalType": "address",
              "name": "pollOwner",
              "type": "address"
            },
            {
              "internalType": "uint256[]",
              "name": "batchTaskIds",
              "type": "uint256[]"
            },
            {
              "internalType": "enum ITaskManager.POLL_STATE",
              "name": "pollState",
              "type": "uint8"
            }
          ],
          "internalType": "struct ITaskManager.Poll[]",
          "name": "",
          "type": "tuple[]"
        }
      ],
      "stateMutability": "view",
      "type": "function"
    },
    {
      "inputs": [
        {
          "internalType": "uint256",
          "name": "_batchTaskId",
          "type": "uint256"
        }
      ],
      "name": "getAllTask",
      "outputs": [
        {
          "components": [
            {
              "internalType": "uint256",
              "name": "taskId",
              "type": "uint256"
            },
            {
              "internalType": "uint256",
              "name": "point",
              "type": "uint256"
            },
            {
              "internalType": "uint256",
              "name": "reward",
              "type": "uint256"
            },
            {
              "internalType": "uint256",
              "name": "minReward",
              "type": "uint256"
            },
            {
              "internalType": "address",
              "name": "reporter",
              "type": "address"
            },
            {
              "internalType": "address",
              "name": "doer",
              "type": "address"
            },
            {
              "internalType": "address",
              "name": "reviewer",
              "type": "address"
            },
            {
              "internalType": "uint256",
              "name": "timeDoerReceive",
              "type": "uint256"
            },
            {
              "internalType": "enum ITaskManager.TASK_STATE",
              "name": "taskState",
              "type": "uint8"
            }
          ],
          "internalType": "struct ITaskManager.Task[]",
          "name": "",
          "type": "tuple[]"
        }
      ],
      "stateMutability": "view",
      "type": "function"
    },
    {
      "inputs": [
        {
          "internalType": "uint256",
          "name": "_pollId",
          "type": "uint256"
        }
      ],
      "name": "initBatchTask",
      "outputs": [],
      "stateMutability": "nonpayable",
      "type": "function"
    },
    {
      "inputs": [
        {
          "internalType": "uint256",
          "name": "_batchTaskId",
          "type": "uint256"
        }
      ],
      "name": "initBatchTaskAuction",
      "outputs": [],
      "stateMutability": "nonpayable",
      "type": "function"
    },
    {
      "inputs": [
        {
          "internalType": "address",
          "name": "_pollOwner",
          "type": "address"
        }
      ],
      "name": "initPoll",
      "outputs": [],
      "stateMutability": "nonpayable",
      "type": "function"
    },
    {
      "inputs": [
        {
          "internalType": "uint256",
          "name": "_batchTaskId",
          "type": "uint256"
        },
        {
          "internalType": "uint256",
          "name": "_point",
          "type": "uint256"
        },
        {
          "internalType": "uint256",
          "name": "_reward",
          "type": "uint256"
        },
        {
          "internalType": "uint256",
          "name": "_minReward",
          "type": "uint256"
        },
        {
          "internalType": "address",
          "name": "_reporter",
          "type": "address"
        },
        {
          "internalType": "address",
          "name": "_reviewer",
          "type": "address"
        }
      ],
      "name": "initTask",
      "outputs": [],
      "stateMutability": "nonpayable",
      "type": "function"
    },
    {
      "inputs": [
        {
          "internalType": "uint256",
          "name": "_pollID",
          "type": "uint256"
        },
        {
          "internalType": "uint256",
          "name": "_batchTaskID",
          "type": "uint256"
        },
        {
          "internalType": "uint256",
          "name": "_auctionDuration",
          "type": "uint256"
        }
      ],
      "name": "openBatchTaskForAuction",
      "outputs": [],
      "stateMutability": "nonpayable",
      "type": "function"
    },
    {
      "inputs": [
        {
          "internalType": "uint256",
          "name": "_pollId",
          "type": "uint256"
        },
        {
          "internalType": "uint256",
          "name": "_voteDuration",
          "type": "uint256"
        }
      ],
      "name": "openPollForVote",
      "outputs": [],
      "stateMutability": "nonpayable",
      "type": "function"
    },
    {
      "inputs": [],
      "name": "owner",
      "outputs": [
        {
          "internalType": "address",
          "name": "",
          "type": "address"
        }
      ],
      "stateMutability": "view",
      "type": "function"
    },
    {
      "inputs": [],
      "name": "pollCount",
      "outputs": [
        {
          "internalType": "uint256",
          "name": "",
          "type": "uint256"
        }
      ],
      "stateMutability": "view",
      "type": "function"
    },
    {
      "inputs": [
        {
          "internalType": "uint256",
          "name": "",
          "type": "uint256"
        }
      ],
      "name": "pollIdToPoll",
      "outputs": [
        {
          "internalType": "uint256",
          "name": "pollId",
          "type": "uint256"
        },
        {
          "internalType": "address",
          "name": "pollOwner",
          "type": "address"
        },
        {
          "internalType": "enum ITaskManager.POLL_STATE",
          "name": "pollState",
          "type": "uint8"
        }
      ],
      "stateMutability": "view",
      "type": "function"
    },
    {
      "inputs": [
        {
          "internalType": "uint256",
          "name": "",
          "type": "uint256"
        }
      ],
      "name": "polls",
      "outputs": [
        {
          "internalType": "uint256",
          "name": "pollId",
          "type": "uint256"
        },
        {
          "internalType": "address",
          "name": "pollOwner",
          "type": "address"
        },
        {
          "internalType": "enum ITaskManager.POLL_STATE",
          "name": "pollState",
          "type": "uint8"
        }
      ],
      "stateMutability": "view",
      "type": "function"
    },
    {
      "inputs": [
        {
          "internalType": "uint256",
          "name": "_taskId",
          "type": "uint256"
        },
        {
          "internalType": "uint256",
          "name": "_commitValue",
          "type": "uint256"
        }
      ],
      "name": "receiveTask",
      "outputs": [],
      "stateMutability": "nonpayable",
      "type": "function"
    },
    {
      "inputs": [],
      "name": "renounceOwnership",
      "outputs": [],
      "stateMutability": "nonpayable",
      "type": "function"
    },
    {
      "inputs": [
        {
          "internalType": "address",
          "name": "_bankManagerAddress",
          "type": "address"
        }
      ],
      "name": "setBankManager",
      "outputs": [],
      "stateMutability": "nonpayable",
      "type": "function"
    },
    {
      "inputs": [
        {
          "internalType": "address",
          "name": "_batchTaskVotingAddress",
          "type": "address"
        }
      ],
      "name": "setBatchTaskVoting",
      "outputs": [],
      "stateMutability": "nonpayable",
      "type": "function"
    },
    {
      "inputs": [
        {
          "internalType": "address",
          "name": "_creditScoreAddress",
          "type": "address"
        }
      ],
      "name": "setCreditScore",
      "outputs": [],
      "stateMutability": "nonpayable",
      "type": "function"
    },
    {
      "inputs": [
        {
          "internalType": "address",
          "name": "_taskAuctionAddress",
          "type": "address"
        }
      ],
      "name": "setTaskAuction",
      "outputs": [],
      "stateMutability": "nonpayable",
      "type": "function"
    },
    {
      "inputs": [
        {
          "internalType": "uint256",
          "name": "_taskId",
          "type": "uint256"
        },
        {
          "internalType": "uint256",
          "name": "percentageDone",
          "type": "uint256"
        }
      ],
      "name": "submitReview",
      "outputs": [],
      "stateMutability": "nonpayable",
      "type": "function"
    },
    {
      "inputs": [
        {
          "internalType": "uint256",
          "name": "_taskId",
          "type": "uint256"
        }
      ],
      "name": "submitTaskResult",
      "outputs": [],
      "stateMutability": "nonpayable",
      "type": "function"
    },
    {
      "inputs": [],
      "name": "taskAuction",
      "outputs": [
        {
          "internalType": "contract ITaskAuction",
          "name": "",
          "type": "address"
        }
      ],
      "stateMutability": "view",
      "type": "function"
    },
    {
      "inputs": [],
      "name": "taskCount",
      "outputs": [
        {
          "internalType": "uint256",
          "name": "",
          "type": "uint256"
        }
      ],
      "stateMutability": "view",
      "type": "function"
    },
    {
      "inputs": [
        {
          "internalType": "uint256",
          "name": "",
          "type": "uint256"
        }
      ],
      "name": "taskIdToTask",
      "outputs": [
        {
          "internalType": "uint256",
          "name": "taskId",
          "type": "uint256"
        },
        {
          "internalType": "uint256",
          "name": "point",
          "type": "uint256"
        },
        {
          "internalType": "uint256",
          "name": "reward",
          "type": "uint256"
        },
        {
          "internalType": "uint256",
          "name": "minReward",
          "type": "uint256"
        },
        {
          "internalType": "address",
          "name": "reporter",
          "type": "address"
        },
        {
          "internalType": "address",
          "name": "doer",
          "type": "address"
        },
        {
          "internalType": "address",
          "name": "reviewer",
          "type": "address"
        },
        {
          "internalType": "uint256",
          "name": "timeDoerReceive",
          "type": "uint256"
        },
        {
          "internalType": "enum ITaskManager.TASK_STATE",
          "name": "taskState",
          "type": "uint8"
        }
      ],
      "stateMutability": "view",
      "type": "function"
    },
    {
      "inputs": [
        {
          "internalType": "uint256",
          "name": "",
          "type": "uint256"
        }
      ],
      "name": "tasks",
      "outputs": [
        {
          "internalType": "uint256",
          "name": "taskId",
          "type": "uint256"
        },
        {
          "internalType": "uint256",
          "name": "point",
          "type": "uint256"
        },
        {
          "internalType": "uint256",
          "name": "reward",
          "type": "uint256"
        },
        {
          "internalType": "uint256",
          "name": "minReward",
          "type": "uint256"
        },
        {
          "internalType": "address",
          "name": "reporter",
          "type": "address"
        },
        {
          "internalType": "address",
          "name": "doer",
          "type": "address"
        },
        {
          "internalType": "address",
          "name": "reviewer",
          "type": "address"
        },
        {
          "internalType": "uint256",
          "name": "timeDoerReceive",
          "type": "uint256"
        },
        {
          "internalType": "enum ITaskManager.TASK_STATE",
          "name": "taskState",
          "type": "uint8"
        }
      ],
      "stateMutability": "view",
      "type": "function"
    },
    {
      "inputs": [],
      "name": "tokenAddress",
      "outputs": [
        {
          "internalType": "address",
          "name": "",
          "type": "address"
        }
      ],
      "stateMutability": "view",
      "type": "function"
    },
    {
      "inputs": [
        {
          "internalType": "address",
          "name": "newOwner",
          "type": "address"
        }
      ],
      "name": "transferOwnership",
      "outputs": [],
      "stateMutability": "nonpayable",
      "type": "function"
    },
    {
      "inputs": [
        {
          "internalType": "uint256",
          "name": "_taskId",
          "type": "uint256"
        },
        {
          "internalType": "uint256",
          "name": "_newPoint",
          "type": "uint256"
        }
      ],
      "name": "updateTask",
      "outputs": [],
      "stateMutability": "nonpayable",
      "type": "function"
    }
  ],
  "bytecode": "0x60806040523480156200001157600080fd5b5062000032620000266200003860201b60201c565b6200004060201b60201c565b62000104565b600033905090565b60008060009054906101000a900473ffffffffffffffffffffffffffffffffffffffff169050816000806101000a81548173ffffffffffffffffffffffffffffffffffffffff021916908373ffffffffffffffffffffffffffffffffffffffff1602179055508173ffffffffffffffffffffffffffffffffffffffff168173ffffffffffffffffffffffffffffffffffffffff167f8be0079c531659141344cd1fd0a4f28419497f9722a3daafe3b4186f6b6457e060405160405180910390a35050565b6155d180620001146000396000f3fe608060405234801561001057600080fd5b506004361061021c5760003560e01c806385a20cf911610125578063b6cb58a5116100ad578063e9e2990e1161007c578063e9e2990e14610611578063f2fde38b1461062f578063f535d1171461064b578063f81f627d1461067c578063fd3a5451146106ad5761021c565b8063b6cb58a514610589578063c709c1f1146105a7578063dbe2728e146105c5578063e64f01b9146105f55761021c565b80639207891d116100f45780639207891d146104e15780639844f215146104ff5780639acea8d31461051d5780639d76ea5814610539578063ac2f0074146105575761021c565b806385a20cf91461044f5780638d93fc0a1461046d5780638d9776721461048b5780638da5cb5b146104c35761021c565b806368e12342116101a8578063715018a611610177578063715018a6146103c1578063785faee4146103cb578063793a4bbd146103e75780637a9b6ef7146104035780637fb732211461041f5761021c565b806368e12342146103355780636c03c7a9146103515780636edbe3a3146103895780636f2a4068146103a55761021c565b806334d819d5116101ef57806334d819d5146102a757806339da3152146102c357806342b200ba146102e1578063435fa77c146102fd57806348fb1f01146103195761021c565b806304655aa3146102215780631861b90c1461023d5780632425795a146102595780632ed64cbc1461028b575b600080fd5b61023b600480360381019061023691906139d8565b6106c9565b005b61025760048036038101906102529190613a18565b610bc6565b005b610273600480360381019061026e9190613a18565b610e45565b60405161028293929190613b0c565b60405180910390f35b6102a560048036038101906102a091906139d8565b610e9c565b005b6102c160048036038101906102bc9190613b43565b611271565b005b6102cb611754565b6040516102d89190613bf5565b60405180910390f35b6102fb60048036038101906102f69190613c3c565b61177a565b005b61031760048036038101906103129190613c3c565b6117c6565b005b610333600480360381019061032e91906139d8565b611812565b005b61034f600480360381019061034a9190613c3c565b611b0f565b005b61036b60048036038101906103669190613a18565b611b5b565b60405161038099989796959493929190613cb1565b60405180910390f35b6103a3600480360381019061039e9190613d3e565b611c16565b005b6103bf60048036038101906103ba9190613a18565b612043565b005b6103c9612261565b005b6103e560048036038101906103e09190613c3c565b612275565b005b61040160048036038101906103fc91906139d8565b612552565b005b61041d60048036038101906104189190613c3c565b6129cf565b005b61043960048036038101906104349190613a18565b612a1b565b6040516104469190613f5f565b60405180910390f35b610457612cad565b6040516104649190613f81565b60405180910390f35b610475612cb3565b6040516104829190613fbd565b60405180910390f35b6104a560048036038101906104a09190613a18565b612cd9565b6040516104ba99989796959493929190613cb1565b60405180910390f35b6104cb612da4565b6040516104d89190613fd8565b60405180910390f35b6104e9612dcd565b6040516104f69190613f81565b60405180910390f35b610507612dd3565b60405161051491906141d6565b60405180910390f35b61053760048036038101906105329190613a18565b612f92565b005b610541613064565b60405161054e9190613fd8565b60405180910390f35b610571600480360381019061056c9190613a18565b61308a565b60405161058093929190613b0c565b60405180910390f35b6105916130f1565b60405161059e9190613f81565b60405180910390f35b6105af6130f7565b6040516105bc9190614219565b60405180910390f35b6105df60048036038101906105da9190613a18565b61311d565b6040516105ec919061438e565b60405180910390f35b61060f600480360381019061060a919061455c565b6132dc565b005b610619613490565b60405161062691906145ab565b60405180910390f35b61064960048036038101906106449190613c3c565b6134b6565b005b61066560048036038101906106609190613a18565b613539565b6040516106739291906145d5565b60405180910390f35b61069660048036038101906106919190613a18565b61357a565b6040516106a49291906145d5565b60405180910390f35b6106c760048036038101906106c29190613c3c565b6135ab565b005b6001828160058111156106df576106de613a95565b5b600c600083815260200190815260200160002060080160009054906101000a900460ff16600581111561071557610714613a95565b5b14610755576040517f08c379a000000000000000000000000000000000000000000000000000000000815260040161074c9061465b565b60405180910390fd5b600c600085815260200190815260200160002060050160009054906101000a900473ffffffffffffffffffffffffffffffffffffffff1673ffffffffffffffffffffffffffffffffffffffff163373ffffffffffffffffffffffffffffffffffffffff16146107f9576040517f08c379a00000000000000000000000000000000000000000000000000000000081526004016107f0906146c7565b60405180910390fd5b83600c60008681526020019081526020016000206000015414610851576040517f08c379a000000000000000000000000000000000000000000000000000000000815260040161084890614733565b60405180910390fd5b6000600360009054906101000a900473ffffffffffffffffffffffffffffffffffffffff1673ffffffffffffffffffffffffffffffffffffffff16635ebf340e336040518263ffffffff1660e01b81526004016108ae9190613fd8565b6020604051808303816000875af11580156108cd573d6000803e3d6000fd5b505050506040513d601f19601f820116820180604052508101906108f19190614768565b905083600460009054906101000a900473ffffffffffffffffffffffffffffffffffffffff1673ffffffffffffffffffffffffffffffffffffffff1663f7888aec33600560009054906101000a900473ffffffffffffffffffffffffffffffffffffffff166040518363ffffffff1660e01b8152600401610973929190614795565b6020604051808303816000875af1158015610992573d6000803e3d6000fd5b505050506040513d601f19601f820116820180604052508101906109b69190614768565b10156109f7576040517f08c379a00000000000000000000000000000000000000000000000000000000081526004016109ee9061480a565b60405180910390fd5b80841015610a3a576040517f08c379a0000000000000000000000000000000000000000000000000000000008152600401610a319061489c565b60405180910390fd5b600460009054906101000a900473ffffffffffffffffffffffffffffffffffffffff1673ffffffffffffffffffffffffffffffffffffffff1663f18d03cc33600560009054906101000a900473ffffffffffffffffffffffffffffffffffffffff16600460009054906101000a900473ffffffffffffffffffffffffffffffffffffffff16886040518563ffffffff1660e01b8152600401610adf94939291906148bc565b600060405180830381600087803b158015610af957600080fd5b505af1158015610b0d573d6000803e3d6000fd5b505050506003600c600087815260200190815260200160002060080160006101000a81548160ff02191690836005811115610b4b57610b4a613a95565b5b021790555042600c6000878152602001908152602001600020600701819055503373ffffffffffffffffffffffffffffffffffffffff16857f6dea5495da67ec795242dd1153bfe9e2d4f8e7b0b8ed23e8ea87117243698f4142600388604051610bb793929190614901565b60405180910390a35050505050565b600081600073ffffffffffffffffffffffffffffffffffffffff16600d600083815260200190815260200160002060010160009054906101000a900473ffffffffffffffffffffffffffffffffffffffff1673ffffffffffffffffffffffffffffffffffffffff1603610c6e576040517f08c379a0000000000000000000000000000000000000000000000000000000008152600401610c6590614984565b60405180910390fd5b816002811115610c8157610c80613a95565b5b600d600083815260200190815260200160002060030160009054906101000a900460ff166002811115610cb757610cb6613a95565b5b14610cf7576040517f08c379a0000000000000000000000000000000000000000000000000000000008152600401610cee906149f0565b60405180910390fd5b610cff613806565b60076000815480929190610d1290614a3f565b9190505550600754816000018181525050600081604001906003811115610d3c57610d3b613a95565b5b90816003811115610d5057610d4f613a95565b5b8152505080600e60006007548152602001908152602001600020600082015181600001556020820151816001019080519060200190610d90929190613839565b5060408201518160020160006101000a81548160ff02191690836003811115610dbc57610dbb613a95565b5b0217905550905050600d60008581526020019081526020016000206002016007549080600181540180825580915050600190039060005260206000200160009091909190915055836007547f052d58841974a9fb2d33ae2d55c1a7a5a100b612c792773478c1f897e123c6246000604051610e379190614a87565b60405180910390a350505050565b600d6020528060005260406000206000915090508060000154908060010160009054906101000a900473ffffffffffffffffffffffffffffffffffffffff16908060030160009054906101000a900460ff16905083565b600082600073ffffffffffffffffffffffffffffffffffffffff16600d600083815260200190815260200160002060010160009054906101000a900473ffffffffffffffffffffffffffffffffffffffff1673ffffffffffffffffffffffffffffffffffffffff1603610f44576040517f08c379a0000000000000000000000000000000000000000000000000000000008152600401610f3b90614984565b60405180910390fd5b816002811115610f5757610f56613a95565b5b600d600083815260200190815260200160002060030160009054906101000a900460ff166002811115610f8d57610f8c613a95565b5b14610fcd576040517f08c379a0000000000000000000000000000000000000000000000000000000008152600401610fc4906149f0565b60405180910390fd5b600d600085815260200190815260200160002060010160009054906101000a900473ffffffffffffffffffffffffffffffffffffffff1673ffffffffffffffffffffffffffffffffffffffff163373ffffffffffffffffffffffffffffffffffffffff1614611071576040517f08c379a000000000000000000000000000000000000000000000000000000000815260040161106890614aee565b60405180910390fd5b600083116110b4576040517f08c379a00000000000000000000000000000000000000000000000000000000081526004016110ab90614b5a565b60405180910390fd5b6001600d60008681526020019081526020016000206002018054905011611110576040517f08c379a000000000000000000000000000000000000000000000000000000000815260040161110790614bec565b60405180910390fd5b6001600d600086815260200190815260200160002060030160006101000a81548160ff0219169083600281111561114a57611149613a95565b5b0217905550600260009054906101000a900473ffffffffffffffffffffffffffffffffffffffff1673ffffffffffffffffffffffffffffffffffffffff1663b1ed87de8585600d60008981526020019081526020016000206002016040518463ffffffff1660e01b81526004016111c393929190614cf3565b600060405180830381600087803b1580156111dd57600080fd5b505af11580156111f1573d6000803e3d6000fd5b505050503373ffffffffffffffffffffffffffffffffffffffff16847f3c8b8b4a3858f4fc2413b52ff2a6744af5c45313454e7e567fbf59b1cf1235a98542600d60008a815260200190815260200160002060030160009054906101000a900460ff1660405161126393929190614d31565b60405180910390a350505050565b6001600d600085815260200190815260200160002060020180549050036112d2576001600e600084815260200190815260200160002060020160006101000a81548160ff021916908360038111156112cc576112cb613a95565b5b02179055505b600160038111156112e6576112e5613a95565b5b600e600084815260200190815260200160002060020160009054906101000a900460ff16600381111561131c5761131b613a95565b5b1461135c576040517f08c379a000000000000000000000000000000000000000000000000000000000815260040161135390614db4565b60405180910390fd5b6002600e600084815260200190815260200160002060020160006101000a81548160ff0219169083600381111561139657611395613a95565b5b02179055506000600e600084815260200190815260200160002060010180549050116113f7576040517f08c379a00000000000000000000000000000000000000000000000000000000081526004016113ee90614e46565b60405180910390fd5b6000600e60008481526020019081526020016000206001018054905067ffffffffffffffff81111561142c5761142b6143c6565b5b60405190808252806020026020018201604052801561146557816020015b611452613886565b81526020019060019003908161144a5790505b50905060005b600e60008581526020019081526020016000206001018054905081101561167d57600c6000600e600087815260200190815260200160002060010183815481106114b8576114b7614e66565b5b9060005260206000200154815260200190815260200160002060405180610120016040529081600082015481526020016001820154815260200160028201548152602001600382015481526020016004820160009054906101000a900473ffffffffffffffffffffffffffffffffffffffff1673ffffffffffffffffffffffffffffffffffffffff1673ffffffffffffffffffffffffffffffffffffffff1681526020016005820160009054906101000a900473ffffffffffffffffffffffffffffffffffffffff1673ffffffffffffffffffffffffffffffffffffffff1673ffffffffffffffffffffffffffffffffffffffff1681526020016006820160009054906101000a900473ffffffffffffffffffffffffffffffffffffffff1673ffffffffffffffffffffffffffffffffffffffff1673ffffffffffffffffffffffffffffffffffffffff168152602001600782015481526020016008820160009054906101000a900460ff16600581111561163657611635613a95565b5b600581111561164857611647613a95565b5b8152505082828151811061165f5761165e614e66565b5b6020026020010181905250808061167590614a3f565b91505061146b565b50600160009054906101000a900473ffffffffffffffffffffffffffffffffffffffff1673ffffffffffffffffffffffffffffffffffffffff16633d7469d2858386866040518563ffffffff1660e01b81526004016116df9493929190614e95565b600060405180830381600087803b1580156116f957600080fd5b505af115801561170d573d6000803e3d6000fd5b50505050827fa8bea390d9982d0ee49859be0a341988f8924ac0fff7e4c1c86637095d7e21548342600260405161174693929190614ee1565b60405180910390a250505050565b600360009054906101000a900473ffffffffffffffffffffffffffffffffffffffff1681565b6117826135f7565b80600560006101000a81548173ffffffffffffffffffffffffffffffffffffffff021916908373ffffffffffffffffffffffffffffffffffffffff16021790555050565b6117ce6135f7565b80600360006101000a81548173ffffffffffffffffffffffffffffffffffffffff021916908373ffffffffffffffffffffffffffffffffffffffff16021790555050565b60038281600581111561182857611827613a95565b5b600c600083815260200190815260200160002060080160009054906101000a900460ff16600581111561185e5761185d613a95565b5b1461189e576040517f08c379a00000000000000000000000000000000000000000000000000000000081526004016118959061465b565b60405180910390fd5b600c600085815260200190815260200160002060060160009054906101000a900473ffffffffffffffffffffffffffffffffffffffff1673ffffffffffffffffffffffffffffffffffffffff163373ffffffffffffffffffffffffffffffffffffffff16148061196f5750600c600085815260200190815260200160002060050160009054906101000a900473ffffffffffffffffffffffffffffffffffffffff1673ffffffffffffffffffffffffffffffffffffffff163373ffffffffffffffffffffffffffffffffffffffff16145b6119ae576040517f08c379a00000000000000000000000000000000000000000000000000000000081526004016119a590614f64565b60405180910390fd5b600c600085815260200190815260200160002060060160009054906101000a900473ffffffffffffffffffffffffffffffffffffffff1673ffffffffffffffffffffffffffffffffffffffff163373ffffffffffffffffffffffffffffffffffffffff1603611a335782600c6000868152602001908152602001600020600101819055505b600c600085815260200190815260200160002060050160009054906101000a900473ffffffffffffffffffffffffffffffffffffffff1673ffffffffffffffffffffffffffffffffffffffff163373ffffffffffffffffffffffffffffffffffffffff1603611ab85782600c6000868152602001908152602001600020600101819055505b3373ffffffffffffffffffffffffffffffffffffffff16847f5b229384b7df9a4eed61352626b300c5ade2b6900738b23d481b01dd6532bed88542604051611b01929190614f84565b60405180910390a350505050565b611b176135f7565b80600160006101000a81548173ffffffffffffffffffffffffffffffffffffffff021916908373ffffffffffffffffffffffffffffffffffffffff16021790555050565b600c6020528060005260406000206000915090508060000154908060010154908060020154908060030154908060040160009054906101000a900473ffffffffffffffffffffffffffffffffffffffff16908060050160009054906101000a900473ffffffffffffffffffffffffffffffffffffffff16908060060160009054906101000a900473ffffffffffffffffffffffffffffffffffffffff16908060070154908060080160009054906101000a900460ff16905089565b600086816003811115611c2c57611c2b613a95565b5b600e600083815260200190815260200160002060020160009054906101000a900460ff166003811115611c6257611c61613a95565b5b14611ca2576040517f08c379a0000000000000000000000000000000000000000000000000000000008152600401611c9990614db4565b60405180910390fd5b600073ffffffffffffffffffffffffffffffffffffffff168473ffffffffffffffffffffffffffffffffffffffff1614158015611d0c5750600073ffffffffffffffffffffffffffffffffffffffff168373ffffffffffffffffffffffffffffffffffffffff1614155b611d4b576040517f08c379a0000000000000000000000000000000000000000000000000000000008152600401611d429061501f565b60405180910390fd5b611d53613886565b60086000815480929190611d6690614a3f565b919050555060085481600001818152505087816020018181525050868160400181815250508581606001818152505084816080019073ffffffffffffffffffffffffffffffffffffffff16908173ffffffffffffffffffffffffffffffffffffffff1681525050838160c0019073ffffffffffffffffffffffffffffffffffffffff16908173ffffffffffffffffffffffffffffffffffffffff168152505060008161010001906005811115611e1f57611e1e613a95565b5b90816005811115611e3357611e32613a95565b5b81525050600e60008a8152602001908152602001600020600101600854908060018154018082558091505060019003906000526020600020016000909190919091505580600c600060085481526020019081526020016000206000820151816000015560208201518160010155604082015181600201556060820151816003015560808201518160040160006101000a81548173ffffffffffffffffffffffffffffffffffffffff021916908373ffffffffffffffffffffffffffffffffffffffff16021790555060a08201518160050160006101000a81548173ffffffffffffffffffffffffffffffffffffffff021916908373ffffffffffffffffffffffffffffffffffffffff16021790555060c08201518160060160006101000a81548173ffffffffffffffffffffffffffffffffffffffff021916908373ffffffffffffffffffffffffffffffffffffffff16021790555060e082015181600701556101008201518160080160006101000a81548160ff02191690836005811115611fbf57611fbe613a95565b5b02179055509050508373ffffffffffffffffffffffffffffffffffffffff168573ffffffffffffffffffffffffffffffffffffffff168a7f3c5215ce77d10b70bf61356a248d964111923ae20588d36bd4b877d26827b8866008548c8c8c600060405161203095949392919061503f565b60405180910390a4505050505050505050565b60038181600581111561205957612058613a95565b5b600c600083815260200190815260200160002060080160009054906101000a900460ff16600581111561208f5761208e613a95565b5b146120cf576040517f08c379a00000000000000000000000000000000000000000000000000000000081526004016120c69061465b565b60405180910390fd5b82600c60008581526020019081526020016000206000015414612127576040517f08c379a000000000000000000000000000000000000000000000000000000000815260040161211e90614733565b60405180910390fd5b600c600084815260200190815260200160002060050160009054906101000a900473ffffffffffffffffffffffffffffffffffffffff1673ffffffffffffffffffffffffffffffffffffffff163373ffffffffffffffffffffffffffffffffffffffff16146121cb576040517f08c379a00000000000000000000000000000000000000000000000000000000081526004016121c2906146c7565b60405180910390fd5b6004600c600085815260200190815260200160002060080160006101000a81548160ff0219169083600581111561220557612204613a95565b5b02179055503373ffffffffffffffffffffffffffffffffffffffff16837f4a6651a8a4523ecdd2253c608b6eb24b0341e55899d82ec0a7196fb1ab3e0925426004604051612254929190615092565b60405180910390a3505050565b6122696135f7565b6122736000613675565b565b600073ffffffffffffffffffffffffffffffffffffffff168173ffffffffffffffffffffffffffffffffffffffff16036122e4576040517f08c379a00000000000000000000000000000000000000000000000000000000081526004016122db90615107565b60405180910390fd5b6122ec613926565b600660008154809291906122ff90614a3f565b919050555060065481600001818152505081816020019073ffffffffffffffffffffffffffffffffffffffff16908173ffffffffffffffffffffffffffffffffffffffff168152505060008160600190600281111561236157612360613a95565b5b9081600281111561237557612374613a95565b5b8152505080600d600060065481526020019081526020016000206000820151816000015560208201518160010160006101000a81548173ffffffffffffffffffffffffffffffffffffffff021916908373ffffffffffffffffffffffffffffffffffffffff16021790555060408201518160020190805190602001906123fc929190613839565b5060608201518160030160006101000a81548160ff0219169083600281111561242857612427613a95565b5b0217905550905050600a8190806001815401808255809150506001900390600052602060002090600402016000909190919091506000820151816000015560208201518160010160006101000a81548173ffffffffffffffffffffffffffffffffffffffff021916908373ffffffffffffffffffffffffffffffffffffffff16021790555060408201518160020190805190602001906124c9929190613839565b5060608201518160030160006101000a81548160ff021916908360028111156124f5576124f4613a95565b5b021790555050508173ffffffffffffffffffffffffffffffffffffffff166006547f4f4f87b2b948be42035cc086b1a4727e5d8169af7efcfc2bd87db90e295b0fb460006040516125469190615127565b60405180910390a35050565b60048281600581111561256857612567613a95565b5b600c600083815260200190815260200160002060080160009054906101000a900460ff16600581111561259e5761259d613a95565b5b146125de576040517f08c379a00000000000000000000000000000000000000000000000000000000081526004016125d59061465b565b60405180910390fd5b600c600085815260200190815260200160002060060160009054906101000a900473ffffffffffffffffffffffffffffffffffffffff1673ffffffffffffffffffffffffffffffffffffffff163373ffffffffffffffffffffffffffffffffffffffff1614612682576040517f08c379a00000000000000000000000000000000000000000000000000000000081526004016126799061518e565b60405180910390fd5b83600c600086815260200190815260200160002060000154146126da576040517f08c379a00000000000000000000000000000000000000000000000000000000081526004016126d1906151fa565b60405180910390fd5b61272f6040518060400160405280600681526020017f7265776172640000000000000000000000000000000000000000000000000000815250600c600087815260200190815260200160002060020154613739565b6000606484600c600088815260200190815260200160002060020154612755919061521a565b61275f919061528b565b9050600460009054906101000a900473ffffffffffffffffffffffffffffffffffffffff1673ffffffffffffffffffffffffffffffffffffffff1663f18d03cc600460009054906101000a900473ffffffffffffffffffffffffffffffffffffffff16600560009054906101000a900473ffffffffffffffffffffffffffffffffffffffff16600c60008a815260200190815260200160002060050160009054906101000a900473ffffffffffffffffffffffffffffffffffffffff16856040518563ffffffff1660e01b815260040161283c94939291906148bc565b600060405180830381600087803b15801561285657600080fd5b505af115801561286a573d6000803e3d6000fd5b50505050600360009054906101000a900473ffffffffffffffffffffffffffffffffffffffff1673ffffffffffffffffffffffffffffffffffffffff16635873074686600c600089815260200190815260200160002060050160009054906101000a900473ffffffffffffffffffffffffffffffffffffffff16876040518463ffffffff1660e01b8152600401612903939291906152bc565b600060405180830381600087803b15801561291d57600080fd5b505af1158015612931573d6000803e3d6000fd5b505050506005600c600087815260200190815260200160002060080160006101000a81548160ff0219169083600581111561296f5761296e613a95565b5b02179055503373ffffffffffffffffffffffffffffffffffffffff16857f59740400b1e66dd4640c547de08c4922a69ed5384ebd7e670c7cd49dbf2f4e70866005426040516129c093929190614901565b60405180910390a35050505050565b6129d76135f7565b80600460006101000a81548173ffffffffffffffffffffffffffffffffffffffff021916908373ffffffffffffffffffffffffffffffffffffffff16021790555050565b60606000600e60008481526020019081526020016000206001018054905067ffffffffffffffff811115612a5257612a516143c6565b5b604051908082528060200260200182016040528015612a8b57816020015b612a78613886565b815260200190600190039081612a705790505b50905060005b600e600085815260200190815260200160002060010180549050811015612ca357600c6000600e60008781526020019081526020016000206001018381548110612ade57612add614e66565b5b9060005260206000200154815260200190815260200160002060405180610120016040529081600082015481526020016001820154815260200160028201548152602001600382015481526020016004820160009054906101000a900473ffffffffffffffffffffffffffffffffffffffff1673ffffffffffffffffffffffffffffffffffffffff1673ffffffffffffffffffffffffffffffffffffffff1681526020016005820160009054906101000a900473ffffffffffffffffffffffffffffffffffffffff1673ffffffffffffffffffffffffffffffffffffffff1673ffffffffffffffffffffffffffffffffffffffff1681526020016006820160009054906101000a900473ffffffffffffffffffffffffffffffffffffffff1673ffffffffffffffffffffffffffffffffffffffff1673ffffffffffffffffffffffffffffffffffffffff168152602001600782015481526020016008820160009054906101000a900460ff166005811115612c5c57612c5b613a95565b5b6005811115612c6e57612c6d613a95565b5b81525050828281518110612c8557612c84614e66565b5b60200260200101819052508080612c9b90614a3f565b915050612a91565b5080915050919050565b60075481565b600160009054906101000a900473ffffffffffffffffffffffffffffffffffffffff1681565b60098181548110612ce957600080fd5b90600052602060002090600902016000915090508060000154908060010154908060020154908060030154908060040160009054906101000a900473ffffffffffffffffffffffffffffffffffffffff16908060050160009054906101000a900473ffffffffffffffffffffffffffffffffffffffff16908060060160009054906101000a900473ffffffffffffffffffffffffffffffffffffffff16908060070154908060080160009054906101000a900460ff16905089565b60008060009054906101000a900473ffffffffffffffffffffffffffffffffffffffff16905090565b60065481565b6060600060065467ffffffffffffffff811115612df357612df26143c6565b5b604051908082528060200260200182016040528015612e2c57816020015b612e19613926565b815260200190600190039081612e115790505b50905060005b600654811015612f8a57600d6000600183612e4d91906152f3565b8152602001908152602001600020604051806080016040529081600082015481526020016001820160009054906101000a900473ffffffffffffffffffffffffffffffffffffffff1673ffffffffffffffffffffffffffffffffffffffff1673ffffffffffffffffffffffffffffffffffffffff16815260200160028201805480602002602001604051908101604052809291908181526020018280548015612f1557602002820191906000526020600020905b815481526020019060010190808311612f01575b505050505081526020016003820160009054906101000a900460ff166002811115612f4357612f42613a95565b5b6002811115612f5557612f54613a95565b5b81525050828281518110612f6c57612f6b614e66565b5b60200260200101819052508080612f8290614a3f565b915050612e32565b508091505090565b600260009054906101000a900473ffffffffffffffffffffffffffffffffffffffff1673ffffffffffffffffffffffffffffffffffffffff163373ffffffffffffffffffffffffffffffffffffffff1614613022576040517f08c379a000000000000000000000000000000000000000000000000000000000815260040161301990615373565b60405180910390fd5b6001600e600083815260200190815260200160002060020160006101000a81548160ff0219169083600381111561305c5761305b613a95565b5b021790555050565b600560009054906101000a900473ffffffffffffffffffffffffffffffffffffffff1681565b600a818154811061309a57600080fd5b90600052602060002090600402016000915090508060000154908060010160009054906101000a900473ffffffffffffffffffffffffffffffffffffffff16908060030160009054906101000a900460ff16905083565b60085481565b600260009054906101000a900473ffffffffffffffffffffffffffffffffffffffff1681565b60606000600d60008481526020019081526020016000206002018054905067ffffffffffffffff811115613154576131536143c6565b5b60405190808252806020026020018201604052801561318d57816020015b61317a613806565b8152602001906001900390816131725790505b50905060005b600d6000858152602001908152602001600020600201805490508110156132d257600e6000600d600087815260200190815260200160002060020183815481106131e0576131df614e66565b5b90600052602060002001548152602001908152602001600020604051806060016040529081600082015481526020016001820180548060200260200160405190810160405280929190818152602001828054801561325d57602002820191906000526020600020905b815481526020019060010190808311613249575b505050505081526020016002820160009054906101000a900460ff16600381111561328b5761328a613a95565b5b600381111561329d5761329c613a95565b5b815250508282815181106132b4576132b3614e66565b5b602002602001018190525080806132ca90614a3f565b915050613193565b5080915050919050565b600160009054906101000a900473ffffffffffffffffffffffffffffffffffffffff1673ffffffffffffffffffffffffffffffffffffffff163373ffffffffffffffffffffffffffffffffffffffff161461336c576040517f08c379a0000000000000000000000000000000000000000000000000000000008152600401613363906153df565b60405180910390fd5b8060400151600c600083600001518152602001908152602001600020600201819055508060a00151600c60008360000151815260200190815260200160002060050160006101000a81548173ffffffffffffffffffffffffffffffffffffffff021916908373ffffffffffffffffffffffffffffffffffffffff1602179055506001600c60008360000151815260200190815260200160002060080160006101000a81548160ff0219169083600581111561342a57613429613a95565b5b02179055508060a0015173ffffffffffffffffffffffffffffffffffffffff1681600001517f920e43a70e254a0f059f29c319db623ba9b9123360c97c5d12da8474342750f683604001516001604051613485929190615092565b60405180910390a350565b600460009054906101000a900473ffffffffffffffffffffffffffffffffffffffff1681565b6134be6135f7565b600073ffffffffffffffffffffffffffffffffffffffff168173ffffffffffffffffffffffffffffffffffffffff160361352d576040517f08c379a000000000000000000000000000000000000000000000000000000000815260040161352490615471565b60405180910390fd5b61353681613675565b50565b600b818154811061354957600080fd5b90600052602060002090600302016000915090508060000154908060020160009054906101000a900460ff16905082565b600e6020528060005260406000206000915090508060000154908060020160009054906101000a900460ff16905082565b6135b36135f7565b80600260006101000a81548173ffffffffffffffffffffffffffffffffffffffff021916908373ffffffffffffffffffffffffffffffffffffffff16021790555050565b6135ff6137d5565b73ffffffffffffffffffffffffffffffffffffffff1661361d612da4565b73ffffffffffffffffffffffffffffffffffffffff1614613673576040517f08c379a000000000000000000000000000000000000000000000000000000000815260040161366a906154dd565b60405180910390fd5b565b60008060009054906101000a900473ffffffffffffffffffffffffffffffffffffffff169050816000806101000a81548173ffffffffffffffffffffffffffffffffffffffff021916908373ffffffffffffffffffffffffffffffffffffffff1602179055508173ffffffffffffffffffffffffffffffffffffffff168173ffffffffffffffffffffffffffffffffffffffff167f8be0079c531659141344cd1fd0a4f28419497f9722a3daafe3b4186f6b6457e060405160405180910390a35050565b6137d1828260405160240161374f92919061556b565b6040516020818303038152906040527fb60e72cc000000000000000000000000000000000000000000000000000000007bffffffffffffffffffffffffffffffffffffffffffffffffffffffff19166020820180517bffffffffffffffffffffffffffffffffffffffffffffffffffffffff83818316178352505050506137dd565b5050565b600033905090565b60008151905060006a636f6e736f6c652e6c6f679050602083016000808483855afa5050505050565b604051806060016040528060008152602001606081526020016000600381111561383357613832613a95565b5b81525090565b828054828255906000526020600020908101928215613875579160200282015b82811115613874578251825591602001919060010190613859565b5b5090506138829190613976565b5090565b60405180610120016040528060008152602001600081526020016000815260200160008152602001600073ffffffffffffffffffffffffffffffffffffffff168152602001600073ffffffffffffffffffffffffffffffffffffffff168152602001600073ffffffffffffffffffffffffffffffffffffffff16815260200160008152602001600060058111156139205761391f613a95565b5b81525090565b604051806080016040528060008152602001600073ffffffffffffffffffffffffffffffffffffffff16815260200160608152602001600060028111156139705761396f613a95565b5b81525090565b5b8082111561398f576000816000905550600101613977565b5090565b6000604051905090565b600080fd5b6000819050919050565b6139b5816139a2565b81146139c057600080fd5b50565b6000813590506139d2816139ac565b92915050565b600080604083850312156139ef576139ee61399d565b5b60006139fd858286016139c3565b9250506020613a0e858286016139c3565b9150509250929050565b600060208284031215613a2e57613a2d61399d565b5b6000613a3c848285016139c3565b91505092915050565b613a4e816139a2565b82525050565b600073ffffffffffffffffffffffffffffffffffffffff82169050919050565b6000613a7f82613a54565b9050919050565b613a8f81613a74565b82525050565b7f4e487b7100000000000000000000000000000000000000000000000000000000600052602160045260246000fd5b60038110613ad557613ad4613a95565b5b50565b6000819050613ae682613ac4565b919050565b6000613af682613ad8565b9050919050565b613b0681613aeb565b82525050565b6000606082019050613b216000830186613a45565b613b2e6020830185613a86565b613b3b6040830184613afd565b949350505050565b600080600060608486031215613b5c57613b5b61399d565b5b6000613b6a868287016139c3565b9350506020613b7b868287016139c3565b9250506040613b8c868287016139c3565b9150509250925092565b6000819050919050565b6000613bbb613bb6613bb184613a54565b613b96565b613a54565b9050919050565b6000613bcd82613ba0565b9050919050565b6000613bdf82613bc2565b9050919050565b613bef81613bd4565b82525050565b6000602082019050613c0a6000830184613be6565b92915050565b613c1981613a74565b8114613c2457600080fd5b50565b600081359050613c3681613c10565b92915050565b600060208284031215613c5257613c5161399d565b5b6000613c6084828501613c27565b91505092915050565b60068110613c7a57613c79613a95565b5b50565b6000819050613c8b82613c69565b919050565b6000613c9b82613c7d565b9050919050565b613cab81613c90565b82525050565b600061012082019050613cc7600083018c613a45565b613cd4602083018b613a45565b613ce1604083018a613a45565b613cee6060830189613a45565b613cfb6080830188613a86565b613d0860a0830187613a86565b613d1560c0830186613a86565b613d2260e0830185613a45565b613d30610100830184613ca2565b9a9950505050505050505050565b60008060008060008060c08789031215613d5b57613d5a61399d565b5b6000613d6989828a016139c3565b9650506020613d7a89828a016139c3565b9550506040613d8b89828a016139c3565b9450506060613d9c89828a016139c3565b9350506080613dad89828a01613c27565b92505060a0613dbe89828a01613c27565b9150509295509295509295565b600081519050919050565b600082825260208201905092915050565b6000819050602082019050919050565b613e00816139a2565b82525050565b613e0f81613a74565b82525050565b613e1e81613c90565b82525050565b61012082016000820151613e3b6000850182613df7565b506020820151613e4e6020850182613df7565b506040820151613e616040850182613df7565b506060820151613e746060850182613df7565b506080820151613e876080850182613e06565b5060a0820151613e9a60a0850182613e06565b5060c0820151613ead60c0850182613e06565b5060e0820151613ec060e0850182613df7565b50610100820151613ed5610100850182613e15565b50505050565b6000613ee78383613e24565b6101208301905092915050565b6000602082019050919050565b6000613f0c82613dcb565b613f168185613dd6565b9350613f2183613de7565b8060005b83811015613f52578151613f398882613edb565b9750613f4483613ef4565b925050600181019050613f25565b5085935050505092915050565b60006020820190508181036000830152613f798184613f01565b905092915050565b6000602082019050613f966000830184613a45565b92915050565b6000613fa782613bc2565b9050919050565b613fb781613f9c565b82525050565b6000602082019050613fd26000830184613fae565b92915050565b6000602082019050613fed6000830184613a86565b92915050565b600081519050919050565b600082825260208201905092915050565b6000819050602082019050919050565b600081519050919050565b600082825260208201905092915050565b6000819050602082019050919050565b60006140578383613df7565b60208301905092915050565b6000602082019050919050565b600061407b8261401f565b614085818561402a565b93506140908361403b565b8060005b838110156140c15781516140a8888261404b565b97506140b383614063565b925050600181019050614094565b5085935050505092915050565b6140d781613aeb565b82525050565b60006080830160008301516140f56000860182613df7565b5060208301516141086020860182613e06565b50604083015184820360408601526141208282614070565b915050606083015161413560608601826140ce565b508091505092915050565b600061414c83836140dd565b905092915050565b6000602082019050919050565b600061416c82613ff3565b6141768185613ffe565b9350836020820285016141888561400f565b8060005b858110156141c457848403895281516141a58582614140565b94506141b083614154565b925060208a0199505060018101905061418c565b50829750879550505050505092915050565b600060208201905081810360008301526141f08184614161565b905092915050565b600061420382613bc2565b9050919050565b614213816141f8565b82525050565b600060208201905061422e600083018461420a565b92915050565b600081519050919050565b600082825260208201905092915050565b6000819050602082019050919050565b6004811061427157614270613a95565b5b50565b600081905061428282614260565b919050565b600061429282614274565b9050919050565b6142a281614287565b82525050565b60006060830160008301516142c06000860182613df7565b50602083015184820360208601526142d88282614070565b91505060408301516142ed6040860182614299565b508091505092915050565b600061430483836142a8565b905092915050565b6000602082019050919050565b600061432482614234565b61432e818561423f565b93508360208202850161434085614250565b8060005b8581101561437c578484038952815161435d85826142f8565b94506143688361430c565b925060208a01995050600181019050614344565b50829750879550505050505092915050565b600060208201905081810360008301526143a88184614319565b905092915050565b600080fd5b6000601f19601f8301169050919050565b7f4e487b7100000000000000000000000000000000000000000000000000000000600052604160045260246000fd5b6143fe826143b5565b810181811067ffffffffffffffff8211171561441d5761441c6143c6565b5b80604052505050565b6000614430613993565b905061443c82826143f5565b919050565b6006811061444e57600080fd5b50565b60008135905061446081614441565b92915050565b6000610140828403121561447d5761447c6143b0565b5b614488610140614426565b90506000614498848285016139c3565b60008301525060206144ac848285016139c3565b60208301525060406144c0848285016139c3565b60408301525060606144d4848285016139c3565b60608301525060806144e884828501613c27565b60808301525060a06144fc84828501613c27565b60a08301525060c061451084828501613c27565b60c08301525060e061452484828501614451565b60e083015250610100614539848285016139c3565b6101008301525061012061454f84828501613c27565b6101208301525092915050565b600061014082840312156145735761457261399d565b5b600061458184828501614466565b91505092915050565b600061459582613bc2565b9050919050565b6145a58161458a565b82525050565b60006020820190506145c0600083018461459c565b92915050565b6145cf81614287565b82525050565b60006040820190506145ea6000830185613a45565b6145f760208301846145c6565b9392505050565b600082825260208201905092915050565b7f4572726f723a20496e76616c6964205461736b20537461746500000000000000600082015250565b60006146456019836145fe565b91506146508261460f565b602082019050919050565b6000602082019050818103600083015261467481614638565b9050919050565b7f4f6e6c7920646f65722063616e2063616c6c0000000000000000000000000000600082015250565b60006146b16012836145fe565b91506146bc8261467b565b602082019050919050565b600060208201905081810360008301526146e0816146a4565b9050919050565b7f7461736b4944206e6f7420666f756e6400000000000000000000000000000000600082015250565b600061471d6010836145fe565b9150614728826146e7565b602082019050919050565b6000602082019050818103600083015261474c81614710565b9050919050565b600081519050614762816139ac565b92915050565b60006020828403121561477e5761477d61399d565b5b600061478c84828501614753565b91505092915050565b60006040820190506147aa6000830185613a86565b6147b76020830184613a86565b9392505050565b7f596f75722062616c616e6365206e6f7420656e6f756768000000000000000000600082015250565b60006147f46017836145fe565b91506147ff826147be565b602082019050919050565b60006020820190508181036000830152614823816147e7565b9050919050565b7f4e6f742070726f7669646520656e6f756768206d6f6e657920746f207265636560008201527f697665207461736b210000000000000000000000000000000000000000000000602082015250565b60006148866029836145fe565b91506148918261482a565b604082019050919050565b600060208201905081810360008301526148b581614879565b9050919050565b60006080820190506148d16000830187613a86565b6148de6020830186613a86565b6148eb6040830185613a86565b6148f86060830184613a45565b95945050505050565b60006060820190506149166000830186613a45565b6149236020830185613ca2565b6149306040830184613a45565b949350505050565b7f506f6c6c206e6f74206578697374210000000000000000000000000000000000600082015250565b600061496e600f836145fe565b915061497982614938565b602082019050919050565b6000602082019050818103600083015261499d81614961565b9050919050565b7f4572726f723a20496e76616c696420506f6c6c20537461746500000000000000600082015250565b60006149da6019836145fe565b91506149e5826149a4565b602082019050919050565b60006020820190508181036000830152614a09816149cd565b9050919050565b7f4e487b7100000000000000000000000000000000000000000000000000000000600052601160045260246000fd5b6000614a4a826139a2565b91507fffffffffffffffffffffffffffffffffffffffffffffffffffffffffffffffff8203614a7c57614a7b614a10565b5b600182019050919050565b6000602082019050614a9c60008301846145c6565b92915050565b7f596f75206e6f74206f776e207468697320506f6c6c0000000000000000000000600082015250565b6000614ad86015836145fe565b9150614ae382614aa2565b602082019050919050565b60006020820190508181036000830152614b0781614acb565b9050919050565b7f766f7465206475726174696f6e206d75737420626520706f7369746976650000600082015250565b6000614b44601e836145fe565b9150614b4f82614b0e565b602082019050919050565b60006020820190508181036000830152614b7381614b37565b9050919050565b7f506f6c6c20656d707479206f7220686173206f6e6c7920312062617463682c2060008201527f6e6f206e65656420746f20766f74652100000000000000000000000000000000602082015250565b6000614bd66030836145fe565b9150614be182614b7a565b604082019050919050565b60006020820190508181036000830152614c0581614bc9565b9050919050565b600081549050919050565b600082825260208201905092915050565b60008190508160005260206000209050919050565b60008160001c9050919050565b6000819050919050565b6000614c67614c6283614c3d565b614c4a565b9050919050565b6000614c7a8254614c54565b9050919050565b6000600182019050919050565b6000614c9982614c0c565b614ca38185614c17565b9350614cae83614c28565b8060005b83811015614ce657614cc382614c6e565b614ccd888261404b565b9750614cd883614c81565b925050600181019050614cb2565b5085935050505092915050565b6000606082019050614d086000830186613a45565b614d156020830185613a45565b8181036040830152614d278184614c8e565b9050949350505050565b6000606082019050614d466000830186613a45565b614d536020830185613a45565b614d606040830184613afd565b949350505050565b7f4572726f723a20496e76616c6964204261746368205461736b20537461746500600082015250565b6000614d9e601f836145fe565b9150614da982614d68565b602082019050919050565b60006020820190508181036000830152614dcd81614d91565b9050919050565b7f546865726520617265206e6f207461736b20696e20746869732062617463685460008201527f61736b0000000000000000000000000000000000000000000000000000000000602082015250565b6000614e306023836145fe565b9150614e3b82614dd4565b604082019050919050565b60006020820190508181036000830152614e5f81614e23565b9050919050565b7f4e487b7100000000000000000000000000000000000000000000000000000000600052603260045260246000fd5b6000608082019050614eaa6000830187613a45565b8181036020830152614ebc8186613f01565b9050614ecb6040830185613a45565b614ed86060830184613a45565b95945050505050565b6000606082019050614ef66000830186613a45565b614f036020830185613a45565b614f1060408301846145c6565b949350505050565b7f4f6e6c7920646f6572206f722072657669657765722063616e2063616c6c0000600082015250565b6000614f4e601e836145fe565b9150614f5982614f18565b602082019050919050565b60006020820190508181036000830152614f7d81614f41565b9050919050565b6000604082019050614f996000830185613a45565b614fa66020830184613a45565b9392505050565b7f57726f6e672061646472657373207265706f72746572206f722072657669657760008201527f6572210000000000000000000000000000000000000000000000000000000000602082015250565b60006150096023836145fe565b915061501482614fad565b604082019050919050565b6000602082019050818103600083015261503881614ffc565b9050919050565b600060a0820190506150546000830188613a45565b6150616020830187613a45565b61506e6040830186613a45565b61507b6060830185613a45565b6150886080830184613ca2565b9695505050505050565b60006040820190506150a76000830185613a45565b6150b46020830184613ca2565b9392505050565b7f57726f6e6720706f6c6c206f776e657220616464726573730000000000000000600082015250565b60006150f16018836145fe565b91506150fc826150bb565b602082019050919050565b60006020820190508181036000830152615120816150e4565b9050919050565b600060208201905061513c6000830184613afd565b92915050565b7f4f6e6c792072657669657765722063616e2063616c6c00000000000000000000600082015250565b60006151786016836145fe565b915061518382615142565b602082019050919050565b600060208201905081810360008301526151a78161516b565b9050919050565b7f7461736b4944206f722062617463685461736b4944206e6f7420666f756e6400600082015250565b60006151e4601f836145fe565b91506151ef826151ae565b602082019050919050565b60006020820190508181036000830152615213816151d7565b9050919050565b6000615225826139a2565b9150615230836139a2565b925082820261523e816139a2565b9150828204841483151761525557615254614a10565b5b5092915050565b7f4e487b7100000000000000000000000000000000000000000000000000000000600052601260045260246000fd5b6000615296826139a2565b91506152a1836139a2565b9250826152b1576152b061525c565b5b828204905092915050565b60006060820190506152d16000830186613a45565b6152de6020830185613a86565b6152eb6040830184613a45565b949350505050565b60006152fe826139a2565b9150615309836139a2565b925082820190508082111561532157615320614a10565b5b92915050565b7f4f6e6c792063616c6c2062792042617463685461736b566f74696e6700000000600082015250565b600061535d601c836145fe565b915061536882615327565b602082019050919050565b6000602082019050818103600083015261538c81615350565b9050919050565b7f4f6e6c792063616c6c206279205461736b41756374696f6e0000000000000000600082015250565b60006153c96018836145fe565b91506153d482615393565b602082019050919050565b600060208201905081810360008301526153f8816153bc565b9050919050565b7f4f776e61626c653a206e6577206f776e657220697320746865207a65726f206160008201527f6464726573730000000000000000000000000000000000000000000000000000602082015250565b600061545b6026836145fe565b9150615466826153ff565b604082019050919050565b6000602082019050818103600083015261548a8161544e565b9050919050565b7f4f776e61626c653a2063616c6c6572206973206e6f7420746865206f776e6572600082015250565b60006154c76020836145fe565b91506154d282615491565b602082019050919050565b600060208201905081810360008301526154f6816154ba565b9050919050565b600081519050919050565b60005b8381101561552657808201518184015260208101905061550b565b60008484015250505050565b600061553d826154fd565b61554781856145fe565b9350615557818560208601615508565b615560816143b5565b840191505092915050565b600060408201905081810360008301526155858185615532565b90506155946020830184613a45565b939250505056fea2646970667358221220a29cc36a15424a31d65c2f2d9e323d8b1c6f70f6bcd9d82715a298c8e52e437764736f6c63430008110033",
  "linkReferences": {},
  "deployedLinkReferences": {}
}