{
  "_format": "hh-sol-artifact-1",
  "contractName": "TaskManager",
  "sourceName": "contracts/TaskManager.sol",
  "abi": [
    {
      "anonymous": false,
      "inputs": [
        {
          "indexed": true,
          "internalType": "uint256",
          "name": "taskId",
          "type": "uint256"
        },
        {
          "indexed": false,
          "internalType": "uint256",
          "name": "reward",
          "type": "uint256"
        },
        {
          "indexed": true,
          "internalType": "address",
          "name": "doer",
          "type": "address"
        },
        {
          "indexed": false,
          "internalType": "enum ITaskManager.TASK_STATE",
          "name": "taskState",
          "type": "uint8"
        }
      ],
      "name": "AssignTask",
      "type": "event"
    },
    {
      "anonymous": false,
      "inputs": [
        {
          "indexed": true,
          "internalType": "uint256",
          "name": "batchTaskId",
          "type": "uint256"
        },
        {
          "indexed": true,
          "internalType": "uint256",
          "name": "pollId",
          "type": "uint256"
        },
        {
          "indexed": false,
          "internalType": "enum ITaskManager.BATCH_TASK_STATE",
          "name": "batchTaskState",
          "type": "uint8"
        }
      ],
      "name": "BatchTaskInit",
      "type": "event"
    },
    {
      "anonymous": false,
      "inputs": [
        {
          "indexed": true,
          "internalType": "uint256",
          "name": "batchTaskID",
          "type": "uint256"
        },
        {
          "indexed": false,
          "internalType": "uint256",
          "name": "auctionDuration",
          "type": "uint256"
        },
        {
          "indexed": false,
          "internalType": "uint256",
          "name": "timeOpen",
          "type": "uint256"
        },
        {
          "indexed": false,
          "internalType": "enum ITaskManager.BATCH_TASK_STATE",
          "name": "batchTaskState",
          "type": "uint8"
        }
      ],
      "name": "OpenBatchTaskForAuction",
      "type": "event"
    },
    {
      "anonymous": false,
      "inputs": [
        {
          "indexed": true,
          "internalType": "uint256",
          "name": "_pollId",
          "type": "uint256"
        },
        {
          "indexed": false,
          "internalType": "uint256",
          "name": "_voteDuration",
          "type": "uint256"
        },
        {
          "indexed": false,
          "internalType": "uint256",
          "name": "timeOpenPollVote",
          "type": "uint256"
        },
        {
          "indexed": true,
          "internalType": "address",
          "name": "pollOwner",
          "type": "address"
        },
        {
          "indexed": false,
          "internalType": "enum ITaskManager.POLL_STATE",
          "name": "pollState",
          "type": "uint8"
        }
      ],
      "name": "OpenPollForVote",
      "type": "event"
    },
    {
      "anonymous": false,
      "inputs": [
        {
          "indexed": true,
          "internalType": "address",
          "name": "previousOwner",
          "type": "address"
        },
        {
          "indexed": true,
          "internalType": "address",
          "name": "newOwner",
          "type": "address"
        }
      ],
      "name": "OwnershipTransferred",
      "type": "event"
    },
    {
      "anonymous": false,
      "inputs": [
        {
          "indexed": true,
          "internalType": "uint256",
          "name": "pollId",
          "type": "uint256"
        },
        {
          "indexed": true,
          "internalType": "address",
          "name": "pollOwner",
          "type": "address"
        },
        {
          "indexed": false,
          "internalType": "enum ITaskManager.POLL_STATE",
          "name": "pollState",
          "type": "uint8"
        }
      ],
      "name": "PollInit",
      "type": "event"
    },
    {
      "anonymous": false,
      "inputs": [
        {
          "indexed": true,
          "internalType": "uint256",
          "name": "taskId",
          "type": "uint256"
        },
        {
          "indexed": false,
          "internalType": "uint256",
          "name": "timeReceive",
          "type": "uint256"
        },
        {
          "indexed": true,
          "internalType": "address",
          "name": "doer",
          "type": "address"
        },
        {
          "indexed": false,
          "internalType": "enum ITaskManager.TASK_STATE",
          "name": "taskState",
          "type": "uint8"
        },
        {
          "indexed": false,
          "internalType": "uint256",
          "name": "commitValue",
          "type": "uint256"
        }
      ],
      "name": "ReceiveTask",
      "type": "event"
    },
    {
      "anonymous": false,
      "inputs": [
        {
          "indexed": true,
          "internalType": "uint256",
          "name": "taskId",
          "type": "uint256"
        },
        {
          "indexed": false,
          "internalType": "uint256",
          "name": "percentageDone",
          "type": "uint256"
        },
        {
          "indexed": true,
          "internalType": "address",
          "name": "reviewer",
          "type": "address"
        },
        {
          "indexed": false,
          "internalType": "enum ITaskManager.TASK_STATE",
          "name": "taskState",
          "type": "uint8"
        },
        {
          "indexed": false,
          "internalType": "uint256",
          "name": "timeSubmit",
          "type": "uint256"
        }
      ],
      "name": "SubmitReview",
      "type": "event"
    },
    {
      "anonymous": false,
      "inputs": [
        {
          "indexed": true,
          "internalType": "uint256",
          "name": "taskId",
          "type": "uint256"
        },
        {
          "indexed": false,
          "internalType": "uint256",
          "name": "timeSubmit",
          "type": "uint256"
        },
        {
          "indexed": true,
          "internalType": "address",
          "name": "doer",
          "type": "address"
        },
        {
          "indexed": false,
          "internalType": "enum ITaskManager.TASK_STATE",
          "name": "taskState",
          "type": "uint8"
        }
      ],
      "name": "SubmitTaskResult",
      "type": "event"
    },
    {
      "anonymous": false,
      "inputs": [
        {
          "indexed": false,
          "internalType": "uint256",
          "name": "taskId",
          "type": "uint256"
        },
        {
          "indexed": true,
          "internalType": "uint256",
          "name": "batchTaskId",
          "type": "uint256"
        },
        {
          "indexed": false,
          "internalType": "uint256",
          "name": "point",
          "type": "uint256"
        },
        {
          "indexed": false,
          "internalType": "uint256",
          "name": "reward",
          "type": "uint256"
        },
        {
          "indexed": false,
          "internalType": "uint256",
          "name": "minReward",
          "type": "uint256"
        },
        {
          "indexed": true,
          "internalType": "address",
          "name": "reporter",
          "type": "address"
        },
        {
          "indexed": true,
          "internalType": "address",
          "name": "reviewer",
          "type": "address"
        },
        {
          "indexed": false,
          "internalType": "enum ITaskManager.TASK_STATE",
          "name": "taskState",
          "type": "uint8"
        }
      ],
      "name": "TaskInit",
      "type": "event"
    },
    {
      "anonymous": false,
      "inputs": [
        {
          "indexed": true,
          "internalType": "uint256",
          "name": "taskId",
          "type": "uint256"
        },
        {
          "indexed": false,
          "internalType": "uint256",
          "name": "newPoint",
          "type": "uint256"
        },
        {
          "indexed": true,
          "internalType": "address",
          "name": "updater",
          "type": "address"
        },
        {
          "indexed": false,
          "internalType": "uint256",
          "name": "timeUpdate",
          "type": "uint256"
        }
      ],
      "name": "UpdateTask",
      "type": "event"
    },
    {
      "inputs": [
        {
          "components": [
            {
              "internalType": "uint256",
              "name": "taskId",
              "type": "uint256"
            },
            {
              "internalType": "uint256",
              "name": "point",
              "type": "uint256"
            },
            {
              "internalType": "uint256",
              "name": "reward",
              "type": "uint256"
            },
            {
              "internalType": "uint256",
              "name": "minReward",
              "type": "uint256"
            },
            {
              "internalType": "address",
              "name": "reporter",
              "type": "address"
            },
            {
              "internalType": "address",
              "name": "doer",
              "type": "address"
            },
            {
              "internalType": "address",
              "name": "reviewer",
              "type": "address"
            },
            {
              "internalType": "enum ITaskAuction.TASK_STATE",
              "name": "taskState",
              "type": "uint8"
            },
            {
              "internalType": "uint256",
              "name": "lowestBidAmount",
              "type": "uint256"
            },
            {
              "internalType": "address",
              "name": "lowestBidder",
              "type": "address"
            }
          ],
          "internalType": "struct ITaskAuction.AuctionTask",
          "name": "doneAuctionTask",
          "type": "tuple"
        }
      ],
      "name": "assignTask",
      "outputs": [],
      "stateMutability": "nonpayable",
      "type": "function"
    },
    {
      "inputs": [],
      "name": "bankManager",
      "outputs": [
        {
          "internalType": "contract IBankManager",
          "name": "",
          "type": "address"
        }
      ],
      "stateMutability": "view",
      "type": "function"
    },
    {
      "inputs": [],
      "name": "batchTaskCount",
      "outputs": [
        {
          "internalType": "uint256",
          "name": "",
          "type": "uint256"
        }
      ],
      "stateMutability": "view",
      "type": "function"
    },
    {
      "inputs": [
        {
          "internalType": "uint256",
          "name": "",
          "type": "uint256"
        }
      ],
      "name": "batchTaskIdToBatchTask",
      "outputs": [
        {
          "internalType": "uint256",
          "name": "batchTaskId",
          "type": "uint256"
        },
        {
          "internalType": "enum ITaskManager.BATCH_TASK_STATE",
          "name": "batchTaskState",
          "type": "uint8"
        }
      ],
      "stateMutability": "view",
      "type": "function"
    },
    {
      "inputs": [],
      "name": "batchTaskVoting",
      "outputs": [
        {
          "internalType": "contract IBatchTaskVoting",
          "name": "",
          "type": "address"
        }
      ],
      "stateMutability": "view",
      "type": "function"
    },
    {
      "inputs": [
        {
          "internalType": "uint256",
          "name": "",
          "type": "uint256"
        }
      ],
      "name": "batchTasks",
      "outputs": [
        {
          "internalType": "uint256",
          "name": "batchTaskId",
          "type": "uint256"
        },
        {
          "internalType": "enum ITaskManager.BATCH_TASK_STATE",
          "name": "batchTaskState",
          "type": "uint8"
        }
      ],
      "stateMutability": "view",
      "type": "function"
    },
    {
      "inputs": [
        {
          "internalType": "address",
          "name": "_tokenAddress",
          "type": "address"
        }
      ],
      "name": "chooseToken",
      "outputs": [],
      "stateMutability": "nonpayable",
      "type": "function"
    },
    {
      "inputs": [],
      "name": "creditScore",
      "outputs": [
        {
          "internalType": "contract ICreditScore",
          "name": "",
          "type": "address"
        }
      ],
      "stateMutability": "view",
      "type": "function"
    },
    {
      "inputs": [
        {
          "internalType": "uint256",
          "name": "_pollID",
          "type": "uint256"
        }
      ],
      "name": "getAllBatchTaskByPollID",
      "outputs": [
        {
          "components": [
            {
              "internalType": "uint256",
              "name": "batchTaskId",
              "type": "uint256"
            },
            {
              "internalType": "uint256[]",
              "name": "taskIds",
              "type": "uint256[]"
            },
            {
              "internalType": "enum ITaskManager.BATCH_TASK_STATE",
              "name": "batchTaskState",
              "type": "uint8"
            }
          ],
          "internalType": "struct ITaskManager.BatchTask[]",
          "name": "",
          "type": "tuple[]"
        }
      ],
      "stateMutability": "view",
      "type": "function"
    },
    {
      "inputs": [],
      "name": "getAllPoll",
      "outputs": [
        {
          "components": [
            {
              "internalType": "uint256",
              "name": "pollId",
              "type": "uint256"
            },
            {
              "internalType": "address",
              "name": "pollOwner",
              "type": "address"
            },
            {
              "internalType": "uint256[]",
              "name": "batchTaskIds",
              "type": "uint256[]"
            },
            {
              "internalType": "enum ITaskManager.POLL_STATE",
              "name": "pollState",
              "type": "uint8"
            }
          ],
          "internalType": "struct ITaskManager.Poll[]",
          "name": "",
          "type": "tuple[]"
        }
      ],
      "stateMutability": "view",
      "type": "function"
    },
    {
      "inputs": [
        {
          "internalType": "uint256",
          "name": "_batchTaskId",
          "type": "uint256"
        }
      ],
      "name": "getAllTask",
      "outputs": [
        {
          "components": [
            {
              "internalType": "uint256",
              "name": "taskId",
              "type": "uint256"
            },
            {
              "internalType": "uint256",
              "name": "point",
              "type": "uint256"
            },
            {
              "internalType": "uint256",
              "name": "reward",
              "type": "uint256"
            },
            {
              "internalType": "uint256",
              "name": "minReward",
              "type": "uint256"
            },
            {
              "internalType": "address",
              "name": "reporter",
              "type": "address"
            },
            {
              "internalType": "address",
              "name": "doer",
              "type": "address"
            },
            {
              "internalType": "address",
              "name": "reviewer",
              "type": "address"
            },
            {
              "internalType": "uint256",
              "name": "timeDoerReceive",
              "type": "uint256"
            },
            {
              "internalType": "enum ITaskManager.TASK_STATE",
              "name": "taskState",
              "type": "uint8"
            }
          ],
          "internalType": "struct ITaskManager.Task[]",
          "name": "",
          "type": "tuple[]"
        }
      ],
      "stateMutability": "view",
      "type": "function"
    },
    {
      "inputs": [
        {
          "internalType": "uint256",
          "name": "_pollId",
          "type": "uint256"
        }
      ],
      "name": "initBatchTask",
      "outputs": [],
      "stateMutability": "nonpayable",
      "type": "function"
    },
    {
      "inputs": [
        {
          "internalType": "uint256",
          "name": "_batchTaskId",
          "type": "uint256"
        }
      ],
      "name": "initBatchTaskAuction",
      "outputs": [],
      "stateMutability": "nonpayable",
      "type": "function"
    },
    {
      "inputs": [
        {
          "internalType": "address",
          "name": "_pollOwner",
          "type": "address"
        }
      ],
      "name": "initPoll",
      "outputs": [],
      "stateMutability": "nonpayable",
      "type": "function"
    },
    {
      "inputs": [
        {
          "internalType": "uint256",
          "name": "_batchTaskId",
          "type": "uint256"
        },
        {
          "internalType": "uint256",
          "name": "_point",
          "type": "uint256"
        },
        {
          "internalType": "uint256",
          "name": "_reward",
          "type": "uint256"
        },
        {
          "internalType": "uint256",
          "name": "_minReward",
          "type": "uint256"
        },
        {
          "internalType": "address",
          "name": "_reporter",
          "type": "address"
        },
        {
          "internalType": "address",
          "name": "_reviewer",
          "type": "address"
        }
      ],
      "name": "initTask",
      "outputs": [],
      "stateMutability": "nonpayable",
      "type": "function"
    },
    {
      "inputs": [
        {
          "internalType": "uint256",
          "name": "_pollID",
          "type": "uint256"
        },
        {
          "internalType": "uint256",
          "name": "_batchTaskID",
          "type": "uint256"
        },
        {
          "internalType": "uint256",
          "name": "_auctionDuration",
          "type": "uint256"
        }
      ],
      "name": "openBatchTaskForAuction",
      "outputs": [],
      "stateMutability": "nonpayable",
      "type": "function"
    },
    {
      "inputs": [
        {
          "internalType": "uint256",
          "name": "_pollId",
          "type": "uint256"
        },
        {
          "internalType": "uint256",
          "name": "_voteDuration",
          "type": "uint256"
        }
      ],
      "name": "openPollForVote",
      "outputs": [],
      "stateMutability": "nonpayable",
      "type": "function"
    },
    {
      "inputs": [],
      "name": "owner",
      "outputs": [
        {
          "internalType": "address",
          "name": "",
          "type": "address"
        }
      ],
      "stateMutability": "view",
      "type": "function"
    },
    {
      "inputs": [],
      "name": "pollCount",
      "outputs": [
        {
          "internalType": "uint256",
          "name": "",
          "type": "uint256"
        }
      ],
      "stateMutability": "view",
      "type": "function"
    },
    {
      "inputs": [
        {
          "internalType": "uint256",
          "name": "",
          "type": "uint256"
        }
      ],
      "name": "pollIdToPoll",
      "outputs": [
        {
          "internalType": "uint256",
          "name": "pollId",
          "type": "uint256"
        },
        {
          "internalType": "address",
          "name": "pollOwner",
          "type": "address"
        },
        {
          "internalType": "enum ITaskManager.POLL_STATE",
          "name": "pollState",
          "type": "uint8"
        }
      ],
      "stateMutability": "view",
      "type": "function"
    },
    {
      "inputs": [
        {
          "internalType": "uint256",
          "name": "",
          "type": "uint256"
        }
      ],
      "name": "polls",
      "outputs": [
        {
          "internalType": "uint256",
          "name": "pollId",
          "type": "uint256"
        },
        {
          "internalType": "address",
          "name": "pollOwner",
          "type": "address"
        },
        {
          "internalType": "enum ITaskManager.POLL_STATE",
          "name": "pollState",
          "type": "uint8"
        }
      ],
      "stateMutability": "view",
      "type": "function"
    },
    {
      "inputs": [
        {
          "internalType": "uint256",
          "name": "_taskId",
          "type": "uint256"
        },
        {
          "internalType": "uint256",
          "name": "_commitValue",
          "type": "uint256"
        }
      ],
      "name": "receiveTask",
      "outputs": [],
      "stateMutability": "nonpayable",
      "type": "function"
    },
    {
      "inputs": [],
      "name": "renounceOwnership",
      "outputs": [],
      "stateMutability": "nonpayable",
      "type": "function"
    },
    {
      "inputs": [
        {
          "internalType": "address",
          "name": "_bankManagerAddress",
          "type": "address"
        }
      ],
      "name": "setBankManager",
      "outputs": [],
      "stateMutability": "nonpayable",
      "type": "function"
    },
    {
      "inputs": [
        {
          "internalType": "address",
          "name": "_batchTaskVotingAddress",
          "type": "address"
        }
      ],
      "name": "setBatchTaskVoting",
      "outputs": [],
      "stateMutability": "nonpayable",
      "type": "function"
    },
    {
      "inputs": [
        {
          "internalType": "address",
          "name": "_creditScoreAddress",
          "type": "address"
        }
      ],
      "name": "setCreditScore",
      "outputs": [],
      "stateMutability": "nonpayable",
      "type": "function"
    },
    {
      "inputs": [
        {
          "internalType": "address",
          "name": "_taskAuctionAddress",
          "type": "address"
        }
      ],
      "name": "setTaskAuction",
      "outputs": [],
      "stateMutability": "nonpayable",
      "type": "function"
    },
    {
      "inputs": [
        {
          "internalType": "uint256",
          "name": "_taskId",
          "type": "uint256"
        },
        {
          "internalType": "uint256",
          "name": "percentageDone",
          "type": "uint256"
        }
      ],
      "name": "submitReview",
      "outputs": [],
      "stateMutability": "nonpayable",
      "type": "function"
    },
    {
      "inputs": [
        {
          "internalType": "uint256",
          "name": "_taskId",
          "type": "uint256"
        }
      ],
      "name": "submitTaskResult",
      "outputs": [],
      "stateMutability": "nonpayable",
      "type": "function"
    },
    {
      "inputs": [],
      "name": "taskAuction",
      "outputs": [
        {
          "internalType": "contract ITaskAuction",
          "name": "",
          "type": "address"
        }
      ],
      "stateMutability": "view",
      "type": "function"
    },
    {
      "inputs": [],
      "name": "taskCount",
      "outputs": [
        {
          "internalType": "uint256",
          "name": "",
          "type": "uint256"
        }
      ],
      "stateMutability": "view",
      "type": "function"
    },
    {
      "inputs": [
        {
          "internalType": "uint256",
          "name": "",
          "type": "uint256"
        }
      ],
      "name": "taskIdToTask",
      "outputs": [
        {
          "internalType": "uint256",
          "name": "taskId",
          "type": "uint256"
        },
        {
          "internalType": "uint256",
          "name": "point",
          "type": "uint256"
        },
        {
          "internalType": "uint256",
          "name": "reward",
          "type": "uint256"
        },
        {
          "internalType": "uint256",
          "name": "minReward",
          "type": "uint256"
        },
        {
          "internalType": "address",
          "name": "reporter",
          "type": "address"
        },
        {
          "internalType": "address",
          "name": "doer",
          "type": "address"
        },
        {
          "internalType": "address",
          "name": "reviewer",
          "type": "address"
        },
        {
          "internalType": "uint256",
          "name": "timeDoerReceive",
          "type": "uint256"
        },
        {
          "internalType": "enum ITaskManager.TASK_STATE",
          "name": "taskState",
          "type": "uint8"
        }
      ],
      "stateMutability": "view",
      "type": "function"
    },
    {
      "inputs": [
        {
          "internalType": "uint256",
          "name": "",
          "type": "uint256"
        }
      ],
      "name": "tasks",
      "outputs": [
        {
          "internalType": "uint256",
          "name": "taskId",
          "type": "uint256"
        },
        {
          "internalType": "uint256",
          "name": "point",
          "type": "uint256"
        },
        {
          "internalType": "uint256",
          "name": "reward",
          "type": "uint256"
        },
        {
          "internalType": "uint256",
          "name": "minReward",
          "type": "uint256"
        },
        {
          "internalType": "address",
          "name": "reporter",
          "type": "address"
        },
        {
          "internalType": "address",
          "name": "doer",
          "type": "address"
        },
        {
          "internalType": "address",
          "name": "reviewer",
          "type": "address"
        },
        {
          "internalType": "uint256",
          "name": "timeDoerReceive",
          "type": "uint256"
        },
        {
          "internalType": "enum ITaskManager.TASK_STATE",
          "name": "taskState",
          "type": "uint8"
        }
      ],
      "stateMutability": "view",
      "type": "function"
    },
    {
      "inputs": [],
      "name": "tokenAddress",
      "outputs": [
        {
          "internalType": "address",
          "name": "",
          "type": "address"
        }
      ],
      "stateMutability": "view",
      "type": "function"
    },
    {
      "inputs": [
        {
          "internalType": "address",
          "name": "newOwner",
          "type": "address"
        }
      ],
      "name": "transferOwnership",
      "outputs": [],
      "stateMutability": "nonpayable",
      "type": "function"
    },
    {
      "inputs": [
        {
          "internalType": "uint256",
          "name": "_taskId",
          "type": "uint256"
        },
        {
          "internalType": "uint256",
          "name": "_newPoint",
          "type": "uint256"
        }
      ],
      "name": "updateTask",
      "outputs": [],
      "stateMutability": "nonpayable",
      "type": "function"
    }
  ],
  "bytecode": "0x60806040523480156200001157600080fd5b5062000032620000266200003860201b60201c565b6200004060201b60201c565b62000104565b600033905090565b60008060009054906101000a900473ffffffffffffffffffffffffffffffffffffffff169050816000806101000a81548173ffffffffffffffffffffffffffffffffffffffff021916908373ffffffffffffffffffffffffffffffffffffffff1602179055508173ffffffffffffffffffffffffffffffffffffffff168173ffffffffffffffffffffffffffffffffffffffff167f8be0079c531659141344cd1fd0a4f28419497f9722a3daafe3b4186f6b6457e060405160405180910390a35050565b614e0180620001146000396000f3fe608060405234801561001057600080fd5b506004361061021c5760003560e01c806385a20cf911610125578063b6cb58a5116100ad578063e9e2990e1161007c578063e9e2990e14610611578063f2fde38b1461062f578063f535d1171461064b578063f81f627d1461067c578063fd3a5451146106ad5761021c565b8063b6cb58a514610589578063c709c1f1146105a7578063dbe2728e146105c5578063e64f01b9146105f55761021c565b80639207891d116100f45780639207891d146104e15780639844f215146104ff5780639acea8d31461051d5780639d76ea5814610539578063ac2f0074146105575761021c565b806385a20cf91461044f5780638d93fc0a1461046d5780638d9776721461048b5780638da5cb5b146104c35761021c565b806368e12342116101a8578063715018a611610177578063715018a6146103c1578063785faee4146103cb578063793a4bbd146103e75780637a9b6ef7146104035780637fb732211461041f5761021c565b806368e12342146103355780636c03c7a9146103515780636edbe3a3146103895780636f2a4068146103a55761021c565b806334d819d5116101ef57806334d819d5146102a757806339da3152146102c357806342b200ba146102e1578063435fa77c146102fd57806348fb1f01146103195761021c565b806304655aa3146102215780631861b90c1461023d5780632425795a146102595780632ed64cbc1461028b575b600080fd5b61023b60048036038101906102369190613502565b6106c9565b005b61025760048036038101906102529190613542565b610bc6565b005b610273600480360381019061026e9190613542565b610d12565b60405161028293929190613636565b60405180910390f35b6102a560048036038101906102a09190613502565b610d69565b005b6102c160048036038101906102bc919061366d565b610ffa565b005b6102cb611424565b6040516102d8919061371f565b60405180910390f35b6102fb60048036038101906102f69190613766565b61144a565b005b61031760048036038101906103129190613766565b611496565b005b610333600480360381019061032e9190613502565b6114e2565b005b61034f600480360381019061034a9190613766565b6117df565b005b61036b60048036038101906103669190613542565b61182b565b604051610380999897969594939291906137db565b60405180910390f35b6103a3600480360381019061039e9190613868565b6118e6565b005b6103bf60048036038101906103ba9190613542565b611bdc565b005b6103c9611dfa565b005b6103e560048036038101906103e09190613766565b611e0e565b005b61040160048036038101906103fc9190613502565b61207c565b005b61041d60048036038101906104189190613766565b6124f9565b005b61043960048036038101906104349190613542565b612545565b6040516104469190613a89565b60405180910390f35b6104576127d7565b6040516104649190613aab565b60405180910390f35b6104756127dd565b6040516104829190613ae7565b60405180910390f35b6104a560048036038101906104a09190613542565b612803565b6040516104ba999897969594939291906137db565b60405180910390f35b6104cb6128ce565b6040516104d89190613b02565b60405180910390f35b6104e96128f7565b6040516104f69190613aab565b60405180910390f35b6105076128fd565b6040516105149190613d00565b60405180910390f35b61053760048036038101906105329190613542565b612abc565b005b610541612b8e565b60405161054e9190613b02565b60405180910390f35b610571600480360381019061056c9190613542565b612bb4565b60405161058093929190613636565b60405180910390f35b610591612c1b565b60405161059e9190613aab565b60405180910390f35b6105af612c21565b6040516105bc9190613d43565b60405180910390f35b6105df60048036038101906105da9190613542565b612c47565b6040516105ec9190613eb8565b60405180910390f35b61060f600480360381019061060a9190614086565b612e06565b005b610619612fba565b60405161062691906140d5565b60405180910390f35b61064960048036038101906106449190613766565b612fe0565b005b61066560048036038101906106609190613542565b613063565b6040516106739291906140ff565b60405180910390f35b61069660048036038101906106919190613542565b6130a4565b6040516106a49291906140ff565b60405180910390f35b6106c760048036038101906106c29190613766565b6130d5565b005b6001828160048111156106df576106de6135bf565b5b600c600083815260200190815260200160002060080160009054906101000a900460ff166004811115610715576107146135bf565b5b14610755576040517f08c379a000000000000000000000000000000000000000000000000000000000815260040161074c90614185565b60405180910390fd5b600c600085815260200190815260200160002060050160009054906101000a900473ffffffffffffffffffffffffffffffffffffffff1673ffffffffffffffffffffffffffffffffffffffff163373ffffffffffffffffffffffffffffffffffffffff16146107f9576040517f08c379a00000000000000000000000000000000000000000000000000000000081526004016107f0906141f1565b60405180910390fd5b83600c60008681526020019081526020016000206000015414610851576040517f08c379a00000000000000000000000000000000000000000000000000000000081526004016108489061425d565b60405180910390fd5b6000600360009054906101000a900473ffffffffffffffffffffffffffffffffffffffff1673ffffffffffffffffffffffffffffffffffffffff16635ebf340e336040518263ffffffff1660e01b81526004016108ae9190613b02565b6020604051808303816000875af11580156108cd573d6000803e3d6000fd5b505050506040513d601f19601f820116820180604052508101906108f19190614292565b905083600460009054906101000a900473ffffffffffffffffffffffffffffffffffffffff1673ffffffffffffffffffffffffffffffffffffffff1663f7888aec33600560009054906101000a900473ffffffffffffffffffffffffffffffffffffffff166040518363ffffffff1660e01b81526004016109739291906142bf565b6020604051808303816000875af1158015610992573d6000803e3d6000fd5b505050506040513d601f19601f820116820180604052508101906109b69190614292565b10156109f7576040517f08c379a00000000000000000000000000000000000000000000000000000000081526004016109ee90614334565b60405180910390fd5b80841015610a3a576040517f08c379a0000000000000000000000000000000000000000000000000000000008152600401610a31906143c6565b60405180910390fd5b600460009054906101000a900473ffffffffffffffffffffffffffffffffffffffff1673ffffffffffffffffffffffffffffffffffffffff1663f18d03cc33600560009054906101000a900473ffffffffffffffffffffffffffffffffffffffff16600460009054906101000a900473ffffffffffffffffffffffffffffffffffffffff16886040518563ffffffff1660e01b8152600401610adf94939291906143e6565b600060405180830381600087803b158015610af957600080fd5b505af1158015610b0d573d6000803e3d6000fd5b505050506002600c600087815260200190815260200160002060080160006101000a81548160ff02191690836004811115610b4b57610b4a6135bf565b5b021790555042600c6000878152602001908152602001600020600701819055503373ffffffffffffffffffffffffffffffffffffffff16857f6dea5495da67ec795242dd1153bfe9e2d4f8e7b0b8ed23e8ea87117243698f4142600288604051610bb79392919061442b565b60405180910390a35050505050565b610bce613330565b60076000815480929190610be190614491565b9190505550600754816000018181525050600081604001906002811115610c0b57610c0a6135bf565b5b90816002811115610c1f57610c1e6135bf565b5b8152505080600e60006007548152602001908152602001600020600082015181600001556020820151816001019080519060200190610c5f929190613363565b5060408201518160020160006101000a81548160ff02191690836002811115610c8b57610c8a6135bf565b5b0217905550905050600d60008381526020019081526020016000206002016007549080600181540180825580915050600190039060005260206000200160009091909190915055816007547f052d58841974a9fb2d33ae2d55c1a7a5a100b612c792773478c1f897e123c6246000604051610d0691906144d9565b60405180910390a35050565b600d6020528060005260406000206000915090508060000154908060010160009054906101000a900473ffffffffffffffffffffffffffffffffffffffff16908060030160009054906101000a900460ff16905083565b600082816002811115610d7f57610d7e6135bf565b5b600d600083815260200190815260200160002060030160009054906101000a900460ff166002811115610db557610db46135bf565b5b14610df5576040517f08c379a0000000000000000000000000000000000000000000000000000000008152600401610dec90614540565b60405180910390fd5b600d600085815260200190815260200160002060010160009054906101000a900473ffffffffffffffffffffffffffffffffffffffff1673ffffffffffffffffffffffffffffffffffffffff163373ffffffffffffffffffffffffffffffffffffffff1614610e99576040517f08c379a0000000000000000000000000000000000000000000000000000000008152600401610e90906145ac565b60405180910390fd5b6001600d600086815260200190815260200160002060030160006101000a81548160ff02191690836002811115610ed357610ed26135bf565b5b0217905550600260009054906101000a900473ffffffffffffffffffffffffffffffffffffffff1673ffffffffffffffffffffffffffffffffffffffff1663b1ed87de8585600d60008981526020019081526020016000206002016040518463ffffffff1660e01b8152600401610f4c939291906146b3565b600060405180830381600087803b158015610f6657600080fd5b505af1158015610f7a573d6000803e3d6000fd5b505050503373ffffffffffffffffffffffffffffffffffffffff16847f3c8b8b4a3858f4fc2413b52ff2a6744af5c45313454e7e567fbf59b1cf1235a98542600d60008a815260200190815260200160002060030160009054906101000a900460ff16604051610fec939291906146f1565b60405180910390a350505050565b6001828160028111156110105761100f6135bf565b5b600e600083815260200190815260200160002060020160009054906101000a900460ff166002811115611046576110456135bf565b5b14611086576040517f08c379a000000000000000000000000000000000000000000000000000000000815260040161107d90614774565b60405180910390fd5b6002600e600086815260200190815260200160002060020160006101000a81548160ff021916908360028111156110c0576110bf6135bf565b5b02179055506000600e60008681526020019081526020016000206001018054905067ffffffffffffffff8111156110fa576110f9613ef0565b5b60405190808252806020026020018201604052801561113357816020015b6111206133b0565b8152602001906001900390816111185790505b50905060005b600e60008781526020019081526020016000206001018054905081101561134b57600c6000600e6000898152602001908152602001600020600101838154811061118657611185614794565b5b9060005260206000200154815260200190815260200160002060405180610120016040529081600082015481526020016001820154815260200160028201548152602001600382015481526020016004820160009054906101000a900473ffffffffffffffffffffffffffffffffffffffff1673ffffffffffffffffffffffffffffffffffffffff1673ffffffffffffffffffffffffffffffffffffffff1681526020016005820160009054906101000a900473ffffffffffffffffffffffffffffffffffffffff1673ffffffffffffffffffffffffffffffffffffffff1673ffffffffffffffffffffffffffffffffffffffff1681526020016006820160009054906101000a900473ffffffffffffffffffffffffffffffffffffffff1673ffffffffffffffffffffffffffffffffffffffff1673ffffffffffffffffffffffffffffffffffffffff168152602001600782015481526020016008820160009054906101000a900460ff166004811115611304576113036135bf565b5b6004811115611316576113156135bf565b5b8152505082828151811061132d5761132c614794565b5b6020026020010181905250808061134390614491565b915050611139565b50600160009054906101000a900473ffffffffffffffffffffffffffffffffffffffff1673ffffffffffffffffffffffffffffffffffffffff16633d7469d2878388886040518563ffffffff1660e01b81526004016113ad94939291906147c3565b600060405180830381600087803b1580156113c757600080fd5b505af11580156113db573d6000803e3d6000fd5b50505050847fa8bea390d9982d0ee49859be0a341988f8924ac0fff7e4c1c86637095d7e2154854260026040516114149392919061480f565b60405180910390a2505050505050565b600360009054906101000a900473ffffffffffffffffffffffffffffffffffffffff1681565b611452613121565b80600560006101000a81548173ffffffffffffffffffffffffffffffffffffffff021916908373ffffffffffffffffffffffffffffffffffffffff16021790555050565b61149e613121565b80600360006101000a81548173ffffffffffffffffffffffffffffffffffffffff021916908373ffffffffffffffffffffffffffffffffffffffff16021790555050565b6002828160048111156114f8576114f76135bf565b5b600c600083815260200190815260200160002060080160009054906101000a900460ff16600481111561152e5761152d6135bf565b5b1461156e576040517f08c379a000000000000000000000000000000000000000000000000000000000815260040161156590614185565b60405180910390fd5b600c600085815260200190815260200160002060060160009054906101000a900473ffffffffffffffffffffffffffffffffffffffff1673ffffffffffffffffffffffffffffffffffffffff163373ffffffffffffffffffffffffffffffffffffffff16148061163f5750600c600085815260200190815260200160002060050160009054906101000a900473ffffffffffffffffffffffffffffffffffffffff1673ffffffffffffffffffffffffffffffffffffffff163373ffffffffffffffffffffffffffffffffffffffff16145b61167e576040517f08c379a000000000000000000000000000000000000000000000000000000000815260040161167590614892565b60405180910390fd5b600c600085815260200190815260200160002060060160009054906101000a900473ffffffffffffffffffffffffffffffffffffffff1673ffffffffffffffffffffffffffffffffffffffff163373ffffffffffffffffffffffffffffffffffffffff16036117035782600c6000868152602001908152602001600020600101819055505b600c600085815260200190815260200160002060050160009054906101000a900473ffffffffffffffffffffffffffffffffffffffff1673ffffffffffffffffffffffffffffffffffffffff163373ffffffffffffffffffffffffffffffffffffffff16036117885782600c6000868152602001908152602001600020600101819055505b3373ffffffffffffffffffffffffffffffffffffffff16847f5b229384b7df9a4eed61352626b300c5ade2b6900738b23d481b01dd6532bed885426040516117d19291906148b2565b60405180910390a350505050565b6117e7613121565b80600160006101000a81548173ffffffffffffffffffffffffffffffffffffffff021916908373ffffffffffffffffffffffffffffffffffffffff16021790555050565b600c6020528060005260406000206000915090508060000154908060010154908060020154908060030154908060040160009054906101000a900473ffffffffffffffffffffffffffffffffffffffff16908060050160009054906101000a900473ffffffffffffffffffffffffffffffffffffffff16908060060160009054906101000a900473ffffffffffffffffffffffffffffffffffffffff16908060070154908060080160009054906101000a900460ff16905089565b6118ee6133b0565b6008600081548092919061190190614491565b919050555060085481600001818152505085816020018181525050848160400181815250508381606001818152505082816080019073ffffffffffffffffffffffffffffffffffffffff16908173ffffffffffffffffffffffffffffffffffffffff1681525050818160c0019073ffffffffffffffffffffffffffffffffffffffff16908173ffffffffffffffffffffffffffffffffffffffff1681525050600081610100019060048111156119ba576119b96135bf565b5b908160048111156119ce576119cd6135bf565b5b81525050600e6000888152602001908152602001600020600101600854908060018154018082558091505060019003906000526020600020016000909190919091505580600c600060085481526020019081526020016000206000820151816000015560208201518160010155604082015181600201556060820151816003015560808201518160040160006101000a81548173ffffffffffffffffffffffffffffffffffffffff021916908373ffffffffffffffffffffffffffffffffffffffff16021790555060a08201518160050160006101000a81548173ffffffffffffffffffffffffffffffffffffffff021916908373ffffffffffffffffffffffffffffffffffffffff16021790555060c08201518160060160006101000a81548173ffffffffffffffffffffffffffffffffffffffff021916908373ffffffffffffffffffffffffffffffffffffffff16021790555060e082015181600701556101008201518160080160006101000a81548160ff02191690836004811115611b5a57611b596135bf565b5b02179055509050508173ffffffffffffffffffffffffffffffffffffffff168373ffffffffffffffffffffffffffffffffffffffff16887f3c5215ce77d10b70bf61356a248d964111923ae20588d36bd4b877d26827b8866008548a8a8a6000604051611bcb9594939291906148db565b60405180910390a450505050505050565b600281816004811115611bf257611bf16135bf565b5b600c600083815260200190815260200160002060080160009054906101000a900460ff166004811115611c2857611c276135bf565b5b14611c68576040517f08c379a0000000000000000000000000000000000000000000000000000000008152600401611c5f90614185565b60405180910390fd5b82600c60008581526020019081526020016000206000015414611cc0576040517f08c379a0000000000000000000000000000000000000000000000000000000008152600401611cb79061425d565b60405180910390fd5b600c600084815260200190815260200160002060050160009054906101000a900473ffffffffffffffffffffffffffffffffffffffff1673ffffffffffffffffffffffffffffffffffffffff163373ffffffffffffffffffffffffffffffffffffffff1614611d64576040517f08c379a0000000000000000000000000000000000000000000000000000000008152600401611d5b906141f1565b60405180910390fd5b6003600c600085815260200190815260200160002060080160006101000a81548160ff02191690836004811115611d9e57611d9d6135bf565b5b02179055503373ffffffffffffffffffffffffffffffffffffffff16837f4a6651a8a4523ecdd2253c608b6eb24b0341e55899d82ec0a7196fb1ab3e0925426003604051611ded92919061492e565b60405180910390a3505050565b611e02613121565b611e0c600061319f565b565b611e16613450565b60066000815480929190611e2990614491565b919050555060065481600001818152505081816020019073ffffffffffffffffffffffffffffffffffffffff16908173ffffffffffffffffffffffffffffffffffffffff1681525050600081606001906002811115611e8b57611e8a6135bf565b5b90816002811115611e9f57611e9e6135bf565b5b8152505080600d600060065481526020019081526020016000206000820151816000015560208201518160010160006101000a81548173ffffffffffffffffffffffffffffffffffffffff021916908373ffffffffffffffffffffffffffffffffffffffff1602179055506040820151816002019080519060200190611f26929190613363565b5060608201518160030160006101000a81548160ff02191690836002811115611f5257611f516135bf565b5b0217905550905050600a8190806001815401808255809150506001900390600052602060002090600402016000909190919091506000820151816000015560208201518160010160006101000a81548173ffffffffffffffffffffffffffffffffffffffff021916908373ffffffffffffffffffffffffffffffffffffffff1602179055506040820151816002019080519060200190611ff3929190613363565b5060608201518160030160006101000a81548160ff0219169083600281111561201f5761201e6135bf565b5b021790555050508173ffffffffffffffffffffffffffffffffffffffff166006547f4f4f87b2b948be42035cc086b1a4727e5d8169af7efcfc2bd87db90e295b0fb460006040516120709190614957565b60405180910390a35050565b600382816004811115612092576120916135bf565b5b600c600083815260200190815260200160002060080160009054906101000a900460ff1660048111156120c8576120c76135bf565b5b14612108576040517f08c379a00000000000000000000000000000000000000000000000000000000081526004016120ff90614185565b60405180910390fd5b600c600085815260200190815260200160002060060160009054906101000a900473ffffffffffffffffffffffffffffffffffffffff1673ffffffffffffffffffffffffffffffffffffffff163373ffffffffffffffffffffffffffffffffffffffff16146121ac576040517f08c379a00000000000000000000000000000000000000000000000000000000081526004016121a3906149be565b60405180910390fd5b83600c60008681526020019081526020016000206000015414612204576040517f08c379a00000000000000000000000000000000000000000000000000000000081526004016121fb90614a2a565b60405180910390fd5b6122596040518060400160405280600681526020017f7265776172640000000000000000000000000000000000000000000000000000815250600c600087815260200190815260200160002060020154613263565b6000606484600c60008881526020019081526020016000206002015461227f9190614a4a565b6122899190614abb565b9050600460009054906101000a900473ffffffffffffffffffffffffffffffffffffffff1673ffffffffffffffffffffffffffffffffffffffff1663f18d03cc600460009054906101000a900473ffffffffffffffffffffffffffffffffffffffff16600560009054906101000a900473ffffffffffffffffffffffffffffffffffffffff16600c60008a815260200190815260200160002060050160009054906101000a900473ffffffffffffffffffffffffffffffffffffffff16856040518563ffffffff1660e01b815260040161236694939291906143e6565b600060405180830381600087803b15801561238057600080fd5b505af1158015612394573d6000803e3d6000fd5b50505050600360009054906101000a900473ffffffffffffffffffffffffffffffffffffffff1673ffffffffffffffffffffffffffffffffffffffff16635873074686600c600089815260200190815260200160002060050160009054906101000a900473ffffffffffffffffffffffffffffffffffffffff16876040518463ffffffff1660e01b815260040161242d93929190614aec565b600060405180830381600087803b15801561244757600080fd5b505af115801561245b573d6000803e3d6000fd5b505050506004600c600087815260200190815260200160002060080160006101000a81548160ff02191690836004811115612499576124986135bf565b5b02179055503373ffffffffffffffffffffffffffffffffffffffff16857f59740400b1e66dd4640c547de08c4922a69ed5384ebd7e670c7cd49dbf2f4e70866004426040516124ea9392919061442b565b60405180910390a35050505050565b612501613121565b80600460006101000a81548173ffffffffffffffffffffffffffffffffffffffff021916908373ffffffffffffffffffffffffffffffffffffffff16021790555050565b60606000600e60008481526020019081526020016000206001018054905067ffffffffffffffff81111561257c5761257b613ef0565b5b6040519080825280602002602001820160405280156125b557816020015b6125a26133b0565b81526020019060019003908161259a5790505b50905060005b600e6000858152602001908152602001600020600101805490508110156127cd57600c6000600e6000878152602001908152602001600020600101838154811061260857612607614794565b5b9060005260206000200154815260200190815260200160002060405180610120016040529081600082015481526020016001820154815260200160028201548152602001600382015481526020016004820160009054906101000a900473ffffffffffffffffffffffffffffffffffffffff1673ffffffffffffffffffffffffffffffffffffffff1673ffffffffffffffffffffffffffffffffffffffff1681526020016005820160009054906101000a900473ffffffffffffffffffffffffffffffffffffffff1673ffffffffffffffffffffffffffffffffffffffff1673ffffffffffffffffffffffffffffffffffffffff1681526020016006820160009054906101000a900473ffffffffffffffffffffffffffffffffffffffff1673ffffffffffffffffffffffffffffffffffffffff1673ffffffffffffffffffffffffffffffffffffffff168152602001600782015481526020016008820160009054906101000a900460ff166004811115612786576127856135bf565b5b6004811115612798576127976135bf565b5b815250508282815181106127af576127ae614794565b5b602002602001018190525080806127c590614491565b9150506125bb565b5080915050919050565b60075481565b600160009054906101000a900473ffffffffffffffffffffffffffffffffffffffff1681565b6009818154811061281357600080fd5b90600052602060002090600902016000915090508060000154908060010154908060020154908060030154908060040160009054906101000a900473ffffffffffffffffffffffffffffffffffffffff16908060050160009054906101000a900473ffffffffffffffffffffffffffffffffffffffff16908060060160009054906101000a900473ffffffffffffffffffffffffffffffffffffffff16908060070154908060080160009054906101000a900460ff16905089565b60008060009054906101000a900473ffffffffffffffffffffffffffffffffffffffff16905090565b60065481565b6060600060065467ffffffffffffffff81111561291d5761291c613ef0565b5b60405190808252806020026020018201604052801561295657816020015b612943613450565b81526020019060019003908161293b5790505b50905060005b600654811015612ab457600d60006001836129779190614b23565b8152602001908152602001600020604051806080016040529081600082015481526020016001820160009054906101000a900473ffffffffffffffffffffffffffffffffffffffff1673ffffffffffffffffffffffffffffffffffffffff1673ffffffffffffffffffffffffffffffffffffffff16815260200160028201805480602002602001604051908101604052809291908181526020018280548015612a3f57602002820191906000526020600020905b815481526020019060010190808311612a2b575b505050505081526020016003820160009054906101000a900460ff166002811115612a6d57612a6c6135bf565b5b6002811115612a7f57612a7e6135bf565b5b81525050828281518110612a9657612a95614794565b5b60200260200101819052508080612aac90614491565b91505061295c565b508091505090565b600260009054906101000a900473ffffffffffffffffffffffffffffffffffffffff1673ffffffffffffffffffffffffffffffffffffffff163373ffffffffffffffffffffffffffffffffffffffff1614612b4c576040517f08c379a0000000000000000000000000000000000000000000000000000000008152600401612b4390614ba3565b60405180910390fd5b6001600e600083815260200190815260200160002060020160006101000a81548160ff02191690836002811115612b8657612b856135bf565b5b021790555050565b600560009054906101000a900473ffffffffffffffffffffffffffffffffffffffff1681565b600a8181548110612bc457600080fd5b90600052602060002090600402016000915090508060000154908060010160009054906101000a900473ffffffffffffffffffffffffffffffffffffffff16908060030160009054906101000a900460ff16905083565b60085481565b600260009054906101000a900473ffffffffffffffffffffffffffffffffffffffff1681565b60606000600d60008481526020019081526020016000206002018054905067ffffffffffffffff811115612c7e57612c7d613ef0565b5b604051908082528060200260200182016040528015612cb757816020015b612ca4613330565b815260200190600190039081612c9c5790505b50905060005b600d600085815260200190815260200160002060020180549050811015612dfc57600e6000600d60008781526020019081526020016000206002018381548110612d0a57612d09614794565b5b906000526020600020015481526020019081526020016000206040518060600160405290816000820154815260200160018201805480602002602001604051908101604052809291908181526020018280548015612d8757602002820191906000526020600020905b815481526020019060010190808311612d73575b505050505081526020016002820160009054906101000a900460ff166002811115612db557612db46135bf565b5b6002811115612dc757612dc66135bf565b5b81525050828281518110612dde57612ddd614794565b5b60200260200101819052508080612df490614491565b915050612cbd565b5080915050919050565b600160009054906101000a900473ffffffffffffffffffffffffffffffffffffffff1673ffffffffffffffffffffffffffffffffffffffff163373ffffffffffffffffffffffffffffffffffffffff1614612e96576040517f08c379a0000000000000000000000000000000000000000000000000000000008152600401612e8d90614c0f565b60405180910390fd5b8060400151600c600083600001518152602001908152602001600020600201819055508060a00151600c60008360000151815260200190815260200160002060050160006101000a81548173ffffffffffffffffffffffffffffffffffffffff021916908373ffffffffffffffffffffffffffffffffffffffff1602179055506001600c60008360000151815260200190815260200160002060080160006101000a81548160ff02191690836004811115612f5457612f536135bf565b5b02179055508060a0015173ffffffffffffffffffffffffffffffffffffffff1681600001517f920e43a70e254a0f059f29c319db623ba9b9123360c97c5d12da8474342750f683604001516001604051612faf92919061492e565b60405180910390a350565b600460009054906101000a900473ffffffffffffffffffffffffffffffffffffffff1681565b612fe8613121565b600073ffffffffffffffffffffffffffffffffffffffff168173ffffffffffffffffffffffffffffffffffffffff1603613057576040517f08c379a000000000000000000000000000000000000000000000000000000000815260040161304e90614ca1565b60405180910390fd5b6130608161319f565b50565b600b818154811061307357600080fd5b90600052602060002090600302016000915090508060000154908060020160009054906101000a900460ff16905082565b600e6020528060005260406000206000915090508060000154908060020160009054906101000a900460ff16905082565b6130dd613121565b80600260006101000a81548173ffffffffffffffffffffffffffffffffffffffff021916908373ffffffffffffffffffffffffffffffffffffffff16021790555050565b6131296132ff565b73ffffffffffffffffffffffffffffffffffffffff166131476128ce565b73ffffffffffffffffffffffffffffffffffffffff161461319d576040517f08c379a000000000000000000000000000000000000000000000000000000000815260040161319490614d0d565b60405180910390fd5b565b60008060009054906101000a900473ffffffffffffffffffffffffffffffffffffffff169050816000806101000a81548173ffffffffffffffffffffffffffffffffffffffff021916908373ffffffffffffffffffffffffffffffffffffffff1602179055508173ffffffffffffffffffffffffffffffffffffffff168173ffffffffffffffffffffffffffffffffffffffff167f8be0079c531659141344cd1fd0a4f28419497f9722a3daafe3b4186f6b6457e060405160405180910390a35050565b6132fb8282604051602401613279929190614d9b565b6040516020818303038152906040527fb60e72cc000000000000000000000000000000000000000000000000000000007bffffffffffffffffffffffffffffffffffffffffffffffffffffffff19166020820180517bffffffffffffffffffffffffffffffffffffffffffffffffffffffff8381831617835250505050613307565b5050565b600033905090565b60008151905060006a636f6e736f6c652e6c6f679050602083016000808483855afa5050505050565b604051806060016040528060008152602001606081526020016000600281111561335d5761335c6135bf565b5b81525090565b82805482825590600052602060002090810192821561339f579160200282015b8281111561339e578251825591602001919060010190613383565b5b5090506133ac91906134a0565b5090565b60405180610120016040528060008152602001600081526020016000815260200160008152602001600073ffffffffffffffffffffffffffffffffffffffff168152602001600073ffffffffffffffffffffffffffffffffffffffff168152602001600073ffffffffffffffffffffffffffffffffffffffff168152602001600081526020016000600481111561344a576134496135bf565b5b81525090565b604051806080016040528060008152602001600073ffffffffffffffffffffffffffffffffffffffff168152602001606081526020016000600281111561349a576134996135bf565b5b81525090565b5b808211156134b95760008160009055506001016134a1565b5090565b6000604051905090565b600080fd5b6000819050919050565b6134df816134cc565b81146134ea57600080fd5b50565b6000813590506134fc816134d6565b92915050565b60008060408385031215613519576135186134c7565b5b6000613527858286016134ed565b9250506020613538858286016134ed565b9150509250929050565b600060208284031215613558576135576134c7565b5b6000613566848285016134ed565b91505092915050565b613578816134cc565b82525050565b600073ffffffffffffffffffffffffffffffffffffffff82169050919050565b60006135a98261357e565b9050919050565b6135b98161359e565b82525050565b7f4e487b7100000000000000000000000000000000000000000000000000000000600052602160045260246000fd5b600381106135ff576135fe6135bf565b5b50565b6000819050613610826135ee565b919050565b600061362082613602565b9050919050565b61363081613615565b82525050565b600060608201905061364b600083018661356f565b61365860208301856135b0565b6136656040830184613627565b949350505050565b600080600060608486031215613686576136856134c7565b5b6000613694868287016134ed565b93505060206136a5868287016134ed565b92505060406136b6868287016134ed565b9150509250925092565b6000819050919050565b60006136e56136e06136db8461357e565b6136c0565b61357e565b9050919050565b60006136f7826136ca565b9050919050565b6000613709826136ec565b9050919050565b613719816136fe565b82525050565b60006020820190506137346000830184613710565b92915050565b6137438161359e565b811461374e57600080fd5b50565b6000813590506137608161373a565b92915050565b60006020828403121561377c5761377b6134c7565b5b600061378a84828501613751565b91505092915050565b600581106137a4576137a36135bf565b5b50565b60008190506137b582613793565b919050565b60006137c5826137a7565b9050919050565b6137d5816137ba565b82525050565b6000610120820190506137f1600083018c61356f565b6137fe602083018b61356f565b61380b604083018a61356f565b613818606083018961356f565b61382560808301886135b0565b61383260a08301876135b0565b61383f60c08301866135b0565b61384c60e083018561356f565b61385a6101008301846137cc565b9a9950505050505050505050565b60008060008060008060c08789031215613885576138846134c7565b5b600061389389828a016134ed565b96505060206138a489828a016134ed565b95505060406138b589828a016134ed565b94505060606138c689828a016134ed565b93505060806138d789828a01613751565b92505060a06138e889828a01613751565b9150509295509295509295565b600081519050919050565b600082825260208201905092915050565b6000819050602082019050919050565b61392a816134cc565b82525050565b6139398161359e565b82525050565b613948816137ba565b82525050565b610120820160008201516139656000850182613921565b5060208201516139786020850182613921565b50604082015161398b6040850182613921565b50606082015161399e6060850182613921565b5060808201516139b16080850182613930565b5060a08201516139c460a0850182613930565b5060c08201516139d760c0850182613930565b5060e08201516139ea60e0850182613921565b506101008201516139ff61010085018261393f565b50505050565b6000613a11838361394e565b6101208301905092915050565b6000602082019050919050565b6000613a36826138f5565b613a408185613900565b9350613a4b83613911565b8060005b83811015613a7c578151613a638882613a05565b9750613a6e83613a1e565b925050600181019050613a4f565b5085935050505092915050565b60006020820190508181036000830152613aa38184613a2b565b905092915050565b6000602082019050613ac0600083018461356f565b92915050565b6000613ad1826136ec565b9050919050565b613ae181613ac6565b82525050565b6000602082019050613afc6000830184613ad8565b92915050565b6000602082019050613b1760008301846135b0565b92915050565b600081519050919050565b600082825260208201905092915050565b6000819050602082019050919050565b600081519050919050565b600082825260208201905092915050565b6000819050602082019050919050565b6000613b818383613921565b60208301905092915050565b6000602082019050919050565b6000613ba582613b49565b613baf8185613b54565b9350613bba83613b65565b8060005b83811015613beb578151613bd28882613b75565b9750613bdd83613b8d565b925050600181019050613bbe565b5085935050505092915050565b613c0181613615565b82525050565b6000608083016000830151613c1f6000860182613921565b506020830151613c326020860182613930565b5060408301518482036040860152613c4a8282613b9a565b9150506060830151613c5f6060860182613bf8565b508091505092915050565b6000613c768383613c07565b905092915050565b6000602082019050919050565b6000613c9682613b1d565b613ca08185613b28565b935083602082028501613cb285613b39565b8060005b85811015613cee5784840389528151613ccf8582613c6a565b9450613cda83613c7e565b925060208a01995050600181019050613cb6565b50829750879550505050505092915050565b60006020820190508181036000830152613d1a8184613c8b565b905092915050565b6000613d2d826136ec565b9050919050565b613d3d81613d22565b82525050565b6000602082019050613d586000830184613d34565b92915050565b600081519050919050565b600082825260208201905092915050565b6000819050602082019050919050565b60038110613d9b57613d9a6135bf565b5b50565b6000819050613dac82613d8a565b919050565b6000613dbc82613d9e565b9050919050565b613dcc81613db1565b82525050565b6000606083016000830151613dea6000860182613921565b5060208301518482036020860152613e028282613b9a565b9150506040830151613e176040860182613dc3565b508091505092915050565b6000613e2e8383613dd2565b905092915050565b6000602082019050919050565b6000613e4e82613d5e565b613e588185613d69565b935083602082028501613e6a85613d7a565b8060005b85811015613ea65784840389528151613e878582613e22565b9450613e9283613e36565b925060208a01995050600181019050613e6e565b50829750879550505050505092915050565b60006020820190508181036000830152613ed28184613e43565b905092915050565b600080fd5b6000601f19601f8301169050919050565b7f4e487b7100000000000000000000000000000000000000000000000000000000600052604160045260246000fd5b613f2882613edf565b810181811067ffffffffffffffff82111715613f4757613f46613ef0565b5b80604052505050565b6000613f5a6134bd565b9050613f668282613f1f565b919050565b60058110613f7857600080fd5b50565b600081359050613f8a81613f6b565b92915050565b60006101408284031215613fa757613fa6613eda565b5b613fb2610140613f50565b90506000613fc2848285016134ed565b6000830152506020613fd6848285016134ed565b6020830152506040613fea848285016134ed565b6040830152506060613ffe848285016134ed565b606083015250608061401284828501613751565b60808301525060a061402684828501613751565b60a08301525060c061403a84828501613751565b60c08301525060e061404e84828501613f7b565b60e083015250610100614063848285016134ed565b6101008301525061012061407984828501613751565b6101208301525092915050565b6000610140828403121561409d5761409c6134c7565b5b60006140ab84828501613f90565b91505092915050565b60006140bf826136ec565b9050919050565b6140cf816140b4565b82525050565b60006020820190506140ea60008301846140c6565b92915050565b6140f981613db1565b82525050565b6000604082019050614114600083018561356f565b61412160208301846140f0565b9392505050565b600082825260208201905092915050565b7f4572726f723a20496e76616c6964205461736b20537461746500000000000000600082015250565b600061416f601983614128565b915061417a82614139565b602082019050919050565b6000602082019050818103600083015261419e81614162565b9050919050565b7f4f6e6c7920646f65722063616e2063616c6c0000000000000000000000000000600082015250565b60006141db601283614128565b91506141e6826141a5565b602082019050919050565b6000602082019050818103600083015261420a816141ce565b9050919050565b7f7461736b4944206e6f7420666f756e6400000000000000000000000000000000600082015250565b6000614247601083614128565b915061425282614211565b602082019050919050565b600060208201905081810360008301526142768161423a565b9050919050565b60008151905061428c816134d6565b92915050565b6000602082840312156142a8576142a76134c7565b5b60006142b68482850161427d565b91505092915050565b60006040820190506142d460008301856135b0565b6142e160208301846135b0565b9392505050565b7f596f75722062616c616e6365206e6f7420656e6f756768000000000000000000600082015250565b600061431e601783614128565b9150614329826142e8565b602082019050919050565b6000602082019050818103600083015261434d81614311565b9050919050565b7f4e6f742070726f7669646520656e6f756768206d6f6e657920746f207265636560008201527f697665207461736b210000000000000000000000000000000000000000000000602082015250565b60006143b0602983614128565b91506143bb82614354565b604082019050919050565b600060208201905081810360008301526143df816143a3565b9050919050565b60006080820190506143fb60008301876135b0565b61440860208301866135b0565b61441560408301856135b0565b614422606083018461356f565b95945050505050565b6000606082019050614440600083018661356f565b61444d60208301856137cc565b61445a604083018461356f565b949350505050565b7f4e487b7100000000000000000000000000000000000000000000000000000000600052601160045260246000fd5b600061449c826134cc565b91507fffffffffffffffffffffffffffffffffffffffffffffffffffffffffffffffff82036144ce576144cd614462565b5b600182019050919050565b60006020820190506144ee60008301846140f0565b92915050565b7f4572726f723a20496e76616c696420506f6c6c20537461746500000000000000600082015250565b600061452a601983614128565b9150614535826144f4565b602082019050919050565b600060208201905081810360008301526145598161451d565b9050919050565b7f596f75206e6f74206f776e207468697320506f6c6c0000000000000000000000600082015250565b6000614596601583614128565b91506145a182614560565b602082019050919050565b600060208201905081810360008301526145c581614589565b9050919050565b600081549050919050565b600082825260208201905092915050565b60008190508160005260206000209050919050565b60008160001c9050919050565b6000819050919050565b6000614627614622836145fd565b61460a565b9050919050565b600061463a8254614614565b9050919050565b6000600182019050919050565b6000614659826145cc565b61466381856145d7565b935061466e836145e8565b8060005b838110156146a6576146838261462e565b61468d8882613b75565b975061469883614641565b925050600181019050614672565b5085935050505092915050565b60006060820190506146c8600083018661356f565b6146d5602083018561356f565b81810360408301526146e7818461464e565b9050949350505050565b6000606082019050614706600083018661356f565b614713602083018561356f565b6147206040830184613627565b949350505050565b7f4572726f723a20496e76616c6964204261746368205461736b20537461746500600082015250565b600061475e601f83614128565b915061476982614728565b602082019050919050565b6000602082019050818103600083015261478d81614751565b9050919050565b7f4e487b7100000000000000000000000000000000000000000000000000000000600052603260045260246000fd5b60006080820190506147d8600083018761356f565b81810360208301526147ea8186613a2b565b90506147f9604083018561356f565b614806606083018461356f565b95945050505050565b6000606082019050614824600083018661356f565b614831602083018561356f565b61483e60408301846140f0565b949350505050565b7f4f6e6c7920646f6572206f722072657669657765722063616e2063616c6c0000600082015250565b600061487c601e83614128565b915061488782614846565b602082019050919050565b600060208201905081810360008301526148ab8161486f565b9050919050565b60006040820190506148c7600083018561356f565b6148d4602083018461356f565b9392505050565b600060a0820190506148f0600083018861356f565b6148fd602083018761356f565b61490a604083018661356f565b614917606083018561356f565b61492460808301846137cc565b9695505050505050565b6000604082019050614943600083018561356f565b61495060208301846137cc565b9392505050565b600060208201905061496c6000830184613627565b92915050565b7f4f6e6c792072657669657765722063616e2063616c6c00000000000000000000600082015250565b60006149a8601683614128565b91506149b382614972565b602082019050919050565b600060208201905081810360008301526149d78161499b565b9050919050565b7f7461736b4944206f722062617463685461736b4944206e6f7420666f756e6400600082015250565b6000614a14601f83614128565b9150614a1f826149de565b602082019050919050565b60006020820190508181036000830152614a4381614a07565b9050919050565b6000614a55826134cc565b9150614a60836134cc565b9250828202614a6e816134cc565b91508282048414831517614a8557614a84614462565b5b5092915050565b7f4e487b7100000000000000000000000000000000000000000000000000000000600052601260045260246000fd5b6000614ac6826134cc565b9150614ad1836134cc565b925082614ae157614ae0614a8c565b5b828204905092915050565b6000606082019050614b01600083018661356f565b614b0e60208301856135b0565b614b1b604083018461356f565b949350505050565b6000614b2e826134cc565b9150614b39836134cc565b9250828201905080821115614b5157614b50614462565b5b92915050565b7f4f6e6c792063616c6c2062792042617463685461736b566f74696e6700000000600082015250565b6000614b8d601c83614128565b9150614b9882614b57565b602082019050919050565b60006020820190508181036000830152614bbc81614b80565b9050919050565b7f4f6e6c792063616c6c206279205461736b41756374696f6e0000000000000000600082015250565b6000614bf9601883614128565b9150614c0482614bc3565b602082019050919050565b60006020820190508181036000830152614c2881614bec565b9050919050565b7f4f776e61626c653a206e6577206f776e657220697320746865207a65726f206160008201527f6464726573730000000000000000000000000000000000000000000000000000602082015250565b6000614c8b602683614128565b9150614c9682614c2f565b604082019050919050565b60006020820190508181036000830152614cba81614c7e565b9050919050565b7f4f776e61626c653a2063616c6c6572206973206e6f7420746865206f776e6572600082015250565b6000614cf7602083614128565b9150614d0282614cc1565b602082019050919050565b60006020820190508181036000830152614d2681614cea565b9050919050565b600081519050919050565b60005b83811015614d56578082015181840152602081019050614d3b565b60008484015250505050565b6000614d6d82614d2d565b614d778185614128565b9350614d87818560208601614d38565b614d9081613edf565b840191505092915050565b60006040820190508181036000830152614db58185614d62565b9050614dc4602083018461356f565b939250505056fea264697066735822122029ec3969a78bf881257901847d0d24e0b549099ba4d0274f54917edea7a4d2bf64736f6c63430008110033",
  "linkReferences": {},
  "deployedLinkReferences": {}
}