{
  "_format": "hh-sol-artifact-1",
  "contractName": "TaskAuction",
  "sourceName": "contracts/TaskAuction.sol",
  "abi": [
    {
      "anonymous": false,
      "inputs": [
        {
          "indexed": true,
          "internalType": "uint256",
          "name": "batchTaskId",
          "type": "uint256"
        },
        {
          "components": [
            {
              "internalType": "uint256",
              "name": "taskId",
              "type": "uint256"
            },
            {
              "internalType": "uint256",
              "name": "point",
              "type": "uint256"
            },
            {
              "internalType": "uint256",
              "name": "reward",
              "type": "uint256"
            },
            {
              "internalType": "uint256",
              "name": "minReward",
              "type": "uint256"
            },
            {
              "internalType": "address",
              "name": "reporter",
              "type": "address"
            },
            {
              "internalType": "address",
              "name": "doer",
              "type": "address"
            },
            {
              "internalType": "address",
              "name": "reviewer",
              "type": "address"
            },
            {
              "internalType": "enum ITaskAuction.TASK_STATE",
              "name": "taskState",
              "type": "uint8"
            },
            {
              "internalType": "uint256",
              "name": "lowestBidAmount",
              "type": "uint256"
            },
            {
              "internalType": "address",
              "name": "lowestBidder",
              "type": "address"
            }
          ],
          "indexed": false,
          "internalType": "struct ITaskAuction.AuctionTask",
          "name": "taskAssigned",
          "type": "tuple"
        },
        {
          "indexed": false,
          "internalType": "uint256",
          "name": "assignTime",
          "type": "uint256"
        }
      ],
      "name": "AssignTask",
      "type": "event"
    },
    {
      "anonymous": false,
      "inputs": [
        {
          "indexed": false,
          "internalType": "enum ITaskAuction.BATCH_TASK_STATE",
          "name": "batchTaskState",
          "type": "uint8"
        },
        {
          "indexed": true,
          "internalType": "uint256",
          "name": "batchTaskId",
          "type": "uint256"
        },
        {
          "components": [
            {
              "internalType": "uint256",
              "name": "taskId",
              "type": "uint256"
            },
            {
              "internalType": "uint256",
              "name": "point",
              "type": "uint256"
            },
            {
              "internalType": "uint256",
              "name": "reward",
              "type": "uint256"
            },
            {
              "internalType": "uint256",
              "name": "minReward",
              "type": "uint256"
            },
            {
              "internalType": "address",
              "name": "reporter",
              "type": "address"
            },
            {
              "internalType": "address",
              "name": "doer",
              "type": "address"
            },
            {
              "internalType": "address",
              "name": "reviewer",
              "type": "address"
            },
            {
              "internalType": "enum ITaskAuction.TASK_STATE",
              "name": "taskState",
              "type": "uint8"
            },
            {
              "internalType": "uint256",
              "name": "lowestBidAmount",
              "type": "uint256"
            },
            {
              "internalType": "address",
              "name": "lowestBidder",
              "type": "address"
            }
          ],
          "indexed": false,
          "internalType": "struct ITaskAuction.AuctionTask",
          "name": "auctionTask",
          "type": "tuple"
        },
        {
          "indexed": false,
          "internalType": "uint256",
          "name": "endTime",
          "type": "uint256"
        }
      ],
      "name": "EndAuction",
      "type": "event"
    },
    {
      "anonymous": false,
      "inputs": [
        {
          "indexed": false,
          "internalType": "string",
          "name": "notify",
          "type": "string"
        }
      ],
      "name": "Notify",
      "type": "event"
    },
    {
      "anonymous": false,
      "inputs": [
        {
          "indexed": true,
          "internalType": "uint256",
          "name": "_batchTaskId",
          "type": "uint256"
        },
        {
          "indexed": false,
          "internalType": "uint256",
          "name": "_auctionDuration",
          "type": "uint256"
        },
        {
          "components": [
            {
              "internalType": "uint256",
              "name": "taskId",
              "type": "uint256"
            },
            {
              "internalType": "uint256",
              "name": "point",
              "type": "uint256"
            },
            {
              "internalType": "uint256",
              "name": "reward",
              "type": "uint256"
            },
            {
              "internalType": "uint256",
              "name": "minReward",
              "type": "uint256"
            },
            {
              "internalType": "address",
              "name": "reporter",
              "type": "address"
            },
            {
              "internalType": "address",
              "name": "doer",
              "type": "address"
            },
            {
              "internalType": "address",
              "name": "reviewer",
              "type": "address"
            },
            {
              "internalType": "enum ITaskAuction.TASK_STATE",
              "name": "taskState",
              "type": "uint8"
            },
            {
              "internalType": "uint256",
              "name": "lowestBidAmount",
              "type": "uint256"
            },
            {
              "internalType": "address",
              "name": "lowestBidder",
              "type": "address"
            }
          ],
          "indexed": false,
          "internalType": "struct ITaskAuction.AuctionTask",
          "name": "auctionTask",
          "type": "tuple"
        },
        {
          "indexed": false,
          "internalType": "uint256",
          "name": "timeStart",
          "type": "uint256"
        }
      ],
      "name": "OpenTaskForAuction",
      "type": "event"
    },
    {
      "anonymous": false,
      "inputs": [
        {
          "indexed": true,
          "internalType": "address",
          "name": "previousOwner",
          "type": "address"
        },
        {
          "indexed": true,
          "internalType": "address",
          "name": "newOwner",
          "type": "address"
        }
      ],
      "name": "OwnershipTransferred",
      "type": "event"
    },
    {
      "anonymous": false,
      "inputs": [
        {
          "indexed": true,
          "internalType": "uint256",
          "name": "_taskID",
          "type": "uint256"
        },
        {
          "indexed": true,
          "internalType": "uint256",
          "name": "_batchTaskID",
          "type": "uint256"
        },
        {
          "components": [
            {
              "internalType": "uint256",
              "name": "taskId",
              "type": "uint256"
            },
            {
              "internalType": "uint256",
              "name": "point",
              "type": "uint256"
            },
            {
              "internalType": "uint256",
              "name": "reward",
              "type": "uint256"
            },
            {
              "internalType": "uint256",
              "name": "minReward",
              "type": "uint256"
            },
            {
              "internalType": "address",
              "name": "reporter",
              "type": "address"
            },
            {
              "internalType": "address",
              "name": "doer",
              "type": "address"
            },
            {
              "internalType": "address",
              "name": "reviewer",
              "type": "address"
            },
            {
              "internalType": "enum ITaskAuction.TASK_STATE",
              "name": "taskState",
              "type": "uint8"
            },
            {
              "internalType": "uint256",
              "name": "lowestBidAmount",
              "type": "uint256"
            },
            {
              "internalType": "address",
              "name": "lowestBidder",
              "type": "address"
            }
          ],
          "indexed": false,
          "internalType": "struct ITaskAuction.AuctionTask",
          "name": "auctionTask",
          "type": "tuple"
        },
        {
          "components": [
            {
              "internalType": "address payable",
              "name": "bidder",
              "type": "address"
            },
            {
              "internalType": "uint256",
              "name": "taskId",
              "type": "uint256"
            },
            {
              "internalType": "uint256",
              "name": "totalBidAmount",
              "type": "uint256"
            },
            {
              "internalType": "uint256",
              "name": "numberBid",
              "type": "uint256"
            }
          ],
          "indexed": false,
          "internalType": "struct ITaskAuction.Bid",
          "name": "bid",
          "type": "tuple"
        },
        {
          "indexed": false,
          "internalType": "uint256",
          "name": "bidTime",
          "type": "uint256"
        }
      ],
      "name": "PlaceBid",
      "type": "event"
    },
    {
      "inputs": [
        {
          "internalType": "uint256",
          "name": "",
          "type": "uint256"
        }
      ],
      "name": "auctionTasks",
      "outputs": [
        {
          "internalType": "uint256",
          "name": "taskId",
          "type": "uint256"
        },
        {
          "internalType": "uint256",
          "name": "point",
          "type": "uint256"
        },
        {
          "internalType": "uint256",
          "name": "reward",
          "type": "uint256"
        },
        {
          "internalType": "uint256",
          "name": "minReward",
          "type": "uint256"
        },
        {
          "internalType": "address",
          "name": "reporter",
          "type": "address"
        },
        {
          "internalType": "address",
          "name": "doer",
          "type": "address"
        },
        {
          "internalType": "address",
          "name": "reviewer",
          "type": "address"
        },
        {
          "internalType": "enum ITaskAuction.TASK_STATE",
          "name": "taskState",
          "type": "uint8"
        },
        {
          "internalType": "uint256",
          "name": "lowestBidAmount",
          "type": "uint256"
        },
        {
          "internalType": "address",
          "name": "lowestBidder",
          "type": "address"
        }
      ],
      "stateMutability": "view",
      "type": "function"
    },
    {
      "inputs": [],
      "name": "bankManager",
      "outputs": [
        {
          "internalType": "contract IBankManager",
          "name": "",
          "type": "address"
        }
      ],
      "stateMutability": "view",
      "type": "function"
    },
    {
      "inputs": [
        {
          "internalType": "uint256",
          "name": "",
          "type": "uint256"
        }
      ],
      "name": "batchTaskAuctions",
      "outputs": [
        {
          "internalType": "uint256",
          "name": "pollId",
          "type": "uint256"
        },
        {
          "internalType": "uint256",
          "name": "batchTaskId",
          "type": "uint256"
        },
        {
          "internalType": "uint256",
          "name": "duration",
          "type": "uint256"
        },
        {
          "internalType": "uint256",
          "name": "startTime",
          "type": "uint256"
        },
        {
          "internalType": "enum ITaskAuction.BATCH_TASK_STATE",
          "name": "batchTaskState",
          "type": "uint8"
        }
      ],
      "stateMutability": "view",
      "type": "function"
    },
    {
      "inputs": [
        {
          "internalType": "uint256",
          "name": "",
          "type": "uint256"
        }
      ],
      "name": "batchTaskIdToBatchTask",
      "outputs": [
        {
          "internalType": "uint256",
          "name": "pollId",
          "type": "uint256"
        },
        {
          "internalType": "uint256",
          "name": "batchTaskId",
          "type": "uint256"
        },
        {
          "internalType": "uint256",
          "name": "duration",
          "type": "uint256"
        },
        {
          "internalType": "uint256",
          "name": "startTime",
          "type": "uint256"
        },
        {
          "internalType": "enum ITaskAuction.BATCH_TASK_STATE",
          "name": "batchTaskState",
          "type": "uint8"
        }
      ],
      "stateMutability": "view",
      "type": "function"
    },
    {
      "inputs": [
        {
          "internalType": "uint256",
          "name": "",
          "type": "uint256"
        }
      ],
      "name": "bids",
      "outputs": [
        {
          "internalType": "address payable",
          "name": "bidder",
          "type": "address"
        },
        {
          "internalType": "uint256",
          "name": "taskId",
          "type": "uint256"
        },
        {
          "internalType": "uint256",
          "name": "totalBidAmount",
          "type": "uint256"
        },
        {
          "internalType": "uint256",
          "name": "numberBid",
          "type": "uint256"
        }
      ],
      "stateMutability": "view",
      "type": "function"
    },
    {
      "inputs": [
        {
          "internalType": "address",
          "name": "_tokenAddress",
          "type": "address"
        }
      ],
      "name": "chooseToken",
      "outputs": [],
      "stateMutability": "nonpayable",
      "type": "function"
    },
    {
      "inputs": [],
      "name": "endAuction",
      "outputs": [],
      "stateMutability": "nonpayable",
      "type": "function"
    },
    {
      "inputs": [
        {
          "internalType": "uint256",
          "name": "_pollID",
          "type": "uint256"
        }
      ],
      "name": "getAllBatchTaskAuction",
      "outputs": [
        {
          "components": [
            {
              "internalType": "uint256",
              "name": "pollId",
              "type": "uint256"
            },
            {
              "internalType": "uint256",
              "name": "batchTaskId",
              "type": "uint256"
            },
            {
              "internalType": "uint256[]",
              "name": "taskIds",
              "type": "uint256[]"
            },
            {
              "internalType": "uint256",
              "name": "duration",
              "type": "uint256"
            },
            {
              "internalType": "uint256",
              "name": "startTime",
              "type": "uint256"
            },
            {
              "internalType": "enum ITaskAuction.BATCH_TASK_STATE",
              "name": "batchTaskState",
              "type": "uint8"
            }
          ],
          "internalType": "struct ITaskAuction.BatchTaskAuction[]",
          "name": "",
          "type": "tuple[]"
        }
      ],
      "stateMutability": "view",
      "type": "function"
    },
    {
      "inputs": [
        {
          "internalType": "uint256",
          "name": "_batchTaskId",
          "type": "uint256"
        }
      ],
      "name": "getAllTaskAuction",
      "outputs": [
        {
          "components": [
            {
              "internalType": "uint256",
              "name": "taskId",
              "type": "uint256"
            },
            {
              "internalType": "uint256",
              "name": "point",
              "type": "uint256"
            },
            {
              "internalType": "uint256",
              "name": "reward",
              "type": "uint256"
            },
            {
              "internalType": "uint256",
              "name": "minReward",
              "type": "uint256"
            },
            {
              "internalType": "address",
              "name": "reporter",
              "type": "address"
            },
            {
              "internalType": "address",
              "name": "doer",
              "type": "address"
            },
            {
              "internalType": "address",
              "name": "reviewer",
              "type": "address"
            },
            {
              "internalType": "enum ITaskAuction.TASK_STATE",
              "name": "taskState",
              "type": "uint8"
            },
            {
              "internalType": "uint256",
              "name": "lowestBidAmount",
              "type": "uint256"
            },
            {
              "internalType": "address",
              "name": "lowestBidder",
              "type": "address"
            }
          ],
          "internalType": "struct ITaskAuction.AuctionTask[]",
          "name": "",
          "type": "tuple[]"
        }
      ],
      "stateMutability": "view",
      "type": "function"
    },
    {
      "inputs": [
        {
          "internalType": "uint256",
          "name": "_pollId",
          "type": "uint256"
        },
        {
          "components": [
            {
              "internalType": "uint256",
              "name": "taskId",
              "type": "uint256"
            },
            {
              "internalType": "uint256",
              "name": "point",
              "type": "uint256"
            },
            {
              "internalType": "uint256",
              "name": "reward",
              "type": "uint256"
            },
            {
              "internalType": "uint256",
              "name": "minReward",
              "type": "uint256"
            },
            {
              "internalType": "address",
              "name": "reporter",
              "type": "address"
            },
            {
              "internalType": "address",
              "name": "doer",
              "type": "address"
            },
            {
              "internalType": "address",
              "name": "reviewer",
              "type": "address"
            },
            {
              "internalType": "uint256",
              "name": "timeDoerReceive",
              "type": "uint256"
            },
            {
              "internalType": "enum ITaskManager.TASK_STATE",
              "name": "taskState",
              "type": "uint8"
            }
          ],
          "internalType": "struct ITaskManager.Task[]",
          "name": "_tasks",
          "type": "tuple[]"
        },
        {
          "internalType": "uint256",
          "name": "_batchTaskId",
          "type": "uint256"
        },
        {
          "internalType": "uint256",
          "name": "_auctionDuration",
          "type": "uint256"
        }
      ],
      "name": "openTaskForAuction",
      "outputs": [],
      "stateMutability": "nonpayable",
      "type": "function"
    },
    {
      "inputs": [],
      "name": "owner",
      "outputs": [
        {
          "internalType": "address",
          "name": "",
          "type": "address"
        }
      ],
      "stateMutability": "view",
      "type": "function"
    },
    {
      "inputs": [
        {
          "internalType": "uint256",
          "name": "_taskID",
          "type": "uint256"
        },
        {
          "internalType": "uint256",
          "name": "_batchTaskID",
          "type": "uint256"
        },
        {
          "internalType": "uint256",
          "name": "_amountBid",
          "type": "uint256"
        }
      ],
      "name": "placeBid",
      "outputs": [],
      "stateMutability": "nonpayable",
      "type": "function"
    },
    {
      "inputs": [
        {
          "internalType": "uint256[]",
          "name": "taskIds",
          "type": "uint256[]"
        },
        {
          "internalType": "uint256",
          "name": "_batchTaskID",
          "type": "uint256"
        },
        {
          "internalType": "uint256[]",
          "name": "_amountBids",
          "type": "uint256[]"
        }
      ],
      "name": "placeMultipleBid",
      "outputs": [],
      "stateMutability": "nonpayable",
      "type": "function"
    },
    {
      "inputs": [],
      "name": "renounceOwnership",
      "outputs": [],
      "stateMutability": "nonpayable",
      "type": "function"
    },
    {
      "inputs": [
        {
          "internalType": "address",
          "name": "_bankManagerAddress",
          "type": "address"
        }
      ],
      "name": "setBankManager",
      "outputs": [],
      "stateMutability": "nonpayable",
      "type": "function"
    },
    {
      "inputs": [
        {
          "internalType": "address",
          "name": "_taskManagerAddress",
          "type": "address"
        }
      ],
      "name": "setTaskManager",
      "outputs": [],
      "stateMutability": "nonpayable",
      "type": "function"
    },
    {
      "inputs": [
        {
          "internalType": "uint256",
          "name": "",
          "type": "uint256"
        }
      ],
      "name": "taskIdToAuctionTask",
      "outputs": [
        {
          "internalType": "uint256",
          "name": "taskId",
          "type": "uint256"
        },
        {
          "internalType": "uint256",
          "name": "point",
          "type": "uint256"
        },
        {
          "internalType": "uint256",
          "name": "reward",
          "type": "uint256"
        },
        {
          "internalType": "uint256",
          "name": "minReward",
          "type": "uint256"
        },
        {
          "internalType": "address",
          "name": "reporter",
          "type": "address"
        },
        {
          "internalType": "address",
          "name": "doer",
          "type": "address"
        },
        {
          "internalType": "address",
          "name": "reviewer",
          "type": "address"
        },
        {
          "internalType": "enum ITaskAuction.TASK_STATE",
          "name": "taskState",
          "type": "uint8"
        },
        {
          "internalType": "uint256",
          "name": "lowestBidAmount",
          "type": "uint256"
        },
        {
          "internalType": "address",
          "name": "lowestBidder",
          "type": "address"
        }
      ],
      "stateMutability": "view",
      "type": "function"
    },
    {
      "inputs": [],
      "name": "taskManager",
      "outputs": [
        {
          "internalType": "contract ITaskManager",
          "name": "",
          "type": "address"
        }
      ],
      "stateMutability": "view",
      "type": "function"
    },
    {
      "inputs": [],
      "name": "tokenAddress",
      "outputs": [
        {
          "internalType": "address",
          "name": "",
          "type": "address"
        }
      ],
      "stateMutability": "view",
      "type": "function"
    },
    {
      "inputs": [
        {
          "internalType": "address",
          "name": "newOwner",
          "type": "address"
        }
      ],
      "name": "transferOwnership",
      "outputs": [],
      "stateMutability": "nonpayable",
      "type": "function"
    }
  ],
  "bytecode": "0x60806040523480156200001157600080fd5b5062000032620000266200003860201b60201c565b6200004060201b60201c565b62000104565b600033905090565b60008060009054906101000a900473ffffffffffffffffffffffffffffffffffffffff169050816000806101000a81548173ffffffffffffffffffffffffffffffffffffffff021916908373ffffffffffffffffffffffffffffffffffffffff1602179055508173ffffffffffffffffffffffffffffffffffffffff168173ffffffffffffffffffffffffffffffffffffffff167f8be0079c531659141344cd1fd0a4f28419497f9722a3daafe3b4186f6b6457e060405160405180910390a35050565b61435280620001146000396000f3fe608060405234801561001057600080fd5b506004361061012c5760003560e01c80637a9b6ef7116100ad578063c8eeb01311610071578063c8eeb0131461033d578063e9e2990e14610376578063f2fde38b14610394578063f81f627d146103b0578063fe67a54b146103e45761012c565b80637a9b6ef7146102ab5780638da5cb5b146102c75780639d76ea58146102e5578063a50a640e14610303578063bdd084e6146103215761012c565b80634131e8a9116100f45780634131e8a91461020257806342b200ba146102365780634423c5f1146102525780635e62be2514610285578063715018a6146102a15761012c565b806301c4125d146101315780631b5c10511461016a5780631fbc96081461019a578063327d0a60146101ca5780633d7469d2146101e6575b600080fd5b61014b60048036038101906101469190612c38565b6103ee565b6040516101619a99989796959493929190612d2c565b60405180910390f35b610184600480360381019061017f9190612c38565b6104cf565b6040516101919190612f71565b60405180910390f35b6101b460048036038101906101af9190612c38565b6107b7565b6040516101c191906131d5565b60405180910390f35b6101e460048036038101906101df9190613223565b610976565b005b61020060048036038101906101fb91906134b5565b6109c2565b005b61021c60048036038101906102179190612c38565b6111a3565b60405161022d959493929190613547565b60405180910390f35b610250600480360381019061024b9190613223565b6111f6565b005b61026c60048036038101906102679190612c38565b611242565b60405161027c94939291906135bb565b60405180910390f35b61029f600480360381019061029a9190613600565b6112a2565b005b6102a9611c4e565b005b6102c560048036038101906102c09190613223565b611c62565b005b6102cf611cae565b6040516102dc9190613653565b60405180910390f35b6102ed611cd7565b6040516102fa9190613653565b60405180910390f35b61030b611cfd565b60405161031891906136cd565b60405180910390f35b61033b600480360381019061033691906137ab565b611d23565b005b61035760048036038101906103529190612c38565b611d87565b60405161036d9a99989796959493929190612d2c565b60405180910390f35b61037e611e78565b60405161038b9190613857565b60405180910390f35b6103ae60048036038101906103a99190613223565b611e9e565b005b6103ca60048036038101906103c59190612c38565b611f21565b6040516103db959493929190613547565b60405180910390f35b6103ec611f64565b005b60076020528060005260406000206000915090508060000154908060010154908060020154908060030154908060040160009054906101000a900473ffffffffffffffffffffffffffffffffffffffff16908060050160009054906101000a900473ffffffffffffffffffffffffffffffffffffffff16908060060160009054906101000a900473ffffffffffffffffffffffffffffffffffffffff16908060060160149054906101000a900460ff16908060070154908060080160009054906101000a900473ffffffffffffffffffffffffffffffffffffffff1690508a565b60606000600860008481526020019081526020016000206002018054905067ffffffffffffffff81111561050657610505613266565b5b60405190808252806020026020018201604052801561053f57816020015b61052c612a41565b8152602001906001900390816105245790505b50905060005b60086000858152602001908152602001600020600201805490508110156107ad576007600060086000878152602001908152602001600020600201838154811061059257610591613872565b5b9060005260206000200154815260200190815260200160002060405180610140016040529081600082015481526020016001820154815260200160028201548152602001600382015481526020016004820160009054906101000a900473ffffffffffffffffffffffffffffffffffffffff1673ffffffffffffffffffffffffffffffffffffffff1673ffffffffffffffffffffffffffffffffffffffff1681526020016005820160009054906101000a900473ffffffffffffffffffffffffffffffffffffffff1673ffffffffffffffffffffffffffffffffffffffff1673ffffffffffffffffffffffffffffffffffffffff1681526020016006820160009054906101000a900473ffffffffffffffffffffffffffffffffffffffff1673ffffffffffffffffffffffffffffffffffffffff1673ffffffffffffffffffffffffffffffffffffffff1681526020016006820160149054906101000a900460ff16600481111561070657610705612cb5565b5b600481111561071857610717612cb5565b5b8152602001600782015481526020016008820160009054906101000a900473ffffffffffffffffffffffffffffffffffffffff1673ffffffffffffffffffffffffffffffffffffffff1673ffffffffffffffffffffffffffffffffffffffff168152505082828151811061078f5761078e613872565b5b602002602001018190525080806107a5906138d0565b915050610545565b5080915050919050565b6060600060068054905067ffffffffffffffff8111156107da576107d9613266565b5b60405190808252806020026020018201604052801561081357816020015b610800612afe565b8152602001906001900390816107f85790505b50905060005b60068054905081101561096c57836006828154811061083b5761083a613872565b5b90600052602060002090600602016000015403610959576006818154811061086657610865613872565b5b90600052602060002090600602016040518060c00160405290816000820154815260200160018201548152602001600282018054806020026020016040519081016040528092919081815260200182805480156108e257602002820191906000526020600020905b8154815260200190600101908083116108ce575b5050505050815260200160038201548152602001600482015481526020016005820160009054906101000a900460ff16600181111561092457610923612cb5565b5b600181111561093657610935612cb5565b5b8152505082828151811061094d5761094c613872565b5b60200260200101819052505b8080610964906138d0565b915050610819565b5080915050919050565b61097e612743565b80600160006101000a81548173ffffffffffffffffffffffffffffffffffffffff021916908373ffffffffffffffffffffffffffffffffffffffff16021790555050565b600160009054906101000a900473ffffffffffffffffffffffffffffffffffffffff1673ffffffffffffffffffffffffffffffffffffffff163373ffffffffffffffffffffffffffffffffffffffff1614610a52576040517f08c379a0000000000000000000000000000000000000000000000000000000008152600401610a4990613975565b60405180910390fd5b6000835167ffffffffffffffff811115610a6f57610a6e613266565b5b604051908082528060200260200182016040528015610a9d5781602001602082028036833780820191505090505b50905060005b845181101561102757600080604051806101400160405280888581518110610ace57610acd613872565b5b6020026020010151600001518152602001888581518110610af257610af1613872565b5b6020026020010151602001518152602001888581518110610b1657610b15613872565b5b6020026020010151604001518152602001888581518110610b3a57610b39613872565b5b6020026020010151606001518152602001888581518110610b5e57610b5d613872565b5b60200260200101516080015173ffffffffffffffffffffffffffffffffffffffff168152602001600073ffffffffffffffffffffffffffffffffffffffff168152602001888581518110610bb557610bb4613872565b5b602002602001015160c0015173ffffffffffffffffffffffffffffffffffffffff16815260200160006004811115610bf057610bef612cb5565b5b8152602001888581518110610c0857610c07613872565b5b60200260200101516040015181526020018373ffffffffffffffffffffffffffffffffffffffff1681525090508060076000898681518110610c4d57610c4c613872565b5b60200260200101516000015181526020019081526020016000206000820151816000015560208201518160010155604082015181600201556060820151816003015560808201518160040160006101000a81548173ffffffffffffffffffffffffffffffffffffffff021916908373ffffffffffffffffffffffffffffffffffffffff16021790555060a08201518160050160006101000a81548173ffffffffffffffffffffffffffffffffffffffff021916908373ffffffffffffffffffffffffffffffffffffffff16021790555060c08201518160060160006101000a81548173ffffffffffffffffffffffffffffffffffffffff021916908373ffffffffffffffffffffffffffffffffffffffff16021790555060e08201518160060160146101000a81548160ff02191690836004811115610d8f57610d8e612cb5565b5b021790555061010082015181600701556101208201518160080160006101000a81548173ffffffffffffffffffffffffffffffffffffffff021916908373ffffffffffffffffffffffffffffffffffffffff16021790555090505060038190806001815401808255809150506001900390600052602060002090600902016000909190919091506000820151816000015560208201518160010155604082015181600201556060820151816003015560808201518160040160006101000a81548173ffffffffffffffffffffffffffffffffffffffff021916908373ffffffffffffffffffffffffffffffffffffffff16021790555060a08201518160050160006101000a81548173ffffffffffffffffffffffffffffffffffffffff021916908373ffffffffffffffffffffffffffffffffffffffff16021790555060c08201518160060160006101000a81548173ffffffffffffffffffffffffffffffffffffffff021916908373ffffffffffffffffffffffffffffffffffffffff16021790555060e08201518160060160146101000a81548160ff02191690836004811115610f3e57610f3d612cb5565b5b021790555061010082015181600701556101208201518160080160006101000a81548173ffffffffffffffffffffffffffffffffffffffff021916908373ffffffffffffffffffffffffffffffffffffffff1602179055505050868381518110610fab57610faa613872565b5b602002602001015160000151848481518110610fca57610fc9613872565b5b602002602001018181525050857f892f1c6901a3780c3a77be4526f6ff1da7ac493c1ec8add9345c23b30630ebbb86834260405161100a93929190613a61565b60405180910390a25050808061101f906138d0565b915050610aa3565b5060006040518060c001604052808781526020018581526020018381526020018481526020014281526020016000600181111561106757611066612cb5565b5b81525090506006819080600181540180825580915050600190039060005260206000209060060201600090919091909150600082015181600001556020820151816001015560408201518160020190805190602001906110c8929190612b46565b50606082015181600301556080820151816004015560a08201518160050160006101000a81548160ff0219169083600181111561110857611107612cb5565b5b02179055505050806008600086815260200190815260200160002060008201518160000155602082015181600101556040820151816002019080519060200190611153929190612b46565b50606082015181600301556080820151816004015560a08201518160050160006101000a81548160ff0219169083600181111561119357611192612cb5565b5b0217905550905050505050505050565b600681815481106111b357600080fd5b90600052602060002090600602016000915090508060000154908060010154908060030154908060040154908060050160009054906101000a900460ff16905085565b6111fe612743565b80600460006101000a81548173ffffffffffffffffffffffffffffffffffffffff021916908373ffffffffffffffffffffffffffffffffffffffff16021790555050565b6005818154811061125257600080fd5b90600052602060002090600402016000915090508060000160009054906101000a900473ffffffffffffffffffffffffffffffffffffffff16908060010154908060020154908060030154905084565b6000828160018111156112b8576112b7612cb5565b5b6008600083815260200190815260200160002060050160009054906101000a900460ff1660018111156112ee576112ed612cb5565b5b1461132e576040517f08c379a000000000000000000000000000000000000000000000000000000000815260040161132590613ae6565b60405180910390fd5b60006007600087815260200190815260200160002090508581600001541461138b576040517f08c379a000000000000000000000000000000000000000000000000000000000815260040161138290613b52565b60405180910390fd5b83600260009054906101000a900473ffffffffffffffffffffffffffffffffffffffff1673ffffffffffffffffffffffffffffffffffffffff1663f7888aec33600460009054906101000a900473ffffffffffffffffffffffffffffffffffffffff166040518363ffffffff1660e01b815260040161140b929190613b72565b6020604051808303816000875af115801561142a573d6000803e3d6000fd5b505050506040513d601f19601f8201168201806040525081019061144e9190613bb0565b101561148f576040517f08c379a000000000000000000000000000000000000000000000000000000000815260040161148690613c29565b60405180910390fd5b806003015484101580156114a65750806007015484105b6114e5576040517f08c379a00000000000000000000000000000000000000000000000000000000081526004016114dc90613c95565b60405180910390fd5b600260009054906101000a900473ffffffffffffffffffffffffffffffffffffffff1673ffffffffffffffffffffffffffffffffffffffff1663f18d03cc33600460009054906101000a900473ffffffffffffffffffffffffffffffffffffffff16600260009054906101000a900473ffffffffffffffffffffffffffffffffffffffff16886040518563ffffffff1660e01b815260040161158a9493929190613cb5565b600060405180830381600087803b1580156115a457600080fd5b505af11580156115b8573d6000803e3d6000fd5b5050505060006115c887336127c1565b9050600073ffffffffffffffffffffffffffffffffffffffff16816000015173ffffffffffffffffffffffffffffffffffffffff16036116455733816000019073ffffffffffffffffffffffffffffffffffffffff16908173ffffffffffffffffffffffffffffffffffffffff1681525050868160200181815250505b84816040018181516116579190613cfa565b91508181525050806060018051809190611670906138d0565b8152505081600701548510156116cd57848260070181905550338260080160006101000a81548173ffffffffffffffffffffffffffffffffffffffff021916908373ffffffffffffffffffffffffffffffffffffffff1602179055505b8160076000898152602001908152602001600020600082015481600001556001820154816001015560028201548160020155600382015481600301556004820160009054906101000a900473ffffffffffffffffffffffffffffffffffffffff168160040160006101000a81548173ffffffffffffffffffffffffffffffffffffffff021916908373ffffffffffffffffffffffffffffffffffffffff1602179055506005820160009054906101000a900473ffffffffffffffffffffffffffffffffffffffff168160050160006101000a81548173ffffffffffffffffffffffffffffffffffffffff021916908373ffffffffffffffffffffffffffffffffffffffff1602179055506006820160009054906101000a900473ffffffffffffffffffffffffffffffffffffffff168160060160006101000a81548173ffffffffffffffffffffffffffffffffffffffff021916908373ffffffffffffffffffffffffffffffffffffffff1602179055506006820160149054906101000a900460ff168160060160146101000a81548160ff0219169083600481111561187657611875612cb5565b5b0217905550600782015481600701556008820160009054906101000a900473ffffffffffffffffffffffffffffffffffffffff168160080160006101000a81548173ffffffffffffffffffffffffffffffffffffffff021916908373ffffffffffffffffffffffffffffffffffffffff16021790555090505060005b600380549050811015611b7457876003828154811061191457611913613872565b5b90600052602060002090600902016000015403611b615782600382815481106119405761193f613872565b5b9060005260206000209060090201600082015481600001556001820154816001015560028201548160020155600382015481600301556004820160009054906101000a900473ffffffffffffffffffffffffffffffffffffffff168160040160006101000a81548173ffffffffffffffffffffffffffffffffffffffff021916908373ffffffffffffffffffffffffffffffffffffffff1602179055506005820160009054906101000a900473ffffffffffffffffffffffffffffffffffffffff168160050160006101000a81548173ffffffffffffffffffffffffffffffffffffffff021916908373ffffffffffffffffffffffffffffffffffffffff1602179055506006820160009054906101000a900473ffffffffffffffffffffffffffffffffffffffff168160060160006101000a81548173ffffffffffffffffffffffffffffffffffffffff021916908373ffffffffffffffffffffffffffffffffffffffff1602179055506006820160149054906101000a900460ff168160060160146101000a81548160ff02191690836004811115611ae357611ae2612cb5565b5b0217905550600782015481600701556008820160009054906101000a900473ffffffffffffffffffffffffffffffffffffffff168160080160006101000a81548173ffffffffffffffffffffffffffffffffffffffff021916908373ffffffffffffffffffffffffffffffffffffffff160217905550905050611b74565b8080611b6c906138d0565b9150506118f2565b50600581908060018154018082558091505060019003906000526020600020906004020160009091909190915060008201518160000160006101000a81548173ffffffffffffffffffffffffffffffffffffffff021916908373ffffffffffffffffffffffffffffffffffffffff160217905550602082015181600101556040820151816002015560608201518160030155505085877f2cff0c19c381686e31d570ceca6503f9647cc71d904570fa7d6ec6ba8fdd41ed848442604051611c3d93929190613f64565b60405180910390a350505050505050565b611c56612743565b611c606000612975565b565b611c6a612743565b80600260006101000a81548173ffffffffffffffffffffffffffffffffffffffff021916908373ffffffffffffffffffffffffffffffffffffffff16021790555050565b60008060009054906101000a900473ffffffffffffffffffffffffffffffffffffffff16905090565b600460009054906101000a900473ffffffffffffffffffffffffffffffffffffffff1681565b600160009054906101000a900473ffffffffffffffffffffffffffffffffffffffff1681565b60005b8351811015611d8157611d6e848281518110611d4557611d44613872565b5b602002602001015184848481518110611d6157611d60613872565b5b60200260200101516112a2565b8080611d79906138d0565b915050611d26565b50505050565b60038181548110611d9757600080fd5b90600052602060002090600902016000915090508060000154908060010154908060020154908060030154908060040160009054906101000a900473ffffffffffffffffffffffffffffffffffffffff16908060050160009054906101000a900473ffffffffffffffffffffffffffffffffffffffff16908060060160009054906101000a900473ffffffffffffffffffffffffffffffffffffffff16908060060160149054906101000a900460ff16908060070154908060080160009054906101000a900473ffffffffffffffffffffffffffffffffffffffff1690508a565b600260009054906101000a900473ffffffffffffffffffffffffffffffffffffffff1681565b611ea6612743565b600073ffffffffffffffffffffffffffffffffffffffff168173ffffffffffffffffffffffffffffffffffffffff1603611f15576040517f08c379a0000000000000000000000000000000000000000000000000000000008152600401611f0c90614010565b60405180910390fd5b611f1e81612975565b50565b60086020528060005260406000206000915090508060000154908060010154908060030154908060040154908060050160009054906101000a900460ff16905085565b6000805b6006805490508110156126fd5760006001811115611f8957611f88612cb5565b5b60068281548110611f9d57611f9c613872565b5b906000526020600020906006020160050160009054906101000a900460ff166001811115611fce57611fcd612cb5565b5b14801561202f575060068181548110611fea57611fe9613872565b5b906000526020600020906006020160030154600682815481106120105761200f613872565b5b90600052602060002090600602016004015461202c9190613cfa565b42115b156126ea576001915060005b6006828154811061204f5761204e613872565b5b9060005260206000209060060201600201805490508110156126e857600073ffffffffffffffffffffffffffffffffffffffff16600760006006858154811061209b5761209a613872565b5b906000526020600020906006020160020184815481106120be576120bd613872565b5b9060005260206000200154815260200190815260200160002060080160009054906101000a900473ffffffffffffffffffffffffffffffffffffffff1673ffffffffffffffffffffffffffffffffffffffff16146126d557600760006006848154811061212e5761212d613872565b5b9060005260206000209060060201600201838154811061215157612150613872565b5b9060005260206000200154815260200190815260200160002060070154600760006006858154811061218657612185613872565b5b906000526020600020906006020160020184815481106121a9576121a8613872565b5b906000526020600020015481526020019081526020016000206002018190555060076000600684815481106121e1576121e0613872565b5b9060005260206000209060060201600201838154811061220457612203613872565b5b9060005260206000200154815260200190815260200160002060080160009054906101000a900473ffffffffffffffffffffffffffffffffffffffff16600760006006858154811061225957612258613872565b5b9060005260206000209060060201600201848154811061227c5761227b613872565b5b9060005260206000200154815260200190815260200160002060050160006101000a81548173ffffffffffffffffffffffffffffffffffffffff021916908373ffffffffffffffffffffffffffffffffffffffff160217905550600160076000600685815481106122f0576122ef613872565b5b9060005260206000209060060201600201848154811061231357612312613872565b5b9060005260206000200154815260200190815260200160002060060160146101000a81548160ff0219169083600481111561235157612350612cb5565b5b021790555060005b60058054905081101561253e57600760006006858154811061237e5761237d613872565b5b906000526020600020906006020160020184815481106123a1576123a0613872565b5b9060005260206000200154815260200190815260200160002060000154600582815481106123d2576123d1613872565b5b9060005260206000209060040201600101540361252b57600260009054906101000a900473ffffffffffffffffffffffffffffffffffffffff1673ffffffffffffffffffffffffffffffffffffffff1663f18d03cc600260009054906101000a900473ffffffffffffffffffffffffffffffffffffffff16600460009054906101000a900473ffffffffffffffffffffffffffffffffffffffff166005858154811061248157612480613872565b5b906000526020600020906004020160000160009054906101000a900473ffffffffffffffffffffffffffffffffffffffff16600586815481106124c7576124c6613872565b5b9060005260206000209060040201600201546040518563ffffffff1660e01b81526004016124f89493929190614051565b600060405180830381600087803b15801561251257600080fd5b505af1158015612526573d6000803e3d6000fd5b505050505b8080612536906138d0565b915050612359565b50600160009054906101000a900473ffffffffffffffffffffffffffffffffffffffff1673ffffffffffffffffffffffffffffffffffffffff1663e64f01b9600760006006868154811061259557612594613872565b5b906000526020600020906006020160020185815481106125b8576125b7613872565b5b906000526020600020015481526020019081526020016000206040518263ffffffff1660e01b81526004016125ed91906141c9565b600060405180830381600087803b15801561260757600080fd5b505af115801561261b573d6000803e3d6000fd5b505050506006828154811061263357612632613872565b5b9060005260206000209060060201600101547f414477b51c9210f442a533ef45a65cdf2bb0aee1caf1e4fb991055244e7055dd600160076000600687815481106126805761267f613872565b5b906000526020600020906006020160020186815481106126a3576126a2613872565b5b90600052602060002001548152602001908152602001600020426040516126cc939291906141e5565b60405180910390a25b80806126e0906138d0565b91505061203b565b505b80806126f5906138d0565b915050611f68565b506000151581151503612740577f740029a372cf63fe0e8d59421d39ff2e39506263bf68a6d46f4ade0771a0901260405161273790614290565b60405180910390a15b50565b61274b612a39565b73ffffffffffffffffffffffffffffffffffffffff16612769611cae565b73ffffffffffffffffffffffffffffffffffffffff16146127bf576040517f08c379a00000000000000000000000000000000000000000000000000000000081526004016127b6906142fc565b60405180910390fd5b565b6127c9612b93565b600060058054905081101561296d5783600582815481106127ed576127ec613872565b5b90600052602060002090600402016001015414801561287c57508273ffffffffffffffffffffffffffffffffffffffff166005828154811061283257612831613872565b5b906000526020600020906004020160000160009054906101000a900473ffffffffffffffffffffffffffffffffffffffff1673ffffffffffffffffffffffffffffffffffffffff16145b1561292a576005818154811061289557612894613872565b5b90600052602060002090600402016040518060800160405290816000820160009054906101000a900473ffffffffffffffffffffffffffffffffffffffff1673ffffffffffffffffffffffffffffffffffffffff1673ffffffffffffffffffffffffffffffffffffffff168152602001600182015481526020016002820154815260200160038201548152505091505061296f565b6040518060800160405280600073ffffffffffffffffffffffffffffffffffffffff1681526020016000815260200160008152602001600081525091505061296f565b505b92915050565b60008060009054906101000a900473ffffffffffffffffffffffffffffffffffffffff169050816000806101000a81548173ffffffffffffffffffffffffffffffffffffffff021916908373ffffffffffffffffffffffffffffffffffffffff1602179055508173ffffffffffffffffffffffffffffffffffffffff168173ffffffffffffffffffffffffffffffffffffffff167f8be0079c531659141344cd1fd0a4f28419497f9722a3daafe3b4186f6b6457e060405160405180910390a35050565b600033905090565b60405180610140016040528060008152602001600081526020016000815260200160008152602001600073ffffffffffffffffffffffffffffffffffffffff168152602001600073ffffffffffffffffffffffffffffffffffffffff168152602001600073ffffffffffffffffffffffffffffffffffffffff16815260200160006004811115612ad457612ad3612cb5565b5b815260200160008152602001600073ffffffffffffffffffffffffffffffffffffffff1681525090565b6040518060c00160405280600081526020016000815260200160608152602001600081526020016000815260200160006001811115612b4057612b3f612cb5565b5b81525090565b828054828255906000526020600020908101928215612b82579160200282015b82811115612b81578251825591602001919060010190612b66565b5b509050612b8f9190612bd1565b5090565b6040518060800160405280600073ffffffffffffffffffffffffffffffffffffffff1681526020016000815260200160008152602001600081525090565b5b80821115612bea576000816000905550600101612bd2565b5090565b6000604051905090565b600080fd5b600080fd5b6000819050919050565b612c1581612c02565b8114612c2057600080fd5b50565b600081359050612c3281612c0c565b92915050565b600060208284031215612c4e57612c4d612bf8565b5b6000612c5c84828501612c23565b91505092915050565b612c6e81612c02565b82525050565b600073ffffffffffffffffffffffffffffffffffffffff82169050919050565b6000612c9f82612c74565b9050919050565b612caf81612c94565b82525050565b7f4e487b7100000000000000000000000000000000000000000000000000000000600052602160045260246000fd5b60058110612cf557612cf4612cb5565b5b50565b6000819050612d0682612ce4565b919050565b6000612d1682612cf8565b9050919050565b612d2681612d0b565b82525050565b600061014082019050612d42600083018d612c65565b612d4f602083018c612c65565b612d5c604083018b612c65565b612d69606083018a612c65565b612d766080830189612ca6565b612d8360a0830188612ca6565b612d9060c0830187612ca6565b612d9d60e0830186612d1d565b612dab610100830185612c65565b612db9610120830184612ca6565b9b9a5050505050505050505050565b600081519050919050565b600082825260208201905092915050565b6000819050602082019050919050565b612dfd81612c02565b82525050565b612e0c81612c94565b82525050565b612e1b81612d0b565b82525050565b61014082016000820151612e386000850182612df4565b506020820151612e4b6020850182612df4565b506040820151612e5e6040850182612df4565b506060820151612e716060850182612df4565b506080820151612e846080850182612e03565b5060a0820151612e9760a0850182612e03565b5060c0820151612eaa60c0850182612e03565b5060e0820151612ebd60e0850182612e12565b50610100820151612ed2610100850182612df4565b50610120820151612ee7610120850182612e03565b50505050565b6000612ef98383612e21565b6101408301905092915050565b6000602082019050919050565b6000612f1e82612dc8565b612f288185612dd3565b9350612f3383612de4565b8060005b83811015612f64578151612f4b8882612eed565b9750612f5683612f06565b925050600181019050612f37565b5085935050505092915050565b60006020820190508181036000830152612f8b8184612f13565b905092915050565b600081519050919050565b600082825260208201905092915050565b6000819050602082019050919050565b600081519050919050565b600082825260208201905092915050565b6000819050602082019050919050565b6000612ff78383612df4565b60208301905092915050565b6000602082019050919050565b600061301b82612fbf565b6130258185612fca565b935061303083612fdb565b8060005b838110156130615781516130488882612feb565b975061305383613003565b925050600181019050613034565b5085935050505092915050565b6002811061307f5761307e612cb5565b5b50565b60008190506130908261306e565b919050565b60006130a082613082565b9050919050565b6130b081613095565b82525050565b600060c0830160008301516130ce6000860182612df4565b5060208301516130e16020860182612df4565b50604083015184820360408601526130f98282613010565b915050606083015161310e6060860182612df4565b5060808301516131216080860182612df4565b5060a083015161313460a08601826130a7565b508091505092915050565b600061314b83836130b6565b905092915050565b6000602082019050919050565b600061316b82612f93565b6131758185612f9e565b93508360208202850161318785612faf565b8060005b858110156131c357848403895281516131a4858261313f565b94506131af83613153565b925060208a0199505060018101905061318b565b50829750879550505050505092915050565b600060208201905081810360008301526131ef8184613160565b905092915050565b61320081612c94565b811461320b57600080fd5b50565b60008135905061321d816131f7565b92915050565b60006020828403121561323957613238612bf8565b5b60006132478482850161320e565b91505092915050565b600080fd5b6000601f19601f8301169050919050565b7f4e487b7100000000000000000000000000000000000000000000000000000000600052604160045260246000fd5b61329e82613255565b810181811067ffffffffffffffff821117156132bd576132bc613266565b5b80604052505050565b60006132d0612bee565b90506132dc8282613295565b919050565b600067ffffffffffffffff8211156132fc576132fb613266565b5b602082029050602081019050919050565b600080fd5b600080fd5b6005811061332457600080fd5b50565b60008135905061333681613317565b92915050565b6000610120828403121561335357613352613312565b5b61335e6101206132c6565b9050600061336e84828501612c23565b600083015250602061338284828501612c23565b602083015250604061339684828501612c23565b60408301525060606133aa84828501612c23565b60608301525060806133be8482850161320e565b60808301525060a06133d28482850161320e565b60a08301525060c06133e68482850161320e565b60c08301525060e06133fa84828501612c23565b60e08301525061010061340f84828501613327565b6101008301525092915050565b600061342f61342a846132e1565b6132c6565b90508083825260208201905061012084028301858111156134535761345261330d565b5b835b8181101561347d5780613468888261333c565b84526020840193505061012081019050613455565b5050509392505050565b600082601f83011261349c5761349b613250565b5b81356134ac84826020860161341c565b91505092915050565b600080600080608085870312156134cf576134ce612bf8565b5b60006134dd87828801612c23565b945050602085013567ffffffffffffffff8111156134fe576134fd612bfd565b5b61350a87828801613487565b935050604061351b87828801612c23565b925050606061352c87828801612c23565b91505092959194509250565b61354181613095565b82525050565b600060a08201905061355c6000830188612c65565b6135696020830187612c65565b6135766040830186612c65565b6135836060830185612c65565b6135906080830184613538565b9695505050505050565b60006135a582612c74565b9050919050565b6135b58161359a565b82525050565b60006080820190506135d060008301876135ac565b6135dd6020830186612c65565b6135ea6040830185612c65565b6135f76060830184612c65565b95945050505050565b60008060006060848603121561361957613618612bf8565b5b600061362786828701612c23565b935050602061363886828701612c23565b925050604061364986828701612c23565b9150509250925092565b60006020820190506136686000830184612ca6565b92915050565b6000819050919050565b600061369361368e61368984612c74565b61366e565b612c74565b9050919050565b60006136a582613678565b9050919050565b60006136b78261369a565b9050919050565b6136c7816136ac565b82525050565b60006020820190506136e260008301846136be565b92915050565b600067ffffffffffffffff82111561370357613702613266565b5b602082029050602081019050919050565b6000613727613722846136e8565b6132c6565b9050808382526020820190506020840283018581111561374a5761374961330d565b5b835b81811015613773578061375f8882612c23565b84526020840193505060208101905061374c565b5050509392505050565b600082601f83011261379257613791613250565b5b81356137a2848260208601613714565b91505092915050565b6000806000606084860312156137c4576137c3612bf8565b5b600084013567ffffffffffffffff8111156137e2576137e1612bfd565b5b6137ee8682870161377d565b93505060206137ff86828701612c23565b925050604084013567ffffffffffffffff8111156138205761381f612bfd565b5b61382c8682870161377d565b9150509250925092565b60006138418261369a565b9050919050565b61385181613836565b82525050565b600060208201905061386c6000830184613848565b92915050565b7f4e487b7100000000000000000000000000000000000000000000000000000000600052603260045260246000fd5b7f4e487b7100000000000000000000000000000000000000000000000000000000600052601160045260246000fd5b60006138db82612c02565b91507fffffffffffffffffffffffffffffffffffffffffffffffffffffffffffffffff820361390d5761390c6138a1565b5b600182019050919050565b600082825260208201905092915050565b7f4f6e6c792063616c6c206279205461736b4d616e616765720000000000000000600082015250565b600061395f601883613918565b915061396a82613929565b602082019050919050565b6000602082019050818103600083015261398e81613952565b9050919050565b610140820160008201516139ac6000850182612df4565b5060208201516139bf6020850182612df4565b5060408201516139d26040850182612df4565b5060608201516139e56060850182612df4565b5060808201516139f86080850182612e03565b5060a0820151613a0b60a0850182612e03565b5060c0820151613a1e60c0850182612e03565b5060e0820151613a3160e0850182612e12565b50610100820151613a46610100850182612df4565b50610120820151613a5b610120850182612e03565b50505050565b600061018082019050613a776000830186612c65565b613a846020830185613995565b613a92610160830184612c65565b949350505050565b7f4572726f723a20496e76616c6964204261746368205461736b20537461746500600082015250565b6000613ad0601f83613918565b9150613adb82613a9a565b602082019050919050565b60006020820190508181036000830152613aff81613ac3565b9050919050565b7f57726f6e67207461736b49440000000000000000000000000000000000000000600082015250565b6000613b3c600c83613918565b9150613b4782613b06565b602082019050919050565b60006020820190508181036000830152613b6b81613b2f565b9050919050565b6000604082019050613b876000830185612ca6565b613b946020830184612ca6565b9392505050565b600081519050613baa81612c0c565b92915050565b600060208284031215613bc657613bc5612bf8565b5b6000613bd484828501613b9b565b91505092915050565b7f596f75722062616c616e6365206e6f7420656e6f756768000000000000000000600082015250565b6000613c13601783613918565b9150613c1e82613bdd565b602082019050919050565b60006020820190508181036000830152613c4281613c06565b9050919050565b7f496e73756666696369656e742062696420616d6f756e74200000000000000000600082015250565b6000613c7f601883613918565b9150613c8a82613c49565b602082019050919050565b60006020820190508181036000830152613cae81613c72565b9050919050565b6000608082019050613cca6000830187612ca6565b613cd76020830186612ca6565b613ce46040830185612ca6565b613cf16060830184612c65565b95945050505050565b6000613d0582612c02565b9150613d1083612c02565b9250828201905080821115613d2857613d276138a1565b5b92915050565b60008160001c9050919050565b6000819050919050565b6000613d58613d5383613d2e565b613d3b565b9050919050565b600073ffffffffffffffffffffffffffffffffffffffff82169050919050565b6000613d92613d8d83613d2e565b613d5f565b9050919050565b60008160a01c9050919050565b600060ff82169050919050565b6000613dc6613dc183613d99565b613da6565b9050919050565b61014082016000808301549050613de381613d45565b613df06000860182612df4565b5060018301549050613e0181613d45565b613e0e6020860182612df4565b5060028301549050613e1f81613d45565b613e2c6040860182612df4565b5060038301549050613e3d81613d45565b613e4a6060860182612df4565b5060048301549050613e5b81613d7f565b613e686080860182612e03565b5060058301549050613e7981613d7f565b613e8660a0860182612e03565b5060068301549050613e9781613d7f565b613ea460c0860182612e03565b50613eae81613db3565b613ebb60e0860182612e12565b5060078301549050613ecc81613d45565b613eda610100860182612df4565b5060088301549050613eeb81613d7f565b613ef9610120860182612e03565b5050505050565b613f098161359a565b82525050565b608082016000820151613f256000850182613f00565b506020820151613f386020850182612df4565b506040820151613f4b6040850182612df4565b506060820151613f5e6060850182612df4565b50505050565b60006101e082019050613f7a6000830186613dcd565b613f88610140830185613f0f565b613f966101c0830184612c65565b949350505050565b7f4f776e61626c653a206e6577206f776e657220697320746865207a65726f206160008201527f6464726573730000000000000000000000000000000000000000000000000000602082015250565b6000613ffa602683613918565b915061400582613f9e565b604082019050919050565b6000602082019050818103600083015261402981613fed565b9050919050565b600061403b8261369a565b9050919050565b61404b81614030565b82525050565b60006080820190506140666000830187612ca6565b6140736020830186612ca6565b6140806040830185614042565b61408d6060830184612c65565b95945050505050565b610140820160008083015490506140ac81613d45565b6140b96000860182612df4565b50600183015490506140ca81613d45565b6140d76020860182612df4565b50600283015490506140e881613d45565b6140f56040860182612df4565b506003830154905061410681613d45565b6141136060860182612df4565b506004830154905061412481613d7f565b6141316080860182612e03565b506005830154905061414281613d7f565b61414f60a0860182612e03565b506006830154905061416081613d7f565b61416d60c0860182612e03565b5061417781613db3565b61418460e0860182612e12565b506007830154905061419581613d45565b6141a3610100860182612df4565b50600883015490506141b481613d7f565b6141c2610120860182612e03565b5050505050565b6000610140820190506141df6000830184614096565b92915050565b6000610180820190506141fb6000830186613538565b6142086020830185614096565b614216610160830184612c65565b949350505050565b7f546865726520617265206e6f2041756374696f6e2063616e20656e642061742060008201527f746865206d6f6d656e7400000000000000000000000000000000000000000000602082015250565b600061427a602a83613918565b91506142858261421e565b604082019050919050565b600060208201905081810360008301526142a98161426d565b9050919050565b7f4f776e61626c653a2063616c6c6572206973206e6f7420746865206f776e6572600082015250565b60006142e6602083613918565b91506142f1826142b0565b602082019050919050565b60006020820190508181036000830152614315816142d9565b905091905056fea2646970667358221220ebef828a4c0be5f9035e3f87f6c3a1c87320cebdfe92695f39176ded72a785a064736f6c63430008110033",
  "linkReferences": {},
  "deployedLinkReferences": {}
}